:040000000AEF00F013
:10000800E1CF7CF0E2CF7DF01EED64F015EE5CF000
:1000180054EF5AF0090EE126000EE222FF0E44C00A
:10002800E3FFFE0E43C0E3FF41C06DF042C06EF037
:10003800280E6D243F6E000E6E20406E3FC049F0C2
:1000480040C04AF0F60EE3CF6CF0030E6C18D8A44B
:1000580029D0FE0EE3CF6DF0FF0EE3CF6EF0190E40
:100068006D24D96E000E6E20DA6EDF500F0B030A76
:10007800D8A48CEF10F0FE0EE3CF6DF0FF0EE3CFA7
:100088006EF0100E6D24D96E000E6E20DA6EDE5002
:10009800DE10D8A48CEF10F0080E546ED8EC1CF0CB
:1000A80095EF0CF0F60EE3CF6CF0020E6C18D8A4A6
:1000B80073D1223E05D0213E03D0203E01D01F2A15
:1000C800456A466A4B6A4C6AFE0EE3CF6DF0FF0E36
:1000D800E3CF6EF0190E6D24D96E000E6E20DA6E25
:1000E800070EDE18D8B410D0FE0EE3CF6DF0FF0E69
:1000F800E3CF6EF0190E6D24D96E000E6E20DA6E05
:10010800050EDE18D8A427D0FE0EE3CF6DF0FF0E43
:10011800E3CF6EF01A0E6D24D96E000E6E20DA6EE3
:10012800DF2AFE0EE3CF6DF0FF0EE3CF6EF01A0E5E
:100138006D24D96E000E6E20DA6E780EDE18D8A403
:100148008CEF10F0FE0EE3CF6DF0FF0EE3CF6EF0F4
:10015800190E6EEF0EF0FE0EE3CF6DF0FF0EE3CF3B
:100168006EF0190E6D24D96E000E6E20DA6EDF5017
:10017800D8B48CEF10F0FE0EE3CF6DF0FF0EE3CF96
:100188006EF0100E6D24D96E000E6E20DA6EDE5001
:10019800DE10D8B4F1D0FE0EE3CF6DF0FF0EE3CF42
:1001A8006EF01A0E6D24D96E000E6E20DA6EDF0620
:1001B800DE28D8A48CEF10F0FE0EE3CF6DF0FF0E12
:1001C800E3CF6EF01B0E6D24D96E000E6E20DA6E32
:1001D8000A0EDE18D8B42FD0FE0EE3CF6DF0FF0E56
:1001E800E3CF6EF0190E6D24D96E000E6E20DA6E14
:1001F800020EDE18D8B40FD0FE0EE3CF6DF0FF0E5E
:10020800E3CF6EF0190E6D24D96E000E6E20DA6EF3
:10021800DE04D8A424D0FE0EE3CF6DF0FF0EE3CFAA
:100228006EF01B0E6D24D96E000E6E20DA6E030E72
:10023800DE18D8A414D0FE0EE3CF6DF0FF0EE3CF86
:100248006EF0190E6D24D96E000E6E20DA6E000E57
:10025800DF6E800E546ED8EC1CF0A7EF0CF0FE0E8B
:10026800E3CF6DF0FF0EE3CF6EF01B0E6D24D96E59
:10027800000E6E20DA6E050EDF6010D0FE0EE3CFA2
:100288006DF0FF0EE3CF6EF01B0E6D24D96E000EDD
:100298006E20DA6EDF506D6E6E6A04D0040E6D6EDD
:1002A800000E6E6EFB0E6DC0E3FFFC0E6EC0E3FF2A
:1002B800FE0EE3CF6DF0FF0EE3CF6EF01A0E6D2445
:1002C800D96E000E6E20DA6EFB0EE3CF77F0080EC3
:1002D800766E772A02D0D8907636772EFCD776506D
:1002E800DF6EFE0EE3CF6DF0FF0EE3CF6EF01B0E58
:1002F8006D24D96E000E6E20DA6EDF2A0FD020EE44
:1003080021F04150D9264250DA22000E58EF07F06A
:10031800040E546ED8EC1CF051EF0DF0FE0EE3CF36
:100328006DF0FF0EE3CF6EF0190E6D24D96E000E3E
:100338006E20DA6EDF500F0B6D6E6E6A6E50000A1B
:10034800D8A48CEF10F06D50010AD8B451EF07F023
:10035800030AD8B4D4D7010AD8B4DAD7070AD8B46C
:10036800D2EF0CF0020AD8B4D2EF0CF00E0AD8B4CF
:10037800D2EF0CF08CEF10F0FE0EE3CF6DF0FF0E15
:10038800E3CF6EF0190E6D24D96E000E6E20DA6E72
:10039800DF500F0B030A7DD641C0D9FF42C0DAFFF8
:1003A800450EDE18D8A48CEF10F020EE02F0415074
:1003B800D9264250DA22DF506E6E6D6A20EE03F0C5
:1003C8004150D9264250DA22DF506D26000E6E22A7
:1003D8006D50455C6E504658D8A08CEF10F020EE5A
:1003E80003F04150D9264250DA22DF50776E20EED2
:1003F80002F04150D9264250DA22DF506E6E6D6A03
:1004080077506D24456E000E6E20466E20EE06F085
:100418004150D9264250DA22DF50776E3F0E7716C8
:10042800D8A48CEF10F020EE07F04150D9264250A6
:10043800DA22DF50D8A48CEF10F0AD0EF66EF60E6F
:10044800F76E000EF86E0900F5502B1813E109003D
:10045800F5502C18D8A40ED0AF0EF66EF60EF76E27
:10046800F86A0900F5502D1805E10900F5502E1815
:10047800D8B41FD020EE10F04150D9264250DA22CD
:100488002B50DE1803E12C50DE18D8A48CEF10F0A6
:1004980020EE12F04150D9264250DA222D50DE18B3
:1004A80006E12E50DE18D8A48CEF10F002D08CEFA5
:1004B80010F0B3EC60F06C2805E16D28D8A48CEF3F
:1004C80010F002D08CEF10F020EE09F04150D92640
:1004D8004250DA22060EDE18D8B471D020EE09F0A8
:1004E8004150D9264250DA22DE04D8A48CEF10F00D
:1004F80020EE14F04150D9264250DA22080EDE18B8
:10050800D8A48CEF10F020EE14F04150D9264250B8
:10051800DA22000EDF6E20EE16F04150D926425046
:10052800DA22F70EDE5CFF0EDE58D8A008D020EEE7
:1005380016F04150D9264250DA22090E07D020EE93
:1005480016F04150D9264250DA22080EDE26000E57
:10055800DD2220EE0CF04150D9264250DA2200EE7E
:1005680010F04150E9264250EA22DECFEEFFDDCFFF
:10057800EDFF20EE0EF04150D9264250DA2200EE6F
:1005880012F04150E9264250EA22DECFEEFFDDCFDD
:10059800EDFF20EE0CF04150D9264250DA222BC054
:1005A800DEFF2CC0DDFF20EE0EF04150D926425070
:1005B800DA222DC0DEFF2EC0DDFF8EEF10F0B9EC81
:1005C80065F06C2805E16D28D8A48CEF10F002D0F6
:1005D8008CEF10F0000E6C6EFF0E6CC0E3FF900EF7
:1005E8006C6EFE0E6CC0E3FFFE0EE3CF6DF0FF0EE7
:1005F800E3CF6EF06E50000802E16D509008D8A06D
:100608007CD0FE0EE3CF6DF0FF0EE3CF6EF0190E37
:100618006D24D96E000E6E20DA6EDF50D8B45FD02C
:10062800FE0EE3CF6DF0FF0EE3CF6EF0040E6D24E7
:10063800D96E000E6E20DA6E00EE16F04150E926F3
:100648004250EA22DE50EE184AE1DE50EE18D8A4F5
:1006580046D0FE0EE3CF6DF0FF0EE3CF6EF0060E30
:100668006D24D96E000E6E20DA6E00EE14F0415043
:10067800E9264250EA22DE50EE1831E1DE50EE184B
:10068800D8A42DD0FE0EE3CFD9FFFF0EE3CFDAFFBB
:1006980000EE0CF04150E9264250EA22DE50EE18F6
:1006A8001EE1DE50EE18D8A41AD0FE0EE3CF6DF08E
:1006B800FF0EE3CF6EF0020E6D24D96E000E6E2091
:1006C800DA6E00EE0EF04150E9264250EA22DE5082
:1006D800EE1805E1DE50EE18D8B48EEF07F0FE0EE6
:1006E800E3501E0F6C6EFE0E6CC0E3FF6C6AFF0ECB
:1006F800E3506C206C6EFF0E75D720EE21F0415050
:10070800D9264250DA22DF503F0B020AD8A41FD064
:1007180020EE16F04150D9264250DA22DECF3DF0C5
:10072800DDCF3EF0556A5550D8A411D05550020D72
:10073800470EF324D96E000EF420DA6E3D50DE1811
:1007480004E13E50DE18D8B416D1552AECD720EE75
:1007580021F04150D9264250DA22DFB48CEF10F054
:1007680020EE21F04150D9264250DA22140EDF6ED5
:10077800000E466E280E456E20EE20F04150D92618
:100788004250DA22500EDF6E20EE1BF04150D9267F
:100798004250DA22DF50556E20EE1FF04150D92624
:1007A8004250DA2200EE1BF04150E9264250EA227C
:1007B800DFCFEFFF20EE1FF04150D9264250DA225A
:1007C80055C0DFFF20EE1AF04150D9264250DA22F8
:1007D800DF50556E20EE1EF04150D9264250DA22E5
:1007E80000EE1AF04150E9264250EA22DFCFEFFF2F
:1007F80020EE1EF04150D9264250DA2255C0DFFFC4
:1008080020EE19F04150D9264250DA22DF50556EB9
:1008180020EE1DF04150D9264250DA2200EE19F0A0
:100828004150E9264250EA22DFCFEFFF20EE1DF0CB
:100838004150D9264250DA2255C0DFFF20EE18F089
:100848004150D9264250DA22DF50556E20EE1CF076
:100858004150D9264250DA2200EE18F04150E926DC
:100868004250EA22DFCFEFFF20EE1CF04150D9269C
:100878004250DA2255C0DFFF20EE1FF04150D92642
:100888004250DA22DF2ADF50D8A41BD020EE1EF017
:100898004150D9264250DA22DF2ADF50D8A411D09D
:1008A80020EE1DF04150D9264250DA22DF2ADF50CF
:1008B800D8A407D020EE1CF04150D9264250DA22A5
:1008C800DF2A20EE14F04150D9264250DA22DECF3A
:1008D8003DF0DDCF3EF020EE16F04150D9264250D3
:1008E800DA2200EE14F04150E9264250EA22DECF27
:1008F800EEFFDDCFEDFF20EE16F04150D926425035
:10090800DA223DC0DEFF3EC0DDFF20EE0CF0415094
:10091800D9264250DA2200EE10F04150E926425022
:10092800EA22DECFEEFFDDCFEDFF20EE0EF04150E4
:10093800D9264250DA2200EE12F04150E926425000
:10094800EA22DECFEEFFDDCFEDFF20EE0CF04150C6
:10095800D9264250DA222BC0DEFF2CC0DDFF20EE64
:100968000EF04150D9264250DA222DC0DEFF2EC0AB
:10097800DDFFF7EF0FF0FF0EE36A000E6C6EFE0E60
:100988006CC0E3FF556A5550D8A45AD055501E0D77
:10099800A90EF324D96E000EF420DA6EDF50D8A425
:1009A80011D055501E0D900E6D6E000E6E6EF350E8
:1009B8006D26F4506E22FF0E6EC0E3FFFE0E6DC072
:1009C800E3FF3ED055501E0DA90EF324D96E000E3C
:1009D800F420DA6E070EDE18D8A430D0FE0EE3CF6E
:1009E8006CF0FF0EE3506C10D8B418D055501E0DA3
:1009F800AA0EF324D96E000EF420DA6EFE0EE3CFB1
:100A08006DF0FF0EE3CF6EF01A0E6D24E96E000E46
:100A18006E20EA6EDE50EE5CD8B010D055501E0D38
:100A2800900E6D6E000E6E6EF3506D26F4506E22B1
:100A3800FF0E6EC0E3FFFE0E6DC0E3FF552AA3D77D
:100A4800FE0EE3CF6CF0FF0EE3506C10D8B48CEFC1
:100A580010F0FE0EE3CF43F0FF0EE3CF44F0FE0E9E
:100A6800E3CF6DF0FF0EE3CF6EF01A0E6D24D96E52
:100A7800000E6E20DA6E080EDF6EFE0EE3CF6DF00C
:100A8800FF0EE3CF6EF0180E6D24E96E000E6E2097
:100A9800EA6EDFCFEFFFFE0EE3CF6DF0FF0EE3CF80
:100AA8006EF0160E6D24D96E000E6E20DA6E000EF2
:100AB800DF6EFE0EE3CF6DF0FF0EE3CF6EF0170E84
:100AC8006D24D96E000E6E20DA6E040EDF6EFE0EF7
:100AD800E3CF6DF0FF0EE3CF6EF01B0E6D24D96EE1
:100AE800000E6E20DA6E000EDF6E20EE16F041501A
:100AF800D9264250DA22FE0EE3CF6DF0FF0EE3CF87
:100B08006EF0040E6D24E96E000E6E20EA6EDECFE4
:100B1800EEFFDDCFEDFF20EE14F04150D926425014
:100B2800DA22FE0EE3CF6DF0FF0EE3CF6EF0060E75
:100B38006D24E96E000E6E20EA6EDECFEEFFDDCF8B
:100B4800EDFF20EE0CF04150D9264250DA22FE0E7D
:100B5800E3CFE9FFFF0EE3CFEAFFDECFEEFFDDCF05
:100B6800EDFF20EE0EF04150D9264250DA22FE0E5B
:100B7800E3CF6DF0FF0EE3CF6EF0020E6D24E96E49
:100B8800000E6E20EA6EDECFEEFFDDCFEDFFFE0E2B
:100B9800E3CF6DF0FF0EE3CF6EF0190E6D24D96E22
:100BA800000E6E20DA6E010EDF6EFE0EE3CF6DF0E2
:100BB800FF0EE3CF6EF00C0E6D24D96E000E6E2082
:100BC800DA6E1FC0DFFFFE0EE3CF6DF0FF0EE3CF3E
:100BD8006EF00D0E6D24D96E000E6E20DA6E20C0F8
:100BE800DFFFFE0EE3CF6DF0FF0EE3CF6EF00E0ECB
:100BF8006D24D96E000E6E20DA6E21C0DFFFFE0E66
:100C0800E3CF6DF0FF0EE3CF6EF00F0E6D24D96EBB
:100C1800000E6E20DA6E22C0DFFFFE0EE3CF6DF00D
:100C2800FF0EE3CF6EF0100E6D24D96E000E6E200D
:100C3800DA6E010EDE6E000EDD6E20EE1BF0415006
:100C4800D9264250DA22FE0EE3CF6DF0FF0EE3CF35
:100C58006EF00B0E6D24E96E000E6E20EA6EDFCF8B
:100C6800EFFF20EE1AF04150D9264250DA22FE0E4C
:100C7800E3CF6DF0FF0EE3CF6EF00A0E6D24E96E40
:100C8800000E6E20EA6EDFCFEFFF20EE19F0415024
:100C9800D9264250DA22FE0EE3CF6DF0FF0EE3CFE5
:100CA8006EF0090E6D24E96E000E6E20EA6EDFCF3D
:100CB800EFFF20EE18F04150D9264250DA22FE0EFE
:100CC800E3CF6DF0FF0EE3CF6EF0080E6D24E96EF2
:100CD800000E6E20EA6EDFCFEFFF010EE66E000E0B
:100CE800E66E32EC5FF020EE20F04150D9264250FB
:100CF800DA22DF50776EF00E7716500E7764CDD07B
:100D0800556AA4D0555041246D6E000E42206E6E77
:100D1800280E6D24D96E000E6E20DA6EDF50526EEA
:100D28005250D8B4BAD05204D8A402D0552A8ED082
:100D3800020E5218D8A46DD0555041246D6E000E85
:100D480042206E6E290E6D24D96E000E6E20DA6E6A
:100D5800040EDE18D8A45DD0555041246D6E000EE7
:100D680042206E6E2A0E6D24D96E000E6E20DA6E49
:100D7800DF506E6E6D6A55504124766E000E42202B
:100D8800776E2B0E7624D96E000E7720DA6EDF5040
:100D98006D103D6E6E503E6E3E5009E1680E3D5C32
:100DA800D8B005D03DC06DF03EC06EF004D0670EDF
:100DB8006D6E000E6E6EF90E6DC0E3FFFA0E6EC01A
:100DC800E3FFE150F90FD96EE250DA6EFF0EDA2236
:100DD800FE0EE3CF6DF0FF0EE3CF6EF0120E6D2422
:100DE800E96E000E6E20EA6EDECFEEFFDDCFEDFF7E
:100DF800FE0EE3CF6DF0FF0EE3CF6EF0140E6D2400
:100E0800D96E000E6E20DA6EEECFDEFFEDCFDDFF7D
:100E180044D0555041246D6E000E42206E6E290E4E
:100E28006D24D96E000E6E20DA6EDF50D8B435D03E
:100E3800555041246D6E000E42206E6E290E6D24B1
:100E4800D96E000E6E20DA6EDF505526EC0E6D6EF0
:100E5800FF0E6E6E20EE20F04150D9264250DA2265
:100E6800DF50776E77380F0B766E776AD8907636C4
:100E78007736D890763677366D5076266E5077224C
:100E880055506D6E6E6A76506D5C6E50800A6C6E51
:100E98007750800A6C58D8A035D720EE21F0415001
:100EA800D9264250DA22100EDF6E20EE21F0415092
:100EB800D9264250DA22000EDB8220EE28F041507B
:100EC800D9264250DA22020EDF6E20EE29F0415078
:100ED800D9264250DA22040EDF6E20EE2AF0415065
:100EE800D9264250DA22000EDF6E20EE2BF0415058
:100EF800D9264250DA22670EDF6E000E466E2C0E9F
:100F0800456E20EE20F04150D9264250DA22600E7C
:100F1800B9EF0EF0FE0EE3CF43F0FF0EE3CF44F03F
:100F2800546A20EE21F04150D9264250DA22DFA43B
:100F380014D0FE0EE3CF6DF0FF0EE3CF6EF0190E66
:100F48006D24D96E000E6E20DA6E000EDF6E200E54
:100F5800546ED8EC1CF08CEF10F020EE20F04150CD
:100F6800D9264250DA22DF50776E773A0F0E77167D
:100F7800D8907736D8907734556E5550455C6D6E5D
:100F8800000E46586E6EEC0E6D24456EFF0E6E20F8
:100F9800466EFE0EE3CF6DF0FF0EE3CF6EF0190E36
:100FA8006D24D96E000E6E20DA6EDF500F0B020A28
:100FB800D8A40BD020EE21F04150D9264250DA2295
:100FC800DF503F0B120AD8B46CD045504610D8A455
:100FD8000CD020EE21F04150D9264250DA22DF50C1
:100FE800776E030E7716D8B45CD0FE0EE3CF6DF0A3
:100FF800FF0EE3CF6EF0080E6D24D96E000E6E2042
:10100800DA6E00EE18F04150E9264250EA22DE502E
:10101800EE18D8A4A6EF0EF0FE0EE3CF6DF0FF0E8B
:10102800E3CF6EF0090E6D24D96E000E6E20DA6ED5
:1010380000EE19F04150E9264250EA22DE50EE183F
:10104800D8A4A6EF0EF0FE0EE3CF6DF0FF0EE3CFAF
:101058006EF00A0E6D24D96E000E6E20DA6E00EE68
:101068001AF04150E9264250EA22DE50EE18D8A480
:10107800A6EF0EF0FE0EE3CF6DF0FF0EE3CF6EF09D
:101088000B0E6D24D96E000E6E20DA6E00EE1BF08A
:101098004150E9264250EA22DE50EE18D8A4A6EFC5
:1010A8000EF020EE21F04150D9264250DA22DFA876
:1010B80076EF0EF0FE0EE3CF6DF0FF0EE3CF6EF08D
:1010C800100E6D24D96E000E6E20DA6EDE50DE1022
:1010D800D8B476EF0EF0FE0EE3CF6DF0FF0EE3CF3F
:1010E8006EF0100E6D24D96E000E6E20DA6EDECF13
:1010F8006DF0DDCF6EF06DC0E6FF6EC0E6FFFC0E52
:10110800E3500C0F6D6EFD0EE3CF6EF0000E6E22F5
:101118006DC0E6FF6EC0E6FFF6EC56F020EE1CF060
:101128004150D9264250DA222750DE18D8A476EF4B
:101138000EF020EE1DF04150D9264250DA222850F8
:10114800DE18D8A476EF0EF020EE1EF04150D92616
:101158004250DA222950DE18D8A476EF0EF020EE9D
:101168001FF04150D9264250DA222A50DE18D8A45E
:1011780076EF0EF0FE0EE3CF6DF0FF0EE3CF6EF0CC
:101188000C0E6D24D96E000E6E20DA6E27C0DFFFBC
:10119800FE0EE3CF6DF0FF0EE3CF6EF00D0E6D2463
:1011A800D96E000E6E20DA6E28C0DFFFFE0EE3CF88
:1011B8006DF0FF0EE3CF6EF00E0E6D24D96E000EAB
:1011C8006E20DA6E29C0DFFFFE0EE3CF6DF0FF0E52
:1011D800E3CF6EF00F0E6D24D96E000E6E20DA6E1E
:1011E8002AC0DFFFFE0EE3CF6DF0FF0EE3CF6EF0F7
:1011F8001B0E6D24D96E000E6E20DA6EDF50D8A457
:10120800B6D0FE0EE3CF6DF0FF0EE3CF6EF01A0EF0
:101218006D24D96E000E6E20DA6EDF50776EFE0EEA
:10122800E3CF6DF0FF0EE3CF6EF0180E6D24D96E8C
:10123800000E6E20DA6EDF50766E7750765C776E31
:10124800FD0E77C0E3FFFE0EE3CF6DF0FF0EE3CF98
:101258006EF0160E6D24D96E000E6E20DA6EDF5019
:10126800776ED8907732D8907732D8907732E1502D
:10127800FD0FD96EE250DA6EFF0EDA227750DF5E8C
:10128800FD0EE3CF77F0FE0EE3CF6DF0FF0EE3CF58
:101298006EF0160E6D24D96E000E6E20DA6E775041
:1012A800DF26FD0EE3AE07D0FD0EE3500008776E93
:1012B800FD0E77C0E3FFFE0EE3CF6DF0FF0EE3CF28
:1012C8006EF0170E6D24D96E000E6E20DA6EDF50A8
:1012D800776ED8907732D8907732E150FD0FD96E7B
:1012E800E250DA6EFF0EDA227750DF5EFD0EE3CFB2
:1012F80077F0FE0EE3CF6DF0FF0EE3CF6EF0170E22
:101308006D24D96E000E6E20DA6E7750DF26FE0E41
:10131800E3CF6DF0FF0EE3CF6EF0180E6D24D96E9B
:10132800000E6E20DA6EFE0EE3CF6DF0FF0EE3CFF7
:101338006EF0170E6D24E96E000E6E20EA6EEF5007
:10134800776EFE0EE3CF6DF0FF0EE3CF6EF0160E54
:101358006D24E96E000E6E20EA6EEF50766ED8901E
:101368007632D8907632D89076307724DF6E010EB8
:10137800546EFE0EE3CF6DF0FF0EE3CF6EF0180E45
:101388006D24D96E000E6E20DA6EFE0EE3CF6DF07E
:10139800FF0EE3CF6EF01A0E6D24E96E000E6E207C
:1013A800EA6EDFCFEFFFFE0EE3CF6DF0FF0EE3CF67
:1013B8006EF0100E6D24D96E000E6E20DA6E000EDF
:1013C800DE6E000EDD6E76EF0EF054A08CEF10F09E
:1013D800FE0EE3CF6DF0FF0EE3CF6EF0190E6D2415
:1013E800D96E000E6E20DA6E030EDF6E400E546E5C
:1013F800FE0EE3CF6DF0FF0EE3CF6EF0100E6D24FE
:10140800D96E000E6E20DA6E000EDE6E000EDD6EF6
:1014180045504610D8B407D0548245C0E6FF46C0B0
:10142800E6FF32EC5FF04B6A4C6A52EF00F054A0D2
:101438005ED120EE21F04150D9264250DA22DF5009
:101448003F0B120AD8A453D120EE20F04150D926E0
:101458004250DA22DF50776EF00E7716500E77641E
:10146800CDD0556AA4D0555041246D6E000E42204F
:101478006E6E280E6D24D96E000E6E20DA6EDF5067
:10148800526E5250D8B4BAD05204D8A402D0552AB9
:101498008ED0020E5218D8A46DD0555041246D6ECE
:1014A800000E42206E6E290E6D24D96E000E6E203D
:1014B800DA6E040EDE18D8A45DD0555041246D6E46
:1014C800000E42206E6E2A0E6D24D96E000E6E201C
:1014D800DA6EDF506E6E6D6A55504124766E000EDE
:1014E8004220776E2B0E7624D96E000E7720DA6EA6
:1014F800DF506D103D6E6E503E6E3E5009E1680E35
:101508003D5CD8B005D03DC06DF03EC06EF004D053
:10151800670E6D6E000E6E6EF70E6DC0E3FFF80E6F
:101528006EC0E3FFE150F70FD96EE250DA6EFF0E9E
:10153800DA22FE0EE3CF6DF0FF0EE3CF6EF0120E4F
:101548006D24E96E000E6E20EA6EDECFEEFFDDCF71
:10155800EDFFFE0EE3CF6DF0FF0EE3CF6EF0140E3D
:101568006D24D96E000E6E20DA6EEECFDEFFEDCF61
:10157800DDFF44D0555041246D6E000E42206E6E42
:10158800290E6D24D96E000E6E20DA6EDF50D8B4A5
:1015980035D0555041246D6E000E42206E6E290ED6
:1015A8006D24D96E000E6E20DA6EDF505526EC0ED3
:1015B8006D6EFF0E6E6E20EE20F04150D92642501F
:1015C800DA22DF50776E77380F0B766E776AD8900D
:1015D80076367736D890763677366D5076266E50D2
:1015E800772255506D6E6E6A76506D5C6E50800A2B
:1015F8006C6E7750800A6C58D8A035D7FE0EE3CFB2
:101608006DF0FF0EE3CF6EF0190E6D24D96E000E4B
:101618006E20DA6E030EDF6E20EE18F04150D926E8
:101628004250DA22FE0EE3CF6DF0FF0EE3CF6EF0EC
:10163800080E6D24E96E000E6E20EA6EDFCFEFFF14
:1016480020EE19F04150D9264250DA22FE0EE3CF9F
:101658006DF0FF0EE3CF6EF0090E6D24E96E000EFB
:101668006E20EA6EDFCFEFFF20EE1AF04150D92648
:101678004250DA22FE0EE3CF6DF0FF0EE3CF6EF09C
:101688000A0E6D24E96E000E6E20EA6EDFCFEFFFC2
:1016980020EE1BF04150D9264250DA22FE0EE3CF4D
:1016A8006DF0FF0EE3CF6EF00B0E6D24E96E000EA9
:1016B8006E20EA6EDFCFEFFF010EE66E000EE66EDB
:1016C80032EC5FF0420E546EFE0EE3CF6DF0FF0E6B
:1016D800E3CF6EF0100E6D24D96E000E6E20DA6E18
:1016E800000EDE6E000EDD6E456A466A9CD6200E40
:1016F800546ED8EC1CF020EE19F04350D926445013
:10170800DA22000EDF6EABEF03F020EE21F041503D
:10171800D9264250DA22DFA05FD0FE0EE3CF6DF06B
:10172800FF0EE3CF6EF0190E6D24D96E000E6E20F9
:10173800DA6EDFB851D0FE0EE3CF6DF0FF0EE3CFC7
:101748006EF0100E6D24D96E000E6E20DA6EDE502B
:10175800DE10D8A48CEF10F0010E45246D6E000E3B
:1017680046206E6E6DC0E6FF6EC0E6FF32EC5FF09D
:10177800548845504610D8A45482D8EC1CF0FE0E6C
:10178800E3CF6DF0FF0EE3CF6EF0100E6D24D96E2F
:10179800000E6E20DA6E010EDE6E000EDD6EFE0E9D
:1017A800E3CF6DF0FF0EE3CF6EF0190E6D24D96E06
:1017B800000E6E20DA6E080EEFD0FE0EE3CF6DF04D
:1017C800FF0EE3CF6EF01B0E6D24D96E000E6E2057
:1017D800DA6E000EDF6EE2D020EE21F04150D926FD
:1017E8004250DA22DFAA30D020EE26F04150D92626
:1017F8004250DA22DF506E6E6D6A20EE27F04150BB
:10180800D9264250DA22DF506D12000E6E126D504A
:101818003F243F6E6E504020406E20EE26F041502F
:10182800D9264250DA22DF506E6E6D6A20EE27F01C
:101838004150D9264250DA22DF506D12000E6E1246
:101848006D50455E6E50465A45504610D8B415D076
:10185800FE0EE3CF6DF0FF0EE3CF6EF0190E6D2490
:10186800D96E000E6E20DA6EDFB807D0548245C0FC
:10187800E6FF46C0E6FF32EC5FF020EE23F0415071
:10188800D9264250DA22DF50776E20EE22F04150FE
:10189800D9264250DA22DF506E6E6D6A77506D2479
:1018A8003D6E000E6E203E6EFE0EE3CF6DF0FF0E15
:1018B800E3CF6EF0140E6D24D96E000E6E20DA6E32
:1018C8003D50DE5C3E50DE58D8A004D03D503E105E
:1018D800D8A410D0FE0EE3CF6DF0FF0EE3CF6EF06C
:1018E800140E6D24D96E000E6E20DA6EDECF3DF038
:1018F800DDCF3EF0FE0EE3CF6DF0FF0EE3CF6EF0CE
:10190800120E6D24D96E000E6E20DA6E3DC0DEFF19
:101918003EC0DDFF54C077F0030E7716D8A483D5F8
:10192800F7D354AA18D04B6A4C6AFE0EE3CF6DF079
:10193800FF0EE3CF6EF0190E6D24D96E000E6E20E7
:10194800DA6E000EDF6E20EE21F04150D9264250AB
:10195800DA22140EFED154A829D04B6A4C6AFE0E26
:10196800E3CF6DF0FF0EE3CF6EF0100E6D24D96E4D
:10197800000E6E20DA6E010EDE6E000EDD6EFE0EBB
:10198800E3CF6DF0FF0EE3CF6EF0190E6D24D96E24
:10199800000E6E20DA6E040EDF6E0FD720EE21F0F7
:1019A8004150D9264250DA22110ED3D14B504C1057
:1019B800D8B465D054A010D0FE0EE3CF6DF0FF0E62
:1019C800E3CF6EF0100E6D24D96E000E6E20DA6E25
:1019D800000EDE6E000EDD6EFE0EE3CF6DF0FF0E24
:1019E800E3CF6EF0100E6D24D96E000E6E20DA6E05
:1019F800DE50DE10D8A433D0FE0EE3CF6DF0FF0E1C
:101A0800E3CF6EF0120E6D24D96E000E6E20DA6EE2
:101A18004B50DE5C4C50DE58D8B010D0FE0EE3CFF1
:101A28006DF0FF0EE3CF6EF0120E6D24D96E000E2E
:101A38006E20DA6EDECF4BF0DDCF4CF0FE0EE3CF3A
:101A48006DF0FF0EE3CF6EF0100E6D24D96E000E10
:101A58006E20DA6E4BC0DEFF4CC0DDFF10D0FE0EEC
:101A6800E3CF6DF0FF0EE3CF6EF0100E6D24D96E4C
:101A7800000E6E20DA6EDECF4BF0DDCF4CF0FE0E9E
:101A8800E3CF6DF0FF0EE3CF6EF01B0E6D24D96E21
:101A9800000E6E20DA6E000EDF6E49C03FF04AC0BD
:101AA80040F04B504C10D8B42ED0FE0EE3CF6DF062
:101AB800FF0EE3CF6EF0100E6D24D96E000E6E206F
:101AC800DA6EDE50DE10D8B41ED0FE0EE3CF6DF015
:101AD800FF0EE3CF6EF0100E6D24D96E000E6E204F
:101AE800DA6EDECF6DF0DDCF6EF0280E6D24456E18
:101AF800000E6E20466E20EE21F04150D92642504D
:101B0800DA22180E0DD054A203D3000E466E280E0A
:101B1800456E20EE21F04150D9264250DA22100EAF
:101B2800DF6E1CD154A0F4D2FE0EE3CF6DF0FF0E91
:101B3800E3CF6EF0190E6D24D96E000E6E20DA6EAA
:101B4800000EDF6E100EACEF07F045504610D8B40B
:101B580006D045C0E6FF46C0E6FF32EC5FF020EE57
:101B680021F04150D9264250DA22DFA048D054A0B3
:101B78002DD0FE0EE3CF6DF0FF0EE3CF6EF0190E01
:101B88006D24D96E000E6E20DA6E070EDF6EFE0E23
:101B9800E3CF6DF0FF0EE3CF6EF01A0E6D24D96E11
:101BA800000E6E20DA6E000EDF6EFE0EE3CF6DF0D3
:101BB800FF0EE3CF6EF0100E6D24D96E000E6E206E
:101BC800DA6E000EDE6E000EDD6E0ED0FE0EE3CF76
:101BD8006DF0FF0EE3CF6EF0190E6D24D96E000E76
:101BE8006E20DA6E060EDF6E010EE66E000EE66EF1
:101BF80032EC5FF0100E546ED8EC1CF0A3D054A059
:101C08001FD0FE0EE3CF6DF0FF0EE3CF6EF0190E7E
:101C18006D24D96E000E6E20DA6E050EDF6EFE0E94
:101C2800E3CF6DF0FF0EE3CF6EF0100E6D24D96E8A
:101C3800000E6E20DA6E000EDE6E000EDD6E68D2CB
:101C480045504610D8A47ED063D245504610D8B42B
:101C580006D045C0E6FF46C0E6FF32EC5FF020EE56
:101C680021F04150D9264250DA22DFA0E9D7FE0EF2
:101C7800E3CF6DF0FF0EE3CF6EF0190E6D24D96E31
:101C8800000E6E20DA6E070EDF6EFE0EE3CF6DF0EB
:101C9800FF0EE3CF6EF01A0E6D24D96E000E6E2083
:101CA800DA6E000EA0D754A033D2FE0EE3CF6DF04B
:101CB800FF0EE3CF6EF0190E6D24D96E000E6E2064
:101CC800DA6E070EDF6EFE0EE3CF6DF0FF0EE3CF88
:101CD8006EF01A0E6D24D96E000E6E20DA6E000EAC
:101CE800DF6E16D2FE0EE3CF6DF0FF0EE3CF6EF07F
:101CF800190E6D24D96E000E6E20DA6EDF500F0BB0
:101D08006D6E6E6A6E50000AD8A402D26D50010A38
:101D1800D8B4E9EF09F0030AD8B41BEF0AF0010AB6
:101D2800D8B4F3D4070AD8B410D7010AD8B48DD7D9
:101D3800030AD8B4B8D7010AD8B404D00F0AD8B463
:101D4800F1D6E6D120EE21F04150D9264250DA22D0
:101D5800100EDF6E000E466E280E456E20EE20F047
:101D68004150D9264250DA22500EDF6EFE0EE3CFE4
:101D78006DF0FF0EE3CF6EF0080E6D24D96E000EE5
:101D88006E20DA6E00EE1CF04150E9264250EA223D
:101D9800DFCFEFFFFE0EE3CF6DF0FF0EE3CF6EF067
:101DA800090E6D24D96E000E6E20DA6E00EE1DF05D
:101DB8004150E9264250EA22DFCFEFFFFE0EE3CF83
:101DC8006DF0FF0EE3CF6EF00A0E6D24D96E000E93
:101DD8006E20DA6E00EE1EF04150E9264250EA22EB
:101DE800DFCFEFFFFE0EE3CF6DF0FF0EE3CF6EF017
:101DF8000B0E6D24D96E000E6E20DA6E00EE1FF009
:101E08004150E9264250EA22DFCFEFFFFE0EE3CF32
:101E18006DF0FF0EE3CF6EF00C0E6D24D96E000E40
:101E28006E20DA6E00EE18F04150E9264250EA22A0
:101E3800DFCFEFFFFE0EE3CF6DF0FF0EE3CF6EF0C6
:101E48000D0E6D24D96E000E6E20DA6E00EE19F0BC
:101E58004150E9264250EA22DFCFEFFFFE0EE3CFE2
:101E68006DF0FF0EE3CF6EF00E0E6D24D96E000EEE
:101E78006E20DA6E00EE1AF04150E9264250EA224E
:101E8800DFCFEFFFFE0EE3CF6DF0FF0EE3CF6EF076
:101E98000F0E6D24D96E000E6E20DA6E00EE1BF068
:101EA8004150E9264250EA22DFCFEFFF20EE09F049
:101EB8004150D9264250DA22060EDF6EFE0EE3CFDD
:101EC8006DF0FF0EE3CF6EF0040E6D24D96E000E98
:101ED8006E20DA6E00EE14F04150E9264250EA22F4
:101EE800DECFEEFFDDCFEDFFFE0EE3CF6DF0FF0E90
:101EF800E3CF6EF0060E6D24D96E000E6E20DA6EFA
:101F080000EE16F04150E9264250EA22DECFEEFFFD
:101F1800DDCFEDFF20EE0CF04150D9264250DA22F9
:101F28002BC0DEFF2CC0DDFF20EE0EF04150D9267D
:101F38004250DA222DC0DEFF2EC0DDFFFE0EE3CFB9
:101F4800D9FFFF0EE3CFDAFF00EE10F04150E9268B
:101F58004250EA22DECFEEFFDDCFEDFFFE0EE3CFEB
:101F68006DF0FF0EE3CF6EF0020E6D24D96E000EF9
:101F78006E20DA6E00EE12F04150E9264250EA2255
:101F8800DECFEEFFDDCFEDFFFE0EE3CF6DF0FF0EEF
:101F9800E3CF6EF0190E6D24D96E000E6E20DA6E46
:101FA800DFA811D020EE23F04150D9264250DA2282
:101FB800000EDF6E00EE22F04150E9264250EA2280
:101FC800DFCFEFFF10D020EE22F04150D92642504B
:101FD800DA22000EDF6E20EE23F04150D92642505F
:101FE800DA22670EDF6E20EE08F04150D926425003
:101FF800DA22400EDF6E20EE02F04150D926425020
:10200800DA2246C0DFFF20EE03F04150D9264250C5
:10201800DA2245C0DFFF20EE27F04150D926425092
:10202800DA22000EDF6E00EE26F04150E92642501B
:10203800EA22DFCFEFFF20EE24F04150D9264250AC
:10204800DA22000EDE6E000EDD6EB9EC65F06CC0B3
:1020580076F06DC077F0761C6D6E771C6E6E20EE94
:1020680024F04150D9264250DA226DC0DEFF6EC0FE
:10207800DDFF41C0D9FF42C0DAFF450EDF6E20EE1A
:1020880001F04150D9264250DA22000EDF6E20EED0
:1020980007F04150D9264250DA22000EDF6E00EEDA
:1020A80006F04150E9264250EA22DFCFEFFF314ADD
:1020B800322A20EE04F04150D9264250DA2232C0AA
:1020C800DFFF20EE05F04150D9264250DA2231C018
:1020D800DFFF20EE0AF04150D9264250DA22000EE6
:1020E800DE6E000EDD6EB3EC60F06CC076F06DC095
:1020F80077F0761C6D6E771C6E6E20EE0AF04150FC
:10210800D9264250DA226DC0DEFF6EC0DDFF02D054
:10211800456A466A546AF60EE126FF0EE22212006C
:102128001A0EE126000EE222B2EF1CF0FF0EE3CFFA
:102138006CF0250E6C18D8B44BD0E40EE3CF6DF0DC
:10214800E50EE3CF6EF0020E6D24D96E000E6E2000
:10215800DA6EDE50DE10D8B41FD0FF0EE350E66E04
:10216800E30EE3CF6DF0E40EE3CF6EF0020E6D24C4
:10217800D96E000E6E20DA6EDECF6DF0DDCF6EF018
:1021880002D8B2EF1CF00500FA6E6D50FD6E6E506D
:10219800FE6EFF6AFA501200E40EE3CFD9FFE50E97
:1021A800E3CFDAFFDECF6DF0DDCF6EF06DC0D9FF83
:1021B8006EC0DAFFFF0EE3CFDFFFE40EE3CFD9FFF7
:1021C800E50EE3CFDAFFDE2A000EDD22B2EF1CF0C7
:1021D800F70EE36AF80EE36AF50EE36AF60EE36AB1
:1021E8001AD0F50EE386E20EE350010F6C6EE20E94
:1021F8006CC0E3FF6C6AE30EE3506C206C6EE30E78
:102208006CC0E3FF08D0F50EE380EDD7F60EEAD7F1
:10221800F50EE384E8D7E150E20FD96EE250DA6EAA
:10222800FF0EDA22DECFF6FFDDCFF7FFF86A0800EF
:10223800F550200AD8B4E7D7030AD8B4E7D70E0A6E
:10224800D8B4CFD71D0AD8B4E3D7F50EE3A602D089
:10225800F50EE394E150E20FD96EE250DA6EFF0E0C
:10226800DA22DECFF6FFDDCFF7FFF86A0800F55077
:10227800E66E00EC63F06CA05BD0F70EE36AF80E34
:10228800E36A0A0EE66E000EE66EF50EE3CFE6FF91
:10229800E3CFE6FF9FEC5AF0F70E6CC0E3FFF80EB1
:1022A8006DC0E3FFD00E6D6EFF0E6E6EE150E20F53
:1022B800D96EE250DA6EFF0EDA22DECFF6FFDDCFFE
:1022C800F7FFF86A0800F550766E776A6D50762643
:1022D8006E507722E150F70FD96EE250DA6EFF0E9A
:1022E800DA227650DE267750DD22E20EE350010F27
:1022F8006C6EE20E6CC0E3FF6C6AE30EE3506C2078
:102308006C6EE30E6CC0E3FFE150E20FD96EE25051
:10231800DA6EFF0EDA22DECFF6FFDDCFF7FFF86ABE
:102328000800F550E66E00EC63F06CA03DD0A9D72C
:10233800E150E20FD96EE250DA6EFF0EDA22DECFFC
:10234800F6FFDDCFF7FFF86A0800F5502A0AD8A48F
:102358002BD0E00EE3CFD9FFE10EE3CFDAFF020E78
:10236800DE5E000EDD5ADECF6DF0DDCF6EF06DC0A3
:10237800D9FF6EC0DAFFDECF6DF0DDCF6EF0F70E5D
:102388006DC0E3FFF80E6EC0E3FFE20EE350010FED
:102398006C6EE20E6CC0E3FF6C6AE30EE3506C20D7
:1023A8006C6EE30E6CC0E3FFE150E20FD96EE250B1
:1023B800DA6EFF0EDA22DECFF6FFDDCFF7FFF86A1E
:1023C8000800F5502E0AD8A4A0D0F60EE38CE20E31
:1023D800E350010F6C6EE20E6CC0E3FF6C6AE30E13
:1023E800E3506C206C6EE30E6CC0E3FFE150E20F2B
:1023F800D96EE250DA6EFF0EDA22DECFF6FFDDCFBD
:10240800F7FFF86A0800F5502A0AD8A42CD0E00E85
:10241800E3CFD9FFE10EE3CFDAFF020EDE5E000E56
:10242800DD5ADECF6DF0DDCF6EF06DC0D9FF6EC026
:10243800DAFFDECF6DF0DDCF6EF0F90E6DC0E3FF91
:10244800FA0E6EC0E3FFE20EE350010F6C6EE20E6F
:102458006CC0E3FF6C6AE30EE3506C206C6EE30E15
:102468006CC0E3FF98D2F90EE36AFA0EE36A39D03A
:102478000A0EE66E000EE66EF70EE3CFE6FFE3CF38
:10248800E6FF9FEC5AF0E150E20FD96EE250DA6EA7
:10249800FF0EDA22DECFF6FFDDCFF7FFF86A08007D
:1024A800F5506C26000E6D22D00E766EFF0E776EFC
:1024B80076506C2677506D22F90E6CC0E3FFFA0E49
:1024C8006DC0E3FFE20EE350010F6C6EE20E6CC0CC
:1024D800E3FF6C6AE30EE3506C206C6EE30E6CC095
:1024E800E3FFE150E20FD96EE250DA6EFF0EDA2216
:1024F800DECFF6FFDDCFF7FFF86A0800F550E66E8D
:1025080000EC63F06CA047D2B3D7F90EE36AFA0E79
:10251800E36A41D2F50EE3883ED2F50EE38C78D219
:10252800F60EE38AF50EE38AF50EE38E71D2E00E1D
:10253800E3CFD9FFE10EE3CFDAFF020EDE5E000E35
:10254800DD5ADECF6DF0DDCF6EF06DC0D9FF6EC005
:10255800DAFFDECF6DF0DDCF6EF0FE0E6EC0E3FF6A
:10256800FD0E6DC0E3FFFD0EE3CF6CF0FE0EE350F1
:102578006C10D8A40AD0FF0E6C6EFE0E6CC0E3FF80
:10258800D80E6C6EFD0E6CC0E3FFFB0EE36AFC0E0A
:10259800E36A0FD0FB0EE350010F6C6EFB0E6CC0AC
:1025A800E3FF6C6AFC0EE3506C206C6EFC0E6CC092
:1025B800E3FFFD0EE3CF6DF0FE0EE3CF6EF0FB0EF2
:1025C800E3506D26FC0EE3506E226DC0F6FF6EC020
:1025D800F7FF000EF86E0F0EF76403D00800F550F1
:1025E80005D0F6CFE9FFF7CFEAFFEF500009D8A4EE
:1025F800D1D7F90EE3CF6CF0FA0EE3506C10D8B4D3
:102608001BD0E150F90FD96EE250DA6EFF0EDA22D4
:10261800FB0EE350DE5CFC0EE350DE58D8B00CD065
:10262800F90EE3CF6CF0FB0E6CC0E3FFFA0EE3CFBC
:102638006CF0FC0E6CC0E3FFE150FB0FD96EE2506A
:10264800DA6EFF0EDA22F70EE350DE5CF80EE35086
:10265800DE58D8B013D0F70EE3506C6EFB0EE35083
:102668006C5EF70E6CC0E3FFF80EE3506C6EFC0E68
:10267800E3506C5AF80E6CC0E3FF04D0F70EE36A1F
:10268800F80EE36AF50EE3A647D0DCD0E40EE3CFFC
:102698006DF0E50EE3CF6EF0020E6D24D96E000EDC
:1026A8006E20DA6EDE50DE10D8B41DD0200EE66E35
:1026B800E30EE3CF6DF0E40EE3CF6EF0020E6D246F
:1026C800D96E000E6E20DA6EDECF6DF0DDCF6EF0C3
:1026D80001D822D00500FA6E6D50FD6E6E50FE6E68
:1026E800FF6AFA501200E40EE3CFD9FFE50EE3CFFC
:1026F800DAFFDECF6DF0DDCF6EF06DC0D9FF6EC0B2
:10270800DAFF200EDF6EE40EE3CFD9FFE50EE3CF4C
:10271800DAFFDE2A000EDD22E150F70FD96EE25013
:10272800DA6EFF0EDA22DE06000EDD5ADE28AEE192
:10273800DE28D8B487D0AAD7E40EE3CF6DF0E50E33
:10274800E3CF6EF0020E6D24D96E000E6E20DA6EA5
:10275800DE50DE10D8B43CD0E150FD0FD96EE25007
:10276800DA6EFF0EDA22DFCF6DF0010EDE26DFCF44
:102778006EF0000EDD226DC0F6FF6EC0F7FF000E92
:10278800F86E0F0EF76403D00800F55005D0F6CFA9
:10279800E9FFF7CFEAFFEF50E66EE30EE3CF6DF007
:1027A800E40EE3CF6EF0020E6D24D96E000E6E209B
:1027B800DA6EDECF6DF0DDCF6EF001D843D00500C4
:1027C800FA6E6D50FD6E6E50FE6EFF6AFA50120082
:1027D800FD0EE3CFF6FFFE0EE3CFF7FF000EF86E17
:1027E800E40EE3CFD9FFE50EE3CFDAFFDECF6DF0DD
:1027F800DDCF6EF06DC0D9FF6EC0DAFF0F0EF76443
:1028080003D00800F55005D0F6CFE9FFF7CFEAFF6F
:10281800EF50DF6EFD0EE350010F6C6EFD0E6CC0C5
:10282800E3FF6C6AFE0EE3506C206C6EFE0E6CC00B
:10283800E3FFE40EE3CFD9FFE50EE3CFDAFFDE2AAC
:10284800000EDD22FB0EE3CF6CF0010E6C5EFB0E7A
:102858006CC0E3FFFC0EE3CF6CF0000E6C5AFC0E6C
:102868006CC0E3FFFB0EE32803E1FC0EE328D8A4C9
:1028780063D7F50EE3B648D0B2EF1CF0E40EE3CF11
:102888006DF0E50EE3CF6EF0020E6D24D96E000EEA
:102898006E20DA6EDE50DE10D8B41DD0200EE66E43
:1028A800E30EE3CF6DF0E40EE3CF6EF0020E6D247D
:1028B800D96E000E6E20DA6EDECF6DF0DDCF6EF0D1
:1028C80001D822D00500FA6E6D50FD6E6E50FE6E76
:1028D800FF6AFA501200E40EE3CFD9FFE50EE3CF0A
:1028E800DAFFDECF6DF0DDCF6EF06DC0D9FF6EC0C0
:1028F800DAFF200EDF6EE40EE3CFD9FFE50EE3CF5B
:10290800DAFFDE2A000EDD22E150F70FD96EE25021
:10291800DA6EFF0EDA22DE06000EDD5ADE28AEE1A0
:10292800DE28D8B4B2EF1CF0A9D7E00EE3CFD9FF68
:10293800E10EE3CFDAFF020EDE5E000EDD5ADECFD7
:102948006DF0DDCF6EF06DC0D9FF6EC0DAFFDF50DD
:10295800776EFF0E77C0E3FFFF0EE1246D6EFF0E6A
:10296800E2206E6EFE0E6EC0E3FFFD0E6DC0E3FF4B
:10297800010E6D6E000E6E6EFB0E6DC0E3FFFC0E59
:102988006EC0E3FF36D6F50EE350C0096C6EF50E47
:102998006CC0E3FF3DD0E150E20FD96EE250DA6E31
:1029A800FF0EDA22DFCF6DF0010EDE26DFCF6EF0EC
:1029B800000EDD226DC0F6FF6EC0F7FFF86A080052
:1029C800FF0EF5CFE3FFFF0EE350000AD8B4CFEFB8
:1029D8001CF0580AD8B4A6D53B0AD8B4A6D7070A1B
:1029E800D8B416D00D0AD8B413D0050AD8B492D5E5
:1029F800030AD8B492D51F0AD8B492D5030AD8B41A
:102A080096D5060AD8B4BFD70D0AD8B48DD5A4D7A1
:102A1800F50EE3CF77F0C00E7716D8A46BD0F50E7D
:102A2800E3A827D0E00EE3CFD9FFE10EE3CFDAFF2A
:102A3800040EDE5E000EDD5ADECF6DF0DDCF6EF0E7
:102A48006DC0D9FF6EC0DAFFDECF74F0DECF75F04F
:102A5800DECF76F0DECF77F0F10E74C0E3FFF20E32
:102A680075C0E3FFF30E76C0E3FFF40E77C0E3FF13
:102A780025D0E00EE3CFD9FFE10EE3CFDAFF020E57
:102A8800DE5E000EDD5ADECF6DF0DDCF6EF06DC07C
:102A9800D9FF6EC0DAFFDECF6DF0DDCF6EF0F10E3C
:102AA8006DC0E3FFF20E6EC0E3FF6C6AE3BE6C68B4
:102AB800F30E6CC0E3FFF40E6CC0E3FFF40EE3AE5C
:102AC8006ED0F50EE35003096C6EF50E6CC0E3FF93
:102AD800F10EE36CF20EE31EF30EE31EF40EE31E9A
:102AE8005EE3F20EE32A5BE3F30EE32A58E3F40E07
:102AF800E32A55D0F60EE3BA2AD0F50EE3A827D07C
:102B0800E00EE3CFD9FFE10EE3CFDAFF040EDE5E7D
:102B1800000EDD5ADECF6DF0DDCF6EF06DC0D9FF4F
:102B28006EC0DAFFDECF74F0DECF75F0DECF76F060
:102B3800DECF77F0F10E74C0E3FFF20E75C0E3FF4D
:102B4800F30E76C0E3FFF40E77C0E3FF28D0E00E63
:102B5800E3CFD9FFE10EE3CFDAFF020EDE5E000E0F
:102B6800DD5ADECF6DF0DDCF6EF06DC0D9FF6EC0DF
:102B7800DAFFDECF76F0DDCF77F07650706E7750E3
:102B8800716E726A736AF10E70C0E3FFF20E71C063
:102B9800E3FFF30E72C0E3FFF40E73C0E3FFF90E18
:102BA800E3CF6CF0FA0EE3506C10D8A4B3D0F10E5A
:102BB800E35009E1F20EE35006E1F30EE35003E1BE
:102BC800F40EE350D8A4A6D0F90EE350010F6C6EB2
:102BD800F90E6CC0E3FF6C6AFA0EE3506C206C6E61
:102BE800FA0E6CC0E3FF96D0FF0EE36AE32AFF0EED
:102BF800E3CF6CF00A0E6C18D8B49BD0FF0EE350EC
:102C0800040D4F0EF324F66EF60EF420F76EF86AF4
:102C1800000EF822F10EE3CF6CF00900F5506C5C61
:102C2800F20EE3CF6CF00900F5506C58F30EE3CFC9
:102C38006CF00900F5506C58F40EE3CF6CF0090005
:102C4800F5506C58D8A075D0FF0ED0D7FF0EE36AA8
:102C5800E32AFF0EE3CF6CF0080E6C18D8B469D0E5
:102C6800FF0EE350040D770EF324F66EF60EF420F3
:102C7800F76EF86A000EF822F10EE3CF6CF0090047
:102C8800F5506C5CF20EE3CF6CF00900F5506C580F
:102C9800F30EE3CF6CF00900F5506C58F40EE3CF57
:102CA8006CF00900F5506C58D8A043D0FF0ED0D76F
:102CB800FF0EE36AE32AFF0EE3CF6CF00C0E6C18EC
:102CC800D8B437D0FF0EE350040D1F0EF324F66E70
:102CD800F60EF420F76EF86A000EF822F10EE3CF34
:102CE8006CF00900F5506C5CF20EE3CF6CF0090053
:102CF800F5506C58F30EE3CF6CF00900F5506C58A2
:102D0800F40EE3CF6CF00900F5506C58D8A011D040
:102D1800FF0ED0D7F50EE350C00B000AD8B464D725
:102D2800400AD8B4C5D7C00AD8B490D7400AD8B496
:102D38005BD7F90EE3CF6DF0FA0EE3CF6EF0FF0E1E
:102D4800E3CF77F0800E77BE7F0E6C6E6D50775CA8
:102D58006E50800A6C58D8B007D0F90EE3CF6CF0EB
:102D6800FF0E6CC0E3FF20D0FF0EE3CF77F0F90E23
:102D7800E3CF6DF0FA0EE3CF6EF06E50800A6C6E02
:102D880077506D5C800E77BE7F0E6C58D8B00CD033
:102D9800FF0EE3506D6E6E6A6DBE6E06F90E6DC065
:102DA800E3FFFA0E6EC0E3FFF70EE3CF6CF0F80E08
:102DB800E3506C10D8B411D0F50EE3CF77F0030EC2
:102DC8007716D8B40AD0E150F70FD96EE250DA6E10
:102DD800FF0EDA22DE06000EDD5AF60EE3AC2AD02C
:102DE800E150F90FD96EE250DA6EFF0EDA22F70ED3
:102DF800E350DE5CDE50800A6C6EF80EE350800A09
:102E08006C58D8B013D0F70EE3506C6EF90EE3503F
:102E18006C5EF70E6CC0E3FFF80EE3506C6EFA0EB2
:102E2800E3506C5AF80E6CC0E3FF04D0F70EE36A67
:102E3800F80EE36AC40E6D6E080E6E6EF50EE3CFE3
:102E480076F0F60EE3CF77F06D5076166E50771663
:102E5800400E761817E1080E7718D8A413D0F70E8D
:102E6800E3CF6CF0F80EE3506C10D8B43DD0E150CD
:102E7800F70FD96EE250DA6EFF0EDA22DE06000E88
:102E8800DD5A32D0C00E6D6E080E6E6EF50EE3CFB1
:102E980076F0F60EE3CF77F06D5076166E50771613
:102EA800800E761821E1080E7718D8A41DD0F80EE8
:102EB800E3BE16D0F80EE35007E1F70EE3CF6CF04F
:102EC800030E6C5ED8A00CD0E150F70FD96EE2501B
:102ED800DA6EFF0EDA22FE0EDE26FF0EDD2204D0A9
:102EE800F70EE36AF80EE36AF70EE3CF6DF0F80E1B
:102EF800E3CF6EF0FF0EE3CF77F0800E77BE7F0E44
:102F08006C6E6D50775C6E50800A6C58D8B017D0D4
:102F1800FF0EE3506D6E6E6A6DBE6E06F70EE3CF60
:102F28006CF06D506C5EF70E6CC0E3FFF80EE3CFEB
:102F38006CF06E506C5AF80E6CC0E3FF04D0F70EBC
:102F4800E36AF80EE36AF50EE3A491D1F50EE3CF38
:102F580077F0030E7716D8B435D0E40EE3CF6DF0D2
:102F6800E50EE3CF6EF0020E6D24D96E000E6E20D2
:102F7800DA6EDE50DE10D8B415D02D0EE66EE30EF4
:102F8800E3CF6DF0E40EE3CF6EF0020E6D24D96E40
:102F9800000E6E20DA6EDECF6DF0DDCF6EF001D858
:102FA8000BD1D8D0E40EE3CFD9FFE50EE3CFDAFF9B
:102FB800DECF6DF0DDCF6EF06DC0D9FF6EC0DAFFE9
:102FC8002D0E37D0F50EE3A036D0E40EE3CF6DF02A
:102FD800E50EE3CF6EF0020E6D24D96E000E6E2062
:102FE800DA6EDE50DE10D8B415D0200EE66EE30E91
:102FF800E3CF6DF0E40EE3CF6EF0020E6D24D96ED0
:10300800000E6E20DA6EDECF6DF0DDCF6EF001D8E7
:10301800D3D0A0D0E40EE3CFD9FFE50EE3CFDAFF9B
:10302800DECF6DF0DDCF6EF06DC0D9FF6EC0DAFF78
:10303800200EDF6EB8D0C00E6D6E080E6E6EF50EE7
:10304800E3CF76F0F60EE3CF77F06D5076166E503C
:103058007716800E761803E1080E7718D8A4ACD03E
:10306800E40EE3CF6DF0E50EE3CF6EF0020E6D24B3
:10307800D96E000E6E20DA6EDE50DE10D8B41DD088
:10308800300EE66EE30EE3CF6DF0E40EE3CF6EF0A4
:10309800020E6D24D96E000E6E20DA6EDECF6DF052
:1030A800DDCF6EF001D822D00500FA6E6D50FD6EAE
:1030B8006E50FE6EFF6AFA501200E40EE3CFD9FF9D
:1030C800E50EE3CFDAFFDECF6DF0DDCF6EF06DC039
:1030D800D9FF6EC0DAFF300EDF6EE40EE3CFD9FF02
:1030E800E50EE3CFDAFFDE2A000EDD22E40EE3CFA1
:1030F8006DF0E50EE3CF6EF0020E6D24D96E000E72
:103108006E20DA6EDE50DE10D8B42DD0F50EE3BA9C
:1031180002D0780E01D0580E6D6E000E6E6EEF0E56
:103128006DC0E3FFF00E6EC0E3FFEF0EE350E66EF6
:10313800E30EE3CF6DF0E40EE3CF6EF0020E6D24E4
:10314800D96E000E6E20DA6EDECF6DF0DDCF6EF038
:1031580001D832D00500FA6E6D50FD6E6E50FE6ECD
:10316800FF6AFA501200F50EE3BA02D0780E01D0C9
:10317800580E6D6E000E6E6EED0E6DC0E3FFEE0E16
:103188006EC0E3FFE40EE3CFD9FFE50EE3CFDAFF2D
:10319800DECF6DF0DDCF6EF06DC0D9FF6EC0DAFF07
:1031A800ED0EE3CFDFFFE40EE3CFD9FFE50EE3CF6B
:1031B800DAFFDE2A000EDD22F70EE3CF6CF0F80E00
:1031C800E3506C10D8B45AD3E40EE3CF6DF0E50E9B
:1031D800E3CF6EF0020E6D24D96E000E6E20DA6E0B
:1031E800DE50DE10D8B41DD0300EE66EE30EE3CF0D
:1031F8006DF0E40EE3CF6EF0020E6D24D96E000E72
:103208006E20DA6EDECF6DF0DDCF6EF001D822D001
:103218000500FA6E6D50FD6E6E50FE6EFF6AFA5034
:103228001200E40EE3CFD9FFE50EE3CFDAFFDECFDD
:103238006DF0DDCF6EF06DC0D9FF6EC0DAFF300ED5
:10324800DF6EE40EE3CFD9FFE50EE3CFDAFFDE2A27
:10325800000EDD22E150F70FD96EE250DA6EFF0E54
:10326800DA22DE06000EDD5ADE50DE10ABD7F70E8E
:10327800E3CF6CF0F80EE3506C10D8B457D0F50ECD
:10328800E3B654D0E40EE3CF6DF0E50EE3CF6EF075
:10329800020E6D24D96E000E6E20DA6EDE50DE103E
:1032A800D8B41DD0200EE66EE30EE3CF6DF0E40E29
:1032B800E3CF6EF0020E6D24D96E000E6E20DA6E2A
:1032C800DECF6DF0DDCF6EF001D822D00500FA6EAA
:1032D8006D50FD6E6E50FE6EFF6AFA501200E40EDD
:1032E800E3CFD9FFE50EE3CFDAFFDECF6DF0DDCF18
:1032F8006EF06DC0D9FF6EC0DAFF200EDF6EE40EEF
:10330800E3CFD9FFE50EE3CFDAFFDE2A000EDD2298
:10331800E150F70FD96EE250DA6EFF0EDA22DE06C0
:10332800000EDD5ADE50DE10D8A4ACD7F50EE3CF80
:1033380077F0030E7716D8B435D0E40EE3CF6DF0EE
:10334800E50EE3CF6EF0020E6D24D96E000E6E20EE
:10335800DA6EDE50DE10D8B415D02D0EE66EE30E10
:10336800E3CF6DF0E40EE3CF6EF0020E6D24D96E5C
:10337800000E6E20DA6EDECF6DF0DDCF6EF001D874
:103388005AD037D0E40EE3CFD9FFE50EE3CFDAFF0A
:10339800DECF6DF0DDCF6EF06DC0D9FF6EC0DAFF05
:1033A8002D0E3FD0F50EE3A046D0E40EE3CF6DF02E
:1033B800E50EE3CF6EF0020E6D24D96E000E6E207E
:1033C800DA6EDE50DE10D8B41DD0200EE66EE30EA5
:1033D800E3CF6DF0E40EE3CF6EF0020E6D24D96EEC
:1033E800000E6E20DA6EDECF6DF0DDCF6EF001D804
:1033F80022D00500FA6E6D50FD6E6E50FE6EFF6AAB
:10340800FA501200E40EE3CFD9FFE50EE3CFDAFF5E
:10341800DECF6DF0DDCF6EF06DC0D9FF6EC0DAFF84
:10342800200EDF6EE40EE3CFD9FFE50EE3CFDAFF1F
:10343800DE2A000EDD22C00E6D6E080E6E6EF50ED1
:10344800E3CF76F0F60EE3CF77F06D5076166E5038
:103458007716400E76183AE1080E7718D8A436D0B9
:10346800E40EE3CF6DF0E50EE3CF6EF0020E6D24AF
:10347800D96E000E6E20DA6EDE50DE10D8B415D08C
:10348800300EE66EE30EE3CF6DF0E40EE3CF6EF0A0
:10349800020E6D24D96E000E6E20DA6EDECF6DF04E
:1034A800DDCF6EF001D8EAD1C6D1E40EE3CFD9FF63
:1034B800E50EE3CFDAFFDECF6DF0DDCF6EF06DC045
:1034C800D9FF6EC0DAFF300EDF6ECFD1C00E6D6E41
:1034D800080E6E6EF50EE3CF76F0F60EE3CF77F0BA
:1034E8006D5076166E507716800E761803E1080E2A
:1034F8007718D8A4C3D1E40EE3CF6DF0E50EE3CF7F
:103508006EF0020E6D24D96E000E6E20DA6EDE505B
:10351800DE10D8B41DD0300EE66EE30EE3CF6DF0AA
:10352800E40EE3CF6EF0020E6D24D96E000E6E200D
:10353800DA6EDECF6DF0DDCF6EF001D822D0050057
:10354800FA6E6D50FD6E6E50FE6EFF6AFA501200F4
:10355800E40EE3CFD9FFE50EE3CFDAFFDECF6DF05F
:10356800DDCF6EF06DC0D9FF6EC0DAFF300EDF6EB2
:10357800E40EE3CFD9FFE50EE3CFDAFFDE2A000E33
:10358800DD22E40EE3CF6DF0E50EE3CF6EF0020E20
:103598006D24D96E000E6E20DA6EDE50DE10D8B4BF
:1035A80025D0F50EE3BA02D0780E01D0580E6D6E14
:1035B800000E6E6EEB0E6DC0E3FFEC0E6EC0E3FF07
:1035C800EB0EE350E66EE30EE3CF6DF0E40EE3CFCF
:1035D8006EF0020E6D24D96E000E6E20DA6EDECF0C
:1035E8006DF0DDCF6EF001D849D125D1F50EE3BAE3
:1035F80002D0780E01D0580E6D6E000E6E6EE90E78
:103608006DC0E3FFEA0E6EC0E3FFE40EE3CFD9FF1F
:10361800E50EE3CFDAFFDECF6DF0DDCF6EF06DC0E3
:10362800D9FF6EC0DAFFE90E1ED10A0EE66E000E53
:10363800E66E000EE66E000EE66EF50EE3CF6DF058
:10364800F60EE3CF6EF0D8906D366E36D8906D36A4
:103658006E364F0E6D24F66EF60E6E20F76EF86A13
:10366800000EF8220900F5CFE6FF0900F5CFE6FFC6
:103678000900F5CFE6FF0900F5CFE6FFE90EE3CF35
:10368800E6FFE3CFE6FFE3CFE6FFE3CFE6FF6EEC2E
:1036980050F06CC0E6FF6DC0E6FF6EC0E6FF6FC07D
:1036A800E6FF9AEC54F06CC077F08BD0F90EE3CFBC
:1036B8006DF0FA0EE3CF6EF0D8906D366E36D89076
:1036C8006D366E36770E6D24F66EF60E6E20F76E3A
:1036D800F86A000EF8220900F5CFE6FF0900F5CFD9
:1036E800E6FF0900F5CFE6FF0900F5CFE6FFED0E8E
:1036F800E3CFE6FFE3CFE6FFE3CFE6FFE3CFE6FF66
:103708006EEC50F06CC077F00F0E7716E80E77C0AD
:10371800E3FFF50EE3BA07D0FF0E6C6EE70E6CC040
:10372800E3FF6D0E06D0FF0E6C6EE70E6CC0E3FF74
:103738005C0E6C6EE60E6CC0E3FFE80EE3506D6E37
:103748006E6AE60EE3506D26E70EE3506E226DC0FA
:10375800F6FF6EC0F7FFF86A0800FF0EF5CFE3FF2B
:1037680045D0F90EE3CF6DF0FA0EE3CF6EF0D890A6
:103778006D366E36D8906D366E361F0E6D24F66E29
:10378800F60E6E20F76EF86A000EF8220900F5CFE3
:10379800E6FF0900F5CFE6FF0900F5CFE6FF0900CF
:1037A800F5CFE6FFED0EE3CFE6FFE3CFE6FFE3CF8D
:1037B800E6FFE3CFE6FF6EEC50F06CC077F0070E43
:1037C8007716300E7726FF0E77C0E3FF0FD0F50E81
:1037D800E350C00B000AD8B428D7400AD8B4C1D7E0
:1037E800C00AD8B463D7400AD8B41FD7E40EE3CFD1
:1037F8006DF0E50EE3CF6EF0020E6D24D96E000E6B
:103808006E20DA6EDE50DE10D8B41ED0FF0EE35004
:10381800E66EE30EE3CF6DF0E40EE3CF6EF0020E3A
:103828006D24D96E000E6E20DA6EDECF6DF0DDCF1E
:103838006EF001D823D00500FA6E6D50FD6E6E5003
:10384800FE6EFF6AFA501200E40EE3CFD9FFE50ED0
:10385800E3CFDAFFDECF6DF0DDCF6EF06DC0D9FFBC
:103868006EC0DAFFFF0EE3CFDFFFE40EE3CFD9FF30
:10387800E50EE3CFDAFFDE2A000EDD22E150F90F74
:10388800D96EE250DA6EFF0EDA22DE06000EDD5A3D
:10389800DE289DE1DE28D8A49AD7F50EE3A65ED0EF
:1038A800F80EE3BE5BD0F80EE35004E1F70EE30434
:1038B800D8A054D0E40EE3CF6DF0E50EE3CF6EF060
:1038C800020E6D24D96E000E6E20DA6EDE50DE1008
:1038D800D8B41DD0200EE66EE30EE3CF6DF0E40EF3
:1038E800E3CF6EF0020E6D24D96E000E6E20DA6EF4
:1038F800DECF6DF0DDCF6EF001D822D00500FA6E74
:103908006D50FD6E6E50FE6EFF6AFA501200E40EA6
:10391800E3CFD9FFE50EE3CFDAFFDECF6DF0DDCFE1
:103928006EF06DC0D9FF6EC0DAFF200EDF6EE40EB8
:10393800E3CFD9FFE50EE3CFDAFFDE2A000EDD2262
:10394800E150F70FD96EE250DA6EFF0EDA22DE068A
:10395800000EDD5ADE50DE10D8A4ACD7E150E20FDD
:10396800D96EE250DA6EFF0EDA22DFCF6DF0010E6B
:10397800DE26DFCF6EF0000EDD226DC0F6FF6EC0D2
:10398800F7FFF86A0800FF0EF5CFE3FFFF0EE350DC
:10399800D8A49AEF10F0000E6C6E000E6D6EE00E5B
:1039A800E126FF0EE2221200060EE126000EE222B8
:1039B80020EE1CF04350D9264450DA22DECF6DF0B9
:1039C800DDCF6EF0FF0E6EC0E3FFFE0E6DC0E3FFAD
:1039D800FE0EE3CF6CF0FF0EE3506C10D8B454AC7D
:1039E80021D0ADEC4DF0FF0E6DC0E3FFFE0E6CC0B4
:1039F800E3FFFE0EE3CF6CF0FF0EE3506C10D8B47B
:103A080011D0E150FE0FD96EE250DA6EFF0EDA22C5
:103A180000EE1CF04350E9264450EA22DECFEEFFC8
:103A2800DDCFEDFFFE0EE3CF6CF0FF0EE3506C1020
:103A3800D8B488EF24F054A22AD2FE0EE350E90F3E
:103A48006D6EFF0EE3CF6EF0000E6E226DC0F6FFB6
:103A58006EC0F7FF000EF86E0F0EF76403D0080073
:103A6800F55005D0F6CFE9FFF7CFEAFFEF50000990
:103A7800D8B475D0FE0EE350E80F6D6EFF0EE3CF9D
:103A88006EF0000E6E226DC0F6FF6EC0F7FF000EDE
:103A9800F86E0F0EF76404D0000EF56E0C0006D019
:103AA800F6CFE9FFF7CFEAFF000EEF6EFE0EE35008
:103AB800030F6D6EFF0EE3CF6EF0000E6E226DC029
:103AC800F6FF6EC0F7FF000EF86E0F0EF76407D012
:103AD800000EF56E0D00000EF56E0C0008D0F6CF46
:103AE800E9FFF7CFEAFF000EEE6E000EEF6EFE0E56
:103AF800E350090F6D6EFF0EE3CF6EF0000E6E22DD
:103B08006DC0F6FF6EC0F7FF000EF86E0F0EF7647B
:103B180004D0000EF56E0C0006D0F6CFE9FFF7CF03
:103B2800EAFF000EEF6EFE0EE350020F6D6EFF0E01
:103B3800E3CF6EF0000E6E226DC0F6FF6EC0F7FF89
:103B4800000EF86E0F0EF76404D0000EF56E0C0030
:103B580006D0F6CFE9FFF7CFEAFF000EEF6E45502B
:103B68004610D8B488EF24F0FE0EE3CFF6FFFF0E20
:103B7800E3CFF7FF000EF86E0F0EF76403D00800CE
:103B8800F55005D0F6CFE9FFF7CFEAFFEF50776E93
:103B9800600E7716D8A488EF24F020EE19F0435071
:103BA800D9264450DA22000EDB88FE0EE3CFF6FF5A
:103BB800FF0EE3CFF7FF000EF86E0F0EF76405D087
:103BC8007F0E0800F5160C0006D0F6CFE9FFF7CFF8
:103BD800EAFF7F0EEF16FE0EE350090F6D6EFF0E23
:103BE800E3CF6EF0000E6E226DC0F6FF6EC0F7FFD9
:103BF800000EF86E0F0EF76404D0000EF56E0C0080
:103C080006D0F6CFE9FFF7CFEAFF000EEF6E88EC9B
:103C180065F0FE0EE3500A0F766EFF0EE3CF77F0E5
:103C2800000E772276C0F6FF77C0F7FF000EF86E19
:103C38000F0EF7640DD06CC0F5FF0D006DC0F5FFD9
:103C48000D006EC0F5FF0D006FC0F5FF0C000CD025
:103C5800F6CFE9FFF7CFEAFF6CC0EEFF6DC0EEFFCD
:103C68006EC0EEFF6FC0EFFFFE0EE3500A0F6D6EE1
:103C7800FF0EE3CF6EF0000E6E226DC0F6FF6EC031
:103C8800F7FF000EF86E0F0EF7640DD00900F5CFA0
:103C980074F00900F5CF75F00900F5CF76F009004A
:103CA800F5CF77F00CD0F6CFE9FFF7CFEAFFEECFEC
:103CB80074F0EECF75F0EECF76F0EECF77F0FE0E23
:103CC800E350120F6D6EFF0EE3CF6EF0000E6E2202
:103CD8006DC0F6FF6EC0F7FF000EF86E0F0EF764AA
:103CE8000DD074C0F5FF0D0075C0F5FF0D0076C04E
:103CF800F5FF0D0077C0F5FF0C000CD0F6CFE9FFFB
:103D0800F7CFEAFF74C0EEFF75C0EEFF76C0EEFF96
:103D180077C0EFFF45C0E6FF46C0E6FF3FC0E6FFBD
:103D280040C0E6FFFA0EE350E60F6D6EFB0EE3CFE0
:103D38006EF0000E6E226DC0F6FF6EC0F7FF000E2B
:103D4800F86E0F0EF76407D00900F5CF6DF0090083
:103D5800F5CF6EF008D0F6CFE9FFF7CFEAFFEECF48
:103D68006DF0EECF6EF0FA0EE350E40F766EFB0EB8
:103D7800E3CF77F0000E772276C0F6FF77C0F7FF23
:103D8800000EF86E0F0EF76407D00900F5CF76F035
:103D98000900F5CF77F008D0F6CFE9FFF7CFEAFFB3
:103DA800EECF76F0EECF77F0FA0EE3507626FB0EE4
:103DB800E35077226D5076266E5077227D0E762658
:103DC800000E772276C0E6FF77C0E6FF4BEC53F093
:103DD800FE0EE350E60F6D6EFF0EE3CF6EF0000EA1
:103DE8006E226DC0F6FF6EC0F7FF000EF86E0F0E64
:103DF800F76407D00900F5CF6DF00900F5CF6EF034
:103E080008D0F6CFE9FFF7CFEAFFEECF6DF0EECF9F
:103E18006EF045506D2646506E22FE0EE350E60FBA
:103E2800766EFF0EE3CF77F0000E772276C0F6FFAE
:103E380077C0F7FF000EF86E0F0EF76407D06DC05D
:103E4800F5FF0D006EC0F5FF0C0008D0F6CFE9FFB6
:103E5800F7CFEAFF6DC0EEFF6EC0EFFFFE0EE35036
:103E6800010F6D6EFF0EE3CF6EF0000E6E226DC077
:103E7800F6FF6EC0F7FF000EF86E0F0EF76404D061
:103E8800010EF56E0C0001D05ED288EF24F054A824
:103E980054BE02D054AA9CD0FE0EE350020F6D6EA1
:103EA800FF0EE3CF6EF0000E6E226DC0F6FF6EC0FF
:103EB800F7FF000EF86E0F0EF76404D0000EF56ED3
:103EC8000C0006D0F6CFE9FFF7CFEAFF000EEF6E41
:103ED800FE0EE350010F6D6EFF0EE3CF6EF0000E85
:103EE8006E226DC0F6FF6EC0F7FF000EF86E0F0E63
:103EF800F76403D00800F55005D0F6CFE9FFF7CFF7
:103F0800EAFFEF500009D8B442D020EE04F0435045
:103F1800D9264450DA22DECF6DF0DDCF6EF0FE0EEA
:103F2800E350020F766EFF0EE3CF77F0000E772294
:103F380076C0F6FF77C0F7FF000EF86E0F0EF76435
:103F480007D06DC0F5FF0D006EC0F5FF0C0008D05E
:103F5800F6CFE9FFF7CFEAFF6DC0EEFF6EC0EFFFC7
:103F6800FE0EE3CFF6FFFF0EE3CFF7FF000EF86E6D
:103F78000F0EF76405D0400E0800F5120C0006D0AD
:103F8800F6CFE9FFF7CFEAFF400EEF1215D0FE0E8D
:103F9800E3CFF6FFFF0EE3CFF7FF000EF86E0F0E2C
:103FA800F76404D0000EF56E0C0006D0F6CFE9FFDA
:103FB800F7CFEAFF000EEF6E20EE1CF04350D92633
:103FC8004450DA22000EDE6E000EDD6E88EF24F01B
:103FD80054A00ED1FE0EE3CFF6FFFF0EE3CFF7FF9E
:103FE800000EF86E0F0EF76405D07F0E0800F51668
:103FF8000C0006D0F6CFE9FFF7CFEAFF7F0EEF16E9
:10400800FE0EE350E80F6D6EFF0EE3CF6EF0000E6C
:104018006E226DC0F6FF6EC0F7FF000EF86E0F0E31
:10402800F76404D0000EF56E0C0006D0F6CFE9FF59
:10403800F7CFEAFF000EEF6EFE0EE350030F6D6E32
:10404800FF0EE3CF6EF0000E6E226DC0F6FF6EC05D
:10405800F7FF000EF86E0F0EF76407D0000EF56E2E
:104068000D00000EF56E0C0008D0F6CFE9FFF7CF73
:10407800EAFF000EEE6E000EEF6EFE0EE350090F23
:104088006D6EFF0EE3CF6EF0000E6E226DC0F6FF70
:104098006EC0F7FF000EF86E0F0EF76404D0000E26
:1040A800F56E0C0006D0F6CFE9FFF7CFEAFF000E59
:1040B800EF6EFE0EE350020F6D6EFF0EE3CF6EF053
:1040C800000E6E226DC0F6FF6EC0F7FF000EF86E90
:1040D8000F0EF76404D0000EF56E0C0006D0F6CF74
:1040E800E9FFF7CFEAFF000EEF6E88EC65F0FE0EF1
:1040F800E3500A0F766EFF0EE3CF77F0000E7722BB
:1041080076C0F6FF77C0F7FF000EF86E0F0EF76463
:104118000DD06CC0F5FF0D006DC0F5FF0D006EC031
:10412800F5FF0D006FC0F5FF0C000CD0F6CFE9FFCE
:10413800F7CFEAFF6CC0EEFF6DC0EEFF6EC0EEFF7A
:104148006FC0EFFFFE0EE3500A0F6D6EFF0EE3CF58
:104158006EF0000E6E226DC0F6FF6EC0F7FF000E07
:10416800F86E0F0EF7640DD00900F5CF74F0090052
:10417800F5CF75F00900F5CF76F00900F5CF77F0A7
:104188000CD0F6CFE9FFF7CFEAFFEECF74F0EECF11
:1041980075F0EECF76F0EECF77F0FE0EE350120F0B
:1041A8006D6EFF0EE3CF6EF0000E6E226DC0F6FF4F
:1041B8006EC0F7FF000EF86E0F0EF7640DD074C0D6
:1041C800F5FF0D0075C0F5FF0D0076C0F5FF0D0079
:1041D80077C0F5FF0C000CD0F6CFE9FFF7CFEAFF68
:1041E80074C0EEFF75C0EEFF76C0EEFF77C0EFFF3C
:1041F80054B602D054A42BD3FE0EE350020F6D6EBA
:10420800FF0EE3CF6EF0000E6E226DC0F6FF6EC09B
:10421800F7FF000EF86E0F0EF76403D00800F55094
:1042280005D0F6CFE9FFF7CFEAFFEF500009D8B481
:1042380091D0FE0EE350030F6D6EFF0EE3CF6EF0CC
:10424800000E6E226DC0F6FF6EC0F7FF000EF86E0E
:104258000F0EF76407D00900F5CF45F00900F5CF38
:1042680046F008D0F6CFE9FFF7CFEAFFEECF45F0EA
:10427800EECF46F0FE0EE350030F6D6EFF0EE3CF58
:104288006EF0000E6E226DC0F6FF6EC0F7FF000ED6
:10429800F86E0F0EF76407D00900F5CF6DF009002E
:1042A800F5CF6EF008D0F6CFE9FFF7CFEAFFEECFF3
:1042B8006DF0EECF6EF06DC0E6FF6EC0E6FFFC0E4F
:1042C800E3CF76F0FD0EE3CF77F0160E76246D6E11
:1042D800000E77206E6E6DC0E6FF6EC0E6FFE0EC64
:1042E80060F0FE0EE350E80F6D6EFF0EE3CF6EF048
:1042F800000E6E226DC0F6FF6EC0F7FF000EF86E5E
:104308000F0EF76404D0010EF56E0C0006D0F6CF40
:10431800E9FFF7CFEAFF010EEF6EFE0EE350E90F5B
:104328006D6EFF0EE3CF6EF0000E6E226DC0F6FFCD
:104338006EC0F7FF000EF86E0F0EF76404D0010E82
:10434800F56E0C0006D0F6CFE9FFF7CFEAFF010EB5
:10435800EF6EDAD2FE0EE3CFF6FFFF0EE3CFF7FFE4
:10436800000EF86E0F0EF76403D00800F55005D064
:10437800F6CFE9FFF7CFEAFFEF50776E600E7716BA
:10438800D8A465D2FE0EE350090F6D6EFF0EE3CF81
:104398006EF0000E6E226DC0F6FF6EC0F7FF000EC5
:1043A800F86E0F0EF76403D00800F55005D0F6CF6D
:1043B800E9FFF7CFEAFFEF50E806D8A448D2FE0E8F
:1043C800E3CFF6FFFF0EE3CFF7FF000EF86E0F0EF8
:1043D800F76403D00800F55005D0F6CFE9FFF7CF12
:1043E800EAFFEF50776E77AE32D2FE0EE3500A0F37
:1043F8006D6EFF0EE3CF6EF0000E6E226DC0F6FFFD
:104408006EC0F7FF000EF86E0F0EF7640DD00900AE
:10441800F5CF74F00900F5CF75F00900F5CF76F007
:104428000900F5CF77F00CD0F6CFE9FFF7CFEAFF18
:10443800EECF74F0EECF75F0EECF76F0EECF77F0EA
:1044480088EC65F074506C5C706E75506D58716EC8
:1044580076506E58726E77506F58736EFE0EE3503A
:104468000E0F6D6EFF0EE3CF6EF0000E6E226DC064
:10447800F6FF6EC0F7FF000EF86E0F0EF7640DD052
:104488000900F5CF74F00900F5CF75F00900F5CFF4
:1044980076F00900F5CF77F00CD0F6CFE9FFF7CF2B
:1044A800EAFFEECF74F0EECF75F0EECF76F0EECFF8
:1044B80077F07050745C715075587250765873501C
:1044C8007758D8B0C4D188EC65F0FE0EE3500A0FD7
:1044D800766EFF0EE3CF77F0000E772276C0F6FFF8
:1044E80077C0F7FF000EF86E0F0EF7640DD06CC0A2
:1044F800F5FF0D006DC0F5FF0D006EC0F5FF0D0056
:104508006FC0F5FF0C000CD0F6CFE9FFF7CFEAFF3C
:104518006CC0EEFF6DC0EEFF6EC0EEFF6FC0EFFF28
:10452800FE0EE350120F6D6EFF0EE3CF6EF0000E1D
:104538006E226DC0F6FF6EC0F7FF000EF86E0F0E0C
:10454800F7640DD00900F5CF74F00900F5CF75F0C8
:104558000900F5CF76F00900F5CF77F00CD0F6CF4B
:10456800E9FFF7CFEAFFEECF74F0EECF75F0EECFAC
:1045780076F0EECF77F088EC65F074506C5C706E76
:1045880075506D58716E76506E58726E77506F58C0
:10459800736E73BE46D07350721006E1300E705CB5
:1045A800750E7158D8A03DD0FE0EE350090F6D6E00
:1045B800FF0EE3CF6EF0000E6E226DC0F6FF6EC0E8
:1045C800F7FF000EF86E0F0EF76404D0000EF56EBC
:1045D8000C0006D0F6CFE9FFF7CFEAFF000EEF6E2A
:1045E800FE0EE3CFF6FFFF0EE3CFF7FF000EF86EE7
:1045F8000F0EF76404D0000EF56E0C0006D0F6CF4F
:10460800E9FFF7CFEAFF000EEF6E20EE1CF04350F3
:10461800D9264450DA22000EDE6E000EDD6E200E22
:1046280069D1FE0EE3500E0F6D6EFF0EE3CF6EF0F4
:10463800000E6E226DC0F6FF6EC0F7FF000EF86E1A
:104648000F0EF7640DD00900F5CF74F00900F5CF0F
:1046580075F00900F5CF76F00900F5CF77F00CD0AA
:10466800F6CFE9FFF7CFEAFFEECF74F0EECF75F0A3
:10467800EECF76F0EECF77F0F40E7424706E010E64
:104688007520716E000E7620726E000E7720736EA4
:10469800FE0EE3500E0F6D6EFF0EE3CF6EF0000EB0
:1046A8006E226DC0F6FF6EC0F7FF000EF86E0F0E9B
:1046B800F7640DD070C0F5FF0D0071C0F5FF0D0057
:1046C80072C0F5FF0D0073C0F5FF0C000CD0F6CFDB
:1046D800E9FFF7CFEAFF70C0EEFF71C0EEFF72C0CE
:1046E800EEFF73C0EFFFFE0EE3500E0F6D6EFF0E70
:1046F800E3CF6EF0000E6E226DC0F6FF6EC0F7FFBE
:10470800000EF86E0F0EF7640DD00900F5CF74F0A7
:104718000900F5CF75F00900F5CF76F00900F5CF5F
:1047280077F00CD0F6CFE9FFF7CFEAFFEECF74F0C1
:10473800EECF75F0EECF76F0EECF77F077507610BB
:1047480006E1580E745C1B0E7558D8A009D0580E97
:10475800746E1B0E756E000E766E000E776E2BD083
:10476800FE0EE3500E0F6D6EFF0EE3CF6EF0000EDF
:104778006E226DC0F6FF6EC0F7FF000EF86E0F0ECA
:10478800F7640DD00900F5CF74F00900F5CF75F086
:104798000900F5CF76F00900F5CF77F00CD0F6CF09
:1047A800E9FFF7CFEAFFEECF74F0EECF75F0EECF6A
:1047B80076F0EECF77F0FA0E74C0E3FFFB0E75C00B
:1047C800E3FFFC0E76C0E3FFFD0E77C0E3FFFA0EB1
:1047D800E3CF74F0FB0EE3CF75F0FC0EE3CF76F079
:1047E800FD0EE3CF77F0FE0EE3500E0F6D6EFF0E59
:1047F800E3CF6EF0000E6E226DC0F6FF6EC0F7FFBD
:10480800000EF86E0F0EF7640DD074C0F5FF0D00A2
:1048180075C0F5FF0D0076C0F5FF0D0077C0F5FFF8
:104828000C000CD0F6CFE9FFF7CFEAFF74C0EEFF1B
:1048380075C0EEFF76C0EEFF77C0EFFF548220EE22
:1048480019F04350D9264450DA22EF0EDF16FE0E37
:10485800E3CFF6FFFF0EE3CFF7FF000EF86E0F0E63
:10486800F76403D00800F55005D0F6CFE9FFF7CF7D
:10487800EAFFEF50776E77AA47D0FE0EE350020F9B
:104888006D6EFF0EE3CF6EF0000E6E226DC0F6FF68
:104898006EC0F7FF000EF86E0F0EF76403D0080025
:1048A800F55005D0F6CFE9FFF7CFEAFFEF50000942
:1048B800D8A422D0FE0EE3CFF6FFFF0EE3CFF7FF1A
:1048C800000EF86E0F0EF76404D0000EF56E0C00A3
:1048D80006D0F6CFE9FFF7CFEAFF000EEF6E20EE25
:1048E8001CF04350D9264450DA22000EDE6E000E2A
:1048F800DD6E100E546E08D020EE19F04350D92604
:104908004450DA22000EDB88FA0EE126FF0EE2227E
:104918001200070EE126000EE222F80E6D6EFF0E61
:104928006E6E24EE1CF0DF50766E776A6D50762638
:104938006E507722FC0E76C0E3FFFD0E77C0E3FFD2
:10494800FB0EE36AE32AF70EE3CF6DF0F80EE3CF30
:104958006EF0060E6D24D96E000E6E20DA6E940E7F
:10496800DE18D8B432D0F70EE3CF6DF0F80EE3CFEF
:104978006EF0060E6D24D96E000E6E20DA6E950E5E
:10498800DE18D8B422D0F70EE3CF6DF0F80EE3CFDF
:104998006EF0060E6D24D96E000E6E20DA6E960E3D
:1049A800DE18D8B412D0F70EE3CF6DF0F80EE3CFCF
:1049B8006EF0060E6D24D96E000E6E20DA6EC80EEB
:1049C800DE18D8B402D0FB0EE36AFB0EE3CF6CF01E
:1049D800FF0E6CC0E3FFFF0EE350D8B433D2F70EDE
:1049E800E3CF6DF0F80EE3CF6EF0060E6D24D96EAE
:1049F800000E6E20DA6E940EDE18D8A4BCD024EE19
:104A08001DF0DECF6DF0DDCF6EF06DC0E6FF6EC03D
:104A1800E6FF0A0EE66E000EE66ED6EC52F09A0E2F
:104A2800746E000E756E6C50745E6D50755AF70E8C
:104A3800E3CF6DF0F80EE3CF6EF0070E6D24D96E5C
:104A4800000E6E20DA6EDF50776E7750745C000EC1
:104A58007558D8B005D0000EE8CFC7F4000E65D160
:104A6800F70EE3CF6DF0F80EE3CF6EF0040E6D2471
:104A7800D96E000E6E20DA6E04EEC4F0DE50EE1829
:104A880015E1DE50EE18D8A411D0F70EE3CFD9FF08
:104A9800F80EE3CFDAFF04EEC0F0DE50EE1806E1C0
:104AA800DE50EE18D8A402D0010E3FD1F70EE3CFA6
:104AB8006DF0F80EE3CF6EF0070E6D24D96E000E80
:104AC8006E20DA6EDF50180D24EEBEF0DECF6DF0EA
:104AD800DDCF6EF0EA0E766E030E776ECA0E76267E
:104AE800000E77226D50765E6E50775AF350765CE2
:104AF8007750800A6C6EF450800A6C58D8B007D092
:104B080014C4E8FF0109E8CF14F413EC5EF0080EB2
:104B1800E66E000EE66EF10EE66E030EE66EC00E51
:104B2800E66E040EE66E4BEC53F0FC0EE3CFE6FFA8
:104B3800E3CFE6FFF90EE66E030EE66E24EECAF04A
:104B4800DECF6DF0DDCF6EF06DC0E6FF6EC0E6FF24
:104B58004BEC53F0E150FC0FD96EE250DA6EFF0EC9
:104B6800DA22DECFC8F4DDCFC9F4C7C4E8FFFF0FEF
:104B7800E8CFC7F499D7F70EE3CF6DF0F80EE3CF7F
:104B88006EF0060E6D24D96E000E6E20DA6E960E4B
:104B9800DE18D8B420D0F70EE3CF6DF0F80EE3CFCF
:104BA8006EF0060E6D24D96E000E6E20DA6E950E2C
:104BB800DE18D8B410D0F70EE3CF6DF0F80EE3CFBF
:104BC8006EF0060E6D24D96E000E6E20DA6EC80ED9
:104BD800DE18D8A467D1FC0EE3CF6DF0FD0EE3CF4D
:104BE8006EF024EEC8F0DECF76F0DDCF77F06D50B2
:104BF80076266E507722775005E1910E765CD8B014
:104C08002AD701D028D724EEC7F0DF50D8B426D74A
:104C1800F70EE3CF6DF0F80EE3CF6EF0060E6D24BD
:104C2800D96E000E6E20DA6E960EDE18D8B412D049
:104C380024EEC7F0F70EE3CF6DF0F80EE3CF6EF079
:104C4800070E6D24E96E000E6E20EA6EDE50EE1837
:104C5800D8A404D7F70EE3CF6DF0F80EE3CF6EF0CB
:104C6800040E6D24D96E000E6E20DA6E04EEC4F0C8
:104C7800DE50EE1805E1DE50EE18D8A4EFD601D0CC
:104C8800EDD6FC0EE3CFE6FFE3CFE6FFF90EE66EC6
:104C9800030EE66E24EEC8F0DECF6DF0DDCF6EF0C9
:104CA80024EECAF0DECF76F0DDCF77F06D507626B1
:104CB8006E50772276C0E6FF77C0E6FF4BEC53F0E4
:104CC800FC0EE3CF6DF0FD0EE3CF6EF024EEC8F0DE
:104CD8006D50DE266E50DD22F70EE3CF6DF0F80E34
:104CE800E3CF6EF0060E6D24D96E000E6E20DA6EDC
:104CF800960EDE18D8A439D7000EE8CFC7F4F70E01
:104D0800E3CF6DF0F80EE3CF6EF0070E6D24D96E89
:104D1800000E6E20DA6EDF50776E77C0C6F4C6C418
:104D2800E8FF830AD8A403D0020E6C6E5CD124EE8F
:104D3800C8F004EEBEF0EECF6DF0EDCF6EF0EA0EE7
:104D4800766E030E776ECA0E7626000E77226D50A9
:104D5800765E6E50775ADE50765C7750800A6C6EBD
:104D6800DE50800A6C58D8A065D00A0EE66E000E98
:104D7800E66EC00EE66E040EE66E24EEBEF0DECFE2
:104D88006DF0DDCF6EF06DC0E6FF6EC0E6FF4BEC58
:104D980053F024EEC8F0DECF6DF0DDCF6EF06DC0BD
:104DA800E6FF6EC0E6FF24EECAF0DECF6DF0DDCF81
:104DB8006EF06DC0E6FF6EC0E6FF24EEBEF0DECFFB
:104DC8006DF0DDCF6EF00A0E6D26000E6E226DC0FE
:104DD800E6FF6EC0E6FF4BEC53F024EEC8F0DECFE2
:104DE8006DF0DDCF6EF00A0E6D26000E6E2224EEF9
:104DF800BEF06D50DE266E50DD22C8C477F00A0E74
:104E08007726030E7716F90E77C0E3FFF90EE35005
:104E1800D8B44AD6040E6D6E000E6E6EF90EE350CD
:104E28006D5E000E6E5A24EEBEF06D50DE266E509A
:104E3800DD223AD613EC5EF014C4E8FF0109E8CF8E
:104E480014F40CD6F70EE3CF6DF0F80EE3CF6EF046
:104E5800060E6D24D96E000E6E20DA6E830EDE18F3
:104E6800D8A420D0080EE66E000EE66EF10EE66EAF
:104E7800030EE66EC00EE66E040EE66E4BEC53F0C3
:104E8800F90EE8CFCAF4030EE8CFCBF4E150FC0FDB
:104E9800D96EE250DA6EFF0EDA22DECFC8F4DDCF2B
:104EA800C9F442D724EEBEF0DECF6DF0DDCF6EF050
:104EB800EA0E766E030E776EC60E746EFF0E756E72
:104EC8007650745E7750755A6D5074266E50752200
:104ED800FC0EE3507426FD0EE350752275BE06D015
:104EE80075507CE19B0E745CD8B078D0080EE66EE5
:104EF800000EE66EF10EE66E030EE66E24EEBEF0D0
:104F0800DECF6DF0DDCF6EF06DC0E6FF6EC0E6FF60
:104F18004BEC53F0020EE66E000EE66EFA0EE1243C
:104F2800E66EFF0EE220E66E24EEBEF0DECF6DF0F8
:104F3800DDCF6EF0080E6D26000E6E226DC0E6FF06
:104F48006EC0E6FF4BEC53F0FC0EE3CFE6FFE3CF79
:104F5800E6FFF90EE66E030EE66E24EEBEF0DECF37
:104F68006DF0DDCF6EF00A0E6D26000E6E226DC05C
:104F7800E6FF6EC0E6FF4BEC53F0FC0EE3500A0F61
:104F88006D6EFD0EE3CF6EF0000E6E2224EEBEF0C5
:104F98006D50DE266E50DD220A0E776EFC0EE35051
:104FA8007724766E030E7616FA0E76C0E3FFFA0EB5
:104FB800E350D8B40FD0040E6D6E000E6E6EFA0E6C
:104FC800E3506D5E000E6E5A24EEBEF06D50DE2684
:104FD8006E50DD22FE0EE36AE32A02D0FE0EE36A7B
:104FE800FE0EE3CF6CF0F70EE126FF0EE222120070
:104FF800050EE126000EE222FE0EE36A24EE14F00E
:10500800DFB286D224EE14F0DFB01ED024EEBEF05C
:10501800DECF6DF0DDCF6EF0EA0E766E030E776EA2
:10502800E80E746EFF0E756E7650745E7750755A82
:105038006D5074266E50752275BE6AD2755004E1A3
:105048009B0E745CD8A064D2C1EC64F06C50D8A4F8
:1050580006D014C4E8FFFE0BE8CF14F459D2000EB2
:10506800A2D156EC62F06C5024EE1CF0DF6E080EF4
:10507800DF6007D00A0EE66E000EE66E0CEC58F004
:1050880047D224EE1CF0DF50E66EF10EE66E030EFA
:10509800E66E87EC64F0030E6C6EFD0E6CC0E3FFE9
:1050A800F10E6C6EFC0E6CC0E3FFFC0EE3CF6DF0EE
:1050B800FD0EE3CF6EF0020E6D24D96E000E6E2049
:1050C800DA6EDECF6DF0DDCF6EF06DC0E6FF6EC03C
:1050D800E6FFFAEC5EF06C50D8B41AD2FC0EE3CFBF
:1050E8006DF0FD0EE3CF6EF0060E6D24D96E000E46
:1050F8006E20DA6EDF50776EFE0E77C0E3FF24EE87
:105108001AF0FC0EE3CF6DF0FD0EE3CF6EF0020E49
:105118006D24E96E000E6E20EA6EDE50EE1803E193
:10512800DE50EE18D8A441D1FC0EE3CF6DF0FD0E91
:10513800E3CF6EF0060E6D24D96E000E6E20DA6E87
:10514800820EDE18D8B4E4D1FC0EE3CF6DF0FD0E6C
:10515800E3CF6EF0060E6D24D96E000E6E20DA6E67
:10516800800EDE18D8A450D024EE1AF0240EDE18D3
:1051780004E1090EDE18D8B447D0FC0EE3CF6DF079
:10518800FD0EE3CF6EF0020E6D24D96E000E6E2078
:10519800DA6E240EDE6E090EDD6E020EE66EFB0E72
:1051A800E3CF6DF0FC0EE3CF6EF0020E6D24D96EE6
:1051B800000E6E20DA6EDECF6DF0DDCF6EF06DC0C2
:1051C800E6FF6EC0E6FF3EEC3BF00A0EE66E000E10
:1051D800E66E0CEC58F0020EE66EFB0EE3CF6DF0B7
:1051E800FC0EE3CF6EF0020E6D24D96E000E6E2019
:1051F800DA6EDECF6DF0DDCF6EF06DC0E6FF6EC00B
:10520800E6FF3EEC3BF084D1FC0EE3CF6DF0FD0EE3
:10521800E3CF6EF0060E6D24D96E000E6E20DA6EA6
:10522800C30EDE18D8A43BD024EE1AF0DE50DE10F0
:10523800D8B435D024EE1AF0FC0EE3CFE9FFFD0E0A
:10524800E3CFEAFFDECFEEFFDDCFEDFFFC0EE3CFCD
:105258006DF0FD0EE3CF6EF0020E6D24D96E000ED8
:105268006E20DA6E000EDE6E000EDD6E000EE66E4B
:10527800FB0EE3CF6DF0FC0EE3CF6EF0020E6D2453
:10528800D96E000E6E20DA6EDECF6DF0DDCF6EF0D7
:105298006DC0E6FF6EC0E6FF3EEC3BF039D124EE70
:1052A80013F0DF50D8B40FD0FC0EE3CF6DF0FD0E35
:1052B800E3CF6EF0060E6D24D96E000E6E20DA6E06
:1052C800800EDF6010D0FC0EE3CF6DF0FD0EE3CF53
:1052D8006EF0060E6D24D96E000E6E20DA6EC10EC9
:1052E800DE18D8A454D0FC0EE3CF6DF0FD0EE3CF4A
:1052F8006EF0060E6D24D96E000E6E20DA6E940ED6
:10530800DE18D8B444D0FC0EE3CF6DF0FD0EE3CF29
:105318006EF0060E6D24D96E000E6E20DA6E950EB4
:10532800DE18D8B434D0FC0EE3CF6DF0FD0EE3CF19
:105338006EF0060E6D24D96E000E6E20DA6EC80E61
:10534800DE18D8B424D0FC0EE3CF6DF0FD0EE3CF09
:105358006EF0060E6D24D96E000E6E20DA6E830E86
:10536800DE18D8B414D0FC0EE3CF6DF0FD0EE3CFF9
:105378006EF0060E6D24D96E000E6E20DA6E960E53
:10538800DE18D8B404D0FE0EE3CF6CF0D2D0FC0EF9
:10539800E3CFE6FFE3CFE6FF8DEC24F0020E6C18B6
:1053A800D8A4B6D0830E6C6EC4D0FC0EE3CF6DF0DB
:1053B800FD0EE3CF6EF0020E6D24D96E000E6E2046
:1053C800DA6E400EDE18DE10D8A48AD0FC0EE3CFC9
:1053D8006DF0FD0EE3CF6EF0060E6D24D96E000E53
:1053E8006E20DA6EC20EDE18D8A450D024EE14F067
:1053F800DFB68ED024EE1AF0240EDE1804E1090E72
:10540800DE18D8B485D0FC0EE3CFD9FFFD0EE3CF6C
:10541800DAFFFC0EE3CF6DF0FD0EE3CF6EF0020E67
:105428006D24E96E000E6E20EA6EDECFEEFFDDCF52
:10543800EDFF24EE1AF0FC0EE3CFE9FFFD0EE3CFFB
:10544800EAFFDECFEEFFDDCFEDFF24EE21F0DF50E7
:10545800E66E000EE66E0CEC58F0020EE66EFB0EE1
:10546800E3CF6DF0FC0EE3CF6EF0020E6D24D96E23
:10547800000E6E20DA6EDECF6DF0DDCF6EF06DC0FF
:10548800E6FF6EC0E6FF3EEC3BF042D0FC0EE3CFF9
:10549800E6FFE3CFE6FF8DEC24F0FB0E6CC0E3FFE4
:1054A80023EEEAF0DF50D8B417D0040EE66E24EEEF
:1054B80019F0DF50E66E66EC5FF0D8906C366D360A
:1054C800D8906C366D36D8906C366D366CC0E6FF69
:1054D8006DC0E6FF3EEC3BF0FB0EE3CF6CF05ED711
:1054E800010EE66EFB0EE3CF6DF0FC0EE3CF6EF01F
:1054F800020E6D24D96E000E6E20DA6EDECF6DF0CE
:10550800DDCF6EF06DC0E6FF6EC0E6FF3EEC3BF00F
:10551800E4EC64F06C50D8B436D7FF0EE124E66EA4
:10552800FF0EE220E66EB7EC61F06C50D8B42BD7D2
:1055380098D5FB0EE126FF0EE22212000A0EE126A4
:10554800000EE222F40EE3CF6DF0F50EE3CF6EF01D
:10555800FF0E6EC0E3FFFE0E6DC0E3FF36D0FE0EF9
:10556800E3CF6DF0FF0EE3CF6EF0030E6D24D96E1E
:10557800000E6E20DA6EDE50DE10D8A417D0070EAB
:10558800E66E000EE66EFC0EE3CF6DF0FD0EE3CF87
:105598006EF0F20EE3506D5EF30EE3506E5A6DC07E
:1055A800E6FF6EC0E6FF14EC4DF01DD2FE0EE35090
:1055B800070F6C6EFE0E6CC0E3FF6C6AFF0EE350C3
:1055C8006C206C6EFF0E6CC0E3FF070EE66E000EDB
:1055D800E66EF00EE3CFE6FFE3CFE6FF9FEC5AF06E
:1055E800F40EE3506C26F50EE3506D22FE0EE3CF69
:1055F8006EF06C506E5CFF0EE3CF6EF06D506E581F
:10560800D8A0ADD7DBEC5CF0FC0E6CC0E3FFFD0E60
:105618006DC0E3FFFD0EE3AE05D0FF0E6C6EFF0E0E
:105628006D6EE1D1F40EE3CF6DF0F50EE3CF6EF0C1
:10563800FF0E6EC0E3FFFE0E6DC0E3FFB6D1FC0E99
:10564800E3CF6DF0FD0EE3CF6EF0FE0EE3CF76F004
:10565800FF0EE3CF77F0050E7624D96E000E772083
:10566800DA6EDECF76F0DDCF77F0FE0EE3CFD9FF2E
:10567800FF0EE3CFDAFFDECF72F0DECF73F0DECFBE
:1056880074F0765072246F6E77507320706E000E2F
:105698007420716E6FC0F6FF70C0F7FF71C0F8FF1D
:1056A8000800F5506D186E10D8A423D0FE0EE3CF75
:1056B8006DF0FF0EE3CF6EF0030E6D24D96E000E71
:1056C8006E20DA6EFE0EE3CF6DF0FF0EE3CF6EF0C4
:1056D800050E6D24E96E000E6E20EA6EEE2A000EAD
:1056E800ED22DE50EE1804E1DE50EE18D8B447D7AC
:1056F8004DD1FE0EE3CF6DF0FF0EE3CF6EF0050E39
:105708006D24D96E000E6E20DA6EDE50DE10D8B42D
:105718003DD1FE0EE3CF6DF0FF0EE3CF6EF0050E28
:105728006D24D96E000E6E20DA6EDECF6DF0DDCFFF
:105738006EF0FA0E6DC0E3FFFB0E6EC0E3FFFE0EC7
:10574800E3CF6DF0FF0EE3CF6EF0050E6D24D96E3A
:10575800000E6E20DA6EDE06000EDD5AFC0EE3CF78
:105768006DF0FD0EE3CF6EF0FE0EE3CF76F0FF0E88
:10577800E3CF77F0050E7624D96E000E7720DA6E27
:10578800DECF76F0DDCF77F0FE0EE3CFD9FFFF0E48
:10579800E3CFDAFFDECF72F0DECF73F0DECF74F046
:1057A800765072246F6E77507320706E000E7420DE
:1057B800716E6FC0F6FF70C0F7FF71C0F8FF080088
:1057C800F5506D186E10D8A4D1D0FE0EE3CF6DF051
:1057D800FF0EE3CF6EF0050E6D24D96E000E6E201D
:1057E800DA6EDE50DE10D8B4B1D0FE0EE3CF6DF025
:1057F800FF0EE3CF6EF0050E6D24D96E000E6E20FD
:10580800DA6EDECF6DF0DDCF6EF0FA0EE3CF76F014
:10581800FB0EE3CF77F06D50765E6E50775AF80E38
:1058280076C0E3FFF90E77C0E3FFF60EE36AF70EE2
:10583800E36A5FD0F60EE3CF76F0F70EE3CF77F0AA
:10584800FE0EE3CFD9FFFF0EE3CFDAFFDECF72F013
:10585800DECF73F0DECF74F0765072246F6E77501F
:105868007320706E000E7420716E6FC0F6FF70C0EA
:10587800F7FF71C0F8FF0800F5CF77F0F80EE3CF17
:1058880074F0F90EE3CF75F0F60EE3507426F70EB8
:10589800E3507522FE0EE3CFD9FFFF0EE3CFDAFF08
:1058A800DECF6FF0DECF70F0DECF71F074506F2472
:1058B8006C6E755070206D6E000E71206E6E6CC02F
:1058C800F6FF6DC0F7FF6EC0F8FF0800F5507718B7
:1058D800D8A427D0F60EE350010F6C6EF60E6CC0FC
:1058E800E3FF6C6AF70EE3506C206C6EF70E6CC029
:1058F800E3FFFE0EE3CF6DF0FF0EE3CF6EF0050E73
:105908006D24D96E000E6E20DA6EF60EE3CF6CF0C1
:10591800DE506C5CF70EE3CF6CF0DE506C58D8A00C
:1059280089D7FE0EE3CF6DF0FF0EE3CF6EF0050EC4
:105938006D24D96E000E6E20DA6EF60EE350DE1876
:1059480015E1F70EE350DE18D8A410D0FE0EE3CF11
:105958006DF0FF0EE3CF6EF0050E6D24D96E000ECC
:105968006E20DA6EDE2A000EDD2210D0FE0EE3CFA6
:105978006DF0FF0EE3CF6EF0050E6D24D96E000EAC
:105988006E20DA6EDE50DE10D8A4D9D6FE0EE350B3
:10599800070F6C6EFE0E6CC0E3FF6C6AFF0EE350DF
:1059A8006C206C6EFF0E6CC0E3FF070EE66E000EF7
:1059B800E66EF00EE3CFE6FFE3CFE6FF9FEC5AF08A
:1059C800F40EE3506C26F50EE3506D22FE0EE3CF85
:1059D8006EF06C506E5CFF0EE3CF6EF06D506E583B
:1059E800D8B010D62CD6F20EE126FF0EE222120015
:1059F800E652E652E652E652FA0EE3CF6DF0FB0E9F
:105A0800E3CF6EF0030E6D24D96E000E6E20DA6EB1
:105A1800DF50E66EB4EC65F0ADEC65F00A0E6C2470
:105A2800D96E000E6D20DA6EDECF41F0DDCF42F088
:105A3800FA0EE3CFD9FFFB0EE3CFDAFFDF506E6E2D
:105A48006D6AFA0EE3CF76F0FB0EE3CF77F0010E26
:105A58007624D96E000E7720DA6EDF506D12000EB4
:105A68006E126EC06DF06E6AFA0EE3CFD9FFFB0EB0
:105A7800E3CFDAFFDF50776E766AFA0EE3CF74F081
:105A8800FB0EE3CF75F0010E7424D96E000E75205D
:105A9800DA6EDF507612000E771276C077F0766AEB
:105AA8006D5076126E507712FC0E76C0E3FFFD0E35
:105AB80077C0E3FFFA0EE3CF6DF0FB0EE3CF6EF095
:105AC800020E6D24D96E000E6E20DA6EDF506E6EF7
:105AD8006D6AFA0EE3CF76F0FB0EE3CF77F0030E94
