:040000000AEF00F013
:10000800E1CF01F0E2CF02F009ED4EF017EECEF0AD
:1000180032EF43F0386EF4C03AF0F5C03BF0280EEA
:100028007C240101486F000E7D200101496F48C101
:100038004CF149C14DF1030E3818D8A41ED020EE5A
:1000480019F03A50D9263B50DA22DF500F0B030A39
:10005800D8A4FBEF0DF020EE10F03A50D9263B5013
:10006800DA22DE50DE10D8A4FBEF0DF0080E0001F6
:10007800FB6F65EC16F0C2EF0AF0020E3818D8A430
:1000880019D10101253F08D00101243F05D0010104
:10009800233F02D00101222B000E0001F76F000E52
:1000A800F66F000E01014F6F000E4E6F20EE19F033
:1000B8003A50D9263B50DA22070EDE18D8B40AD0B7
:1000C80020EE19F03A50D9263B50DA22050EDE18F8
:1000D800D8A416D020EE1AF03A50D9263B50DA228E
:1000E800DF2A20EE1AF03A50D9263B50DA22780E51
:1000F800DE18D8A4FBEF0DF020EE19F030EF0CF06D
:1001080020EE19F03A50D9263B50DA22DF50D8B405
:10011800FBEF0DF020EE10F03A50D9263B50DA22D2
:10012800DE50DE10D8B4B3D020EE1AF03A50D926FB
:100138003B50DA22DF06DE28D8A4FBEF0DF020EED4
:100148001BF03A50D9263B50DA220A0EDE18D8B4F2
:100158001DD020EE19F03A50D9263B50DA22020E73
:10016800DE18D8B409D020EE19F03A50D9263B5001
:10017800DA22DE04D8A420D020EE1BF03A50D9268B
:100188003B50DA22030EDE18D8A416D020EE19F060
:100198003A50D9263B50DA22000EDF6E800E00015D
:1001A800FB6F65EC16F020EE21F07C50D9267D50CF
:1001B800DA22140E67EF0CF020EE1BF03A50D92625
:1001C8003B50DA22050EDF600CD020EE1BF03A50CF
:1001D800D9263B50DA22DF502A6E2A50326E336A13
:1001E80004D0000E336E040E326E20EE1AF03A5030
:1001F800D9263B50DA2232C02AF0080E2B6E2A2A62
:1002080002D0D8902B362A2EFCD72B50DF6E20EE4A
:100218001BF03A50D9263B50DA22DF2A10D020EEC4
:1002280021F07C50D9267D50DA22000E58EF06F0D6
:10023800040E0001FB6F65EC16F040EF0BF020EEAA
:1002480019F03A50D9263B50DA22DF500F0B2A6EAC
:100258002B6A2B50000AD8A4FBEF0DF02A50010A94
:10026800D8B451EF06F0030AD8B4D9D7010AD8B4E4
:10027800DFD7070AD8B414EF0AF0020AD8B414EF8B
:100288000AF00E0AD8B414EF0AF0FBEF0DF020EED6
:1002980019F03A50D9263B50DA22DF500F0B030AE7
:1002A800D8A4FBEF0DF0080E0001FB6F65EC16F00B
:1002B800C2EF0AF07CC0D9FF7DC0DAFF450EDE1818
:1002C800D8A4FBEF0DF020EE02F07C50D9267D502B
:1002D800DA22DF502A6E2A502C6E2B6A20EE03F0A9
:1002E8007C50D9267D50DA22DF502D6E2D502B26DA
:1002F800000E2C222B500001F65D2C500001F759FE
:10030800D8A0FBEF0DF020EE03F07C50D9267D50ED
:10031800DA22DF502A6E20EE02F07C50D9267D507A
:10032800DA22DF502B6E2B502D6E2C6A2A502C248B
:100338000001F66F000E2D200001F76F20EE06F089
:100348007C50D9267D50DA22DF502A6E3F0E2A16BD
:10035800D8A4FBEF0DF020EE07F07C50D9267D5095
:10036800DA22DF50D8A4FBEF0DF0AD0EF66EF60ED4
:10037800F76E000EF86E0900F5500001EE1916E14F
:100388000900F5500001EF19D8A410D0AF0EF66E91
:10039800F60EF76EF86A0900F5500001F01906E14B
:1003A8000900F5500001F119D8B423D020EE10F05F
:1003B8007C50D9267D50DA220001EE51DE1804E186
:1003C8000001EF51DE18D8A4FBEF0DF020EE12F07B
:1003D8007C50D9267D50DA220001F051DE1807E161
:1003E8000001F151DE18D8A4FBEF0DF002D0FBEFAD
:1003F8000DF04AEC4BF0132805E11428D8A4FBEFC4
:100408000DF002D0FBEF0DF020EE09F07C50D9265C
:100418007D50DA22060EDE18D8B471D020EE09F02D
:100428007C50D9267D50DA22DE04D8A4FBEF0DF0EB
:1004380020EE14F07C50D9267D50DA22080EDE1802
:10044800D8A4FBEF0DF020EE14F07C50D9267D5097
:10045800DA22000EDF6E20EE16F07C50D9267D5091
:10046800DA22F70EDE5CFF0EDE58D8A008D020EEA8
:1004780016F07C50D9267D50DA22090E07D020EEDE
:1004880016F07C50D9267D50DA22080EDE26000EA2
:10049800DD2220EE0CF07C50D9267D50DA2200EEC9
:1004A80010F07C50E9267D50EA22DECFEEFFDDCF4A
:1004B800EDFF20EE0EF07C50D9267D50DA2200EEBA
:1004C80012F07C50E9267D50EA22DECFEEFFDDCF28
:1004D800EDFF20EE0CF07C50D9267D50DA22EEC0DC
:1004E800DEFFEFC0DDFF20EE0EF07C50D9267D50F8
:1004F800DA22F0C0DEFFF1C0DDFFF7EF0DF0F6EC19
:100508004FF01E2805E11F28D8A4FBEF0DF002D0FC
:10051800FBEF0DF0980E3A6E020E3B6E3B50020850
:1005280002E13A509808D8A058D020EE19F03A5075
:10053800D9263B50DA22DF50D8B44AD020EE04F056
:100548003A50D9263B50DA2200EE16F07C50E926C4
:100558007D50EA22DE50EE183BE1DE50EE18D8A4BA
:1005680037D020EE06F03A50D9263B50DA2200EE7A
:1005780014F07C50E9267D50EA22DE50EE1828E17E
:10058800DE50EE18D8A424D03AC0D9FF3BC0DAFF19
:1005980000EE0CF07C50E9267D50EA22DE50EE1881
:1005A80017E1DE50EE18D8A413D020EE02F03A502E
:1005B800D9263B50DA2200EE0EF07C50E9267D5019
:1005C800EA22DE50EE1804E1DE50EE18D8B4A3D3C8
:1005D8001E0E3A26000E3B22A1D720EE21F07C50B9
:1005E800D9267D50DA22DF503F0B020AD8A426D044
:1005F80020EE16F07C50D9267D50DA22DECFF2F0BC
:10060800DDCFF3F0000E0001FC6F0001FC51D8A40F
:1006180015D00001FC51020D4A0EF324D96E010ECB
:10062800F420DA6E0001F251DE1805E10001F35101
:10063800DE18D8B41CD10001FC2BE7D720EE21F03E
:100648007C50D9267D50DA22DFB4FBEF0DF020EE86
:1006580021F07C50D9267D50DA22140EDF6E000E70
:100668000001F76F280EF66F20EE20F07C50D92697
:100678007D50DA22500EDF6E20EE1BF07C50D9261A
:100688007D50DA22DF500001FC6F20EE1FF07C5015
:10069800D9267D50DA2200EE1BF07C50E9267D50E9
:1006A800EA22DFCFEFFF20EE1FF07C50D9267D50E5
:1006B800DA22FCC0DFFF20EE1AF07C50D9267D50EC
:1006C800DA22DF500001FC6F20EE1EF07C50D926A4
:1006D8007D50DA2200EE1AF07C50E9267D50EA229D
:1006E800DFCFEFFF20EE1EF07C50D9267D50DA22B6
:1006F800FCC0DFFF20EE19F07C50D9267D50DA22AD
:10070800DF500001FC6F20EE1DF07C50D9267D5093
:10071800DA2200EE19F07C50E9267D50EA22DFCF7C
:10072800EFFF20EE1DF07C50D9267D50DA22FCC068
:10073800DFFF20EE18F07C50D9267D50DA22DF50FA
:100748000001FC6F20EE1CF07C50D9267D50DA2287
:1007580000EE18F07C50E9267D50EA22DFCFEFFF4B
:1007680020EE1CF07C50D9267D50DA22FCC0DFFF39
:1007780020EE1FF07C50D9267D50DA22DF2ADF5088
:10078800D8A41BD020EE1EF07C50D9267D50DA224A
:10079800DF2ADF50D8A411D020EE1DF07C50D926D6
:1007A8007D50DA22DF2ADF50D8A407D020EE1CF0D3
:1007B8007C50D9267D50DA22DF2A20EE14F07C50B6
:1007C800D9267D50DA22DECFF2F0DDCFF3F020EE2D
:1007D80016F07C50D9267D50DA2200EE14F07C50B9
:1007E800E9267D50EA22DECFEEFFDDCFEDFF20EED9
:1007F80016F07C50D9267D50DA22F2C0DEFFF3C015
:10080800DDFF20EE0CF07C50D9267D50DA2200EE78
:1008180010F07C50E9267D50EA22DECFEEFFDDCFD6
:10082800EDFF20EE0EF07C50D9267D50DA2200EE46
:1008380012F07C50E9267D50EA22DECFEEFFDDCFB4
:10084800EDFF20EE0CF07C50D9267D50DA22EEC068
:10085800DEFFEFC0DDFF20EE0EF07C50D9267D5084
:10086800DA22F0C0DEFFF1C0DDFF68EF0DF0000E08
:100878003A6E000E3B6E000E0001FC6F0001FC5149
:10088800D8A452D00001FC511E0D190EF326000EFB
:10089800F422980EF324D96E020EF420DA6EDF509B
:1008A800D8A40AD00001FC511E0D980EF3243A6E0C
:1008B800020EF4203B6E38D00001FC511E0D190EBB
:1008C800F326000EF422980EF324D96E020EF420BB
:1008D800DA6E070EDE18D8A424D03A503B10D8B4EC
:1008E80017D00001FC511E0D1A0EF326000EF4223B
:1008F800980EF324D96E020EF420DA6E00EE1AF088
:100908003A50E9263B50EA22DE50EE5CD8B009D0D6
:100918000001FC511E0D980EF3243A6E020EF420CD
:100928003B6E0001FC2BAAD73A503B10D8B4FBEF22
:100938000DF03AC0F4F03BC0F5F020EE1AF03A5052
:10094800D9263B50DA22080EDF6E00EE18F03A5036
:10095800E9263B50EA22DFCFEFFF20EE16F03A50AF
:10096800D9263B50DA22000EDF6E20EE17F03A50FF
:10097800D9263B50DA22040EDF6E20EE1BF03A50E7
:10098800D9263B50DA22000EDF6E20EE16F07C509E
:10099800D9267D50DA2200EE04F03A50E9263B5081
:1009A800EA22DECFEEFFDDCFEDFF20EE14F07C5023
:1009B800D9267D50DA2200EE06F03A50E9263B505F
:1009C800EA22DECFEEFFDDCFEDFF20EE0CF07C500B
:1009D800D9267D50DA223AC0E9FF3BC0EAFFDECFD4
:1009E800EEFFDDCFEDFF20EE0EF07C50D9267D50D6
:1009F800DA2200EE02F03A50E9263B50EA22DECF36
:100A0800EEFFDDCFEDFF20EE19F03A50D9263B502E
:100A1800DA22010EDF6E20EE0CF03A50D9263B5058
:100A2800DA2222C1DFFF20EE0DF03A50D9263B50E2
:100A3800DA2223C1DFFF20EE0EF03A50D9263B50D0
:100A4800DA2224C1DFFF20EE0FF03A50D9263B50BE
:100A5800DA2225C1DFFF20EE10F03A50D9263B50AC
:100A6800DA22010EDE6E000EDD6E20EE1BF07C50E9
:100A7800D9267D50DA2200EE0BF03A50E9263B5099
:100A8800EA22DFCFEFFF20EE1AF07C50D9267D5006
:100A9800DA2200EE0AF03A50E9263B50EA22DFCF8C
:100AA800EFFF20EE19F07C50D9267D50DA2200EEB7
:100AB80009F03A50E9263B50EA22DFCFEFFF20EE5B
:100AC80018F07C50D9267D50DA2200EE08F03A5012
:100AD800E9263B50EA22DFCFEFFF000E0C6E010E35
:100AE8000B6E1BEC48F020EE20F07C50D9267D5090
:100AF800DA22DF502A6EF00E2A16500E2A64CDD064
:100B0800000E0001FC6FA1D00001FC512A6E2B6A77
:100B1800280E2A26000E2B222A507C24D96E2B5010
:100B28007D20DA6EDF500001FA6F0001FA510001F2
:100B3800D8B4B3D00001FA05D8A403D00001FC2B27
:100B480084D0020E0001FA19D8A45DD00001FC512E
:100B58002A6E2B6A290E2A26000E2B222A507C2464
:100B6800D96E2B507D20DA6E040EDE18D8A44BD037
:100B78000001FC512A6E2B6A2B0E2A26000E2B220E
:100B88002A507C24D96E2B507D20DA6EDF502C6ED3
:100B98000001FC512D6E2E6A2A0E2D26000E2E22E3
:100BA8002D507C24D96E2E507D20DA6EDF502F6EAA
:100BB8002C500001F26F2FC0F3F00001F3510AE14D
:100BC800680E0001F25DD8B005D0F2C034F0F3C071
:100BD80035F004D0000E356E670E346E20EE12F03C
:100BE8003A50D9263B50DA2234C0DEFF35C0DDFF4B
:100BF80000EE14F03A50E9263B50EA22DECFEEFF31
:100C0800DDCFEDFF4AD00001FC512A6E2B6A290E78
:100C18002A26000E2B222A507C24D96E2B507D20A8
:100C2800DA6EDF50D8B439D00001FC512A6E2B6A35
:100C3800290E2A26000E2B222A507C24D96E2B50EE
:100C48007D20DA6EDF500001FC27EC0E2A6EFF0EC5
:100C58002B6E20EE20F07C50D9267D50DA22DF5012
:100C68002C6E2C380F0B2D6E2E6AD8902D362E3602
:100C7800D8902D362E362A502D262B502E220001A4
:100C8800FC512F6E306A2D502F5C3050800A316E27
:100C98002E50800A3158D8A037D720EE21F07C504A
:100CA800D9267D50DA22100EDF6E20EE21F07C501E
:100CB800D9267D50DA22000EDB8220EE28F07C5007
:100CC800D9267D50DA22020EDF6E20EE29F07C5004
:100CD800D9267D50DA22040EDF6E20EE2AF07C50F1
:100CE800D9267D50DA22000EDF6E20EE2BF07C50E4
:100CF800D9267D50DA22670EDF6E000E0001F76FED
:100D08002C0EF66F20EE20F07C50D9267D50DA228A
:100D1800600E74EF0CF03AC0F4F03BC0F5F0000E32
:100D28000001FB6F20EE21F07C50D9267D50DA229D
:100D3800DFA40FD020EE19F03A50D9263B50DA2222
:100D4800000EDF6E200E0001FB6F65EC16F0FBEF66
:100D58000DF020EE20F07C50D9267D50DA22DF50AD
:100D68002A6E2A3A0F0E2A16D8902A36D8902A3494
:100D78000001FC6F0001FC512A6E2B6A140E2A2612
:100D8800000E2B222A1E2B1E2A4A2B2A0001F6515E
:100D98002A240001F66F0001F7512B200001F76F9C
:100DA80020EE19F03A50D9263B50DA22DF500F0BCB
:100DB800020AD8A40BD020EE21F07C50D9267D5011
:100DC800DA22DF503F0B120AD8B456D00001F65190
:100DD8000001F711D8A40CD020EE21F07C50D926C0
:100DE8007D50DA22DF502A6E030E2A16D8B444D07A
:100DF80020EE08F03A50D9263B50DA2200EE18F0DF
:100E08007C50E9267D50EA22DE50EE18D8A460EF27
:100E18000CF020EE09F03A50D9263B50DA2200EEC9
:100E280019F07C50E9267D50EA22DE50EE18D8A44D
:100E380060EF0CF020EE0AF03A50D9263B50DA2247
:100E480000EE1AF07C50E9267D50EA22DE50EE18BA
:100E5800D8A460EF0CF020EE0BF03A50D9263B50A6
:100E6800DA2200EE1BF07C50E9267D50EA22DE50A3
:100E7800EE18D8A460EF0CF020EE21F07C50D926B3
:100E88007D50DA22DFA837EF0CF020EE10F03A5050
:100E9800D9263B50DA22DE50DE10D8B437EF0CF0FA
:100EA8000C0E3A24036E000E3B20046E20EE10F068
:100EB8003A50D9263B50DA22DECF05F0DDCF06F0D6
:100EC800D9EC42F020EE1CF07C50D9267D50DA2275
:100ED80001012E51DE18D8A437EF0CF020EE1DF0DA
:100EE8007C50D9267D50DA2201012F51DE18D8A472
:100EF80037EF0CF020EE1EF07C50D9267D50DA2218
:100F080001013051DE18D8A437EF0CF020EE1FF0A5
:100F18007C50D9267D50DA2201013151DE18D8A43F
:100F280037EF0CF020EE0CF03A50D9263B50DA227D
:100F38002EC1DFFF20EE0DF03A50D9263B50DA22C1
:100F48002FC1DFFF20EE0EF03A50D9263B50DA22AF
:100F580030C1DFFF20EE0FF03A50D9263B50DA229D
:100F680031C1DFFF20EE1BF03A50D9263B50DA2280
:100F7800DF50D8A462D020EE18F03A50D9263B5062
:100F8800DA22DF502A6E20EE1AF03A50D9263B506A
:100F9800DA22DF5000082A24396E20EE16F03A5083
:100FA800D9263B50DA22DF502A6ED8902A32D890C0
:100FB8002A32D8902A3000083924396E20EE16F0EB
:100FC8003A50D9263B50DA223950DF2639BE396CDF
:100FD80020EE17F03A50D9263B50DA22DF502A6E1D
:100FE800D8902A32D8902A3000083924396E20EE59
:100FF80017F03A50D9263B50DA223950DF2620EE36
:1010080018F03A50D9263B50DA2200EE17F03A5041
:10101800E9263B50EA22EF502A6E00EE16F03A50CD
:10102800E9263B50EA22EF502B6ED8902B32D8900D
:101038002B32D8902B302A24DF6E010E0001FB6F73
:1010480020EE18F03A50D9263B50DA2200EE1AF07A
:101058003A50E9263B50EA22DFCFEFFF20EE10F0AE
:101068003A50D9263B50DA22000EDE6E000EDD6EB5
:10107800FAD30001FBA1FBEF0DF020EE19F03A5076
:10108800D9263B50DA22030EDF6E400E0001FB6FBB
:1010980020EE10F03A50D9263B50DA22000EDE6ED0
:1010A800000EDD6E0001F6510001F711D8B408D02A
:1010B8000001FB83F6C00BF0F7C00CF01BEC48F006
:1010C800000E01014F6F000E4E6F65EC16F056D200
:1010D8000001FBA14AD120EE21F07C50D9267D5099
:1010E800DA22DF503F0B120AD8A43FD120EE20F0BD
:1010F8007C50D9267D50DA22DF502A6EF00E2A164F
:10110800500E2A64D2D0000E0001FC6FA6D0000158
:10111800FC512A6E2B6A280E2A26000E2B222A50F2
:101128007C24D96E2B507D20DA6EDF500001FA6FD7
:101138000001FA510001D8B4B8D00001FA05D8A4CA
:1011480003D00001FC2B89D0020E0001FA19D8A4A3
:1011580062D00001FC512A6E2B6A290E2A26000E45
:101168002B222A507C24D96E2B507D20DA6E040E57
:10117800DE18D8A450D00001FC512A6E2B6A2A0E22
:101188002A26000E2B222A507C24D96E2B507D2033
:10119800DA6EDF502C6E2C502E6E2D6A0001FC5139
:1011A8002F6E306A2B0E2F26000E30222F507C24F3
:1011B800D96E30507D20DA6EDF50316E31502D10EF
:1011C8000001F26F2E500001F36F0001F3510AE1A4
:1011D800680E0001F25DD8B005D0F2C036F0F3C059
:1011E80037F004D0000E376E670E366E20EE12F020
:1011F8003A50D9263B50DA2236C0DEFF37C0DDFF31
:1012080000EE14F03A50E9263B50EA22DECFEEFF1A
:10121800DDCFEDFF4AD00001FC512A6E2B6A290E62
:101228002A26000E2B222A507C24D96E2B507D2092
:10123800DA6EDF50D8B439D00001FC512A6E2B6A1F
:10124800290E2A26000E2B222A507C24D96E2B50D8
:101258007D20DA6EDF500001FC27EC0E2A6EFF0EAF
:101268002B6E20EE20F07C50D9267D50DA22DF50FC
:101278002C6E2C380F0B2D6E2E6AD8902D362E36EC
:10128800D8902D362E362A502D262B502E2200018E
:10129800FC512F6E306A2D502F5C3050800A316E11
:1012A8002E50800A3158D8A032D720EE19F03A5083
:1012B800D9263B50DA22030EDF6E20EE18F07C5060
:1012C800D9267D50DA2200EE08F03A50E9263B5044
:1012D800EA22DFCFEFFF20EE19F07C50D9267D50AF
:1012E800DA2200EE09F03A50E9263B50EA22DFCF35
:1012F800EFFF20EE1AF07C50D9267D50DA2200EE5E
:101308000AF03A50E9263B50EA22DFCFEFFF20EE01
:101318001BF07C50D9267D50DA2200EE0BF03A50B3
:10132800E9263B50EA22DFCFEFFF000E0C6E010EDC
:101338000B6E1BEC48F0420E0001FB6F20EE10F024
:101348003A50D9263B50DA22000EDE6E000EDD6ED2
:10135800000E0001F76F000EF66F000E01014F6FCF
:10136800000E4E6F65EC16F009D1200E0001FB6FE0
:1013780065EC16F0000120EE19F0F451D926F5516C
:10138800DA22000EDF6E22EF03F020EE21F07C500F
:10139800D9267D50DA22DFA04BD020EE19F03A5042
:1013A800D9263B50DA22DFB843D020EE10F03A506D
:1013B800D9263B50DA22DE50DE10D8A4FBEF0DF020
:1013C800010E0001F6250B6E000E0001F7210C6ED0
:1013D8001BEC48F00001FB890001F6510001F711F0
:1013E800D8B402D00001FB8365EC16F020EE10F0B3
:1013F8003A50D9263B50DA22010EDE6E000EDD6E21
:1014080020EE19F03A50D9263B50DA22080EDF6E4A
:1014180020EE1BF03A50D9263B50DA22000EDF6E40
:1014280020EE21F07C50D9267D50DA22110E4BD2C5
:1014380020EE21F07C50D9267D50DA22DFAA3ED05A
:1014480020EE26F07C50D9267D50DA22DF502A6E15
:101458002A502C6E2B6A20EE27F07C50D9267D501E
:10146800DA22DF502D6E2D502B12000E2C122B502D
:10147800010148250101486F2C5001014921010152
:10148800496F20EE26F07C50D9267D50DA22DF50B5
:101498002A6E2A502C6E2B6A20EE27F07C50D92613
:1014A8007D50DA22DF502D6E2D502B12000E2C129B
:1014B8002B500001F65F2C500001F75B0001F6513C
:1014C8000001F711D8B410D020EE19F03A50D926FF
:1014D8003B50DA22DFB808D00001FB83F6C00BF0DE
:1014E800F7C00CF01BEC48F020EE23F07C50D92616
:1014F8007D50DA22DF502A6E20EE22F07C50D92669
:101508007D50DA22DF502B6E2A500001F26F2BC07B
:10151800F3F020EE14F03A50D9263B50DA220001BD
:10152800F251DE5C0001F351DE58D8A006D000016C
:10153800F2510001F311D8A40AD020EE14F03A5069
:10154800D9263B50DA22DECFF2F0DDCFF3F020EEE1
:1015580012F03A50D9263B50DA22F2C0DEFFF3C02F
:10156800DDFFFBC02AF0030E2A16D8B440D3000EC4
:1015780001014F6F000E4E6F65EC16F00001FBABDA
:101588000FD0000E01014F6F000E4E6F20EE19F0C4
:101598003A50D9263B50DA22000EDF6ED7EF00F022
:1015A8000001FBA917D0000E01014F6F000E4E6F0E
:1015B80020EE10F03A50D9263B50DA22010EDE6EAA
:1015C800000EDD6E20EE19F03A50D9263B50DA2293
:1015D800040E1DD701014E5101014F11D8B444D05A
:1015E8000001FBA10AD020EE10F03A50D9263B505A
:1015F800DA22000EDE6E000EDD6E20EE10F03A509C
:10160800D9263B50DA22DE50DE10D8A423D020EEB3
:1016180012F03A50D9263B50DA2201014E51DE5CD5
:1016280001014F51DE58D8B00AD020EE12F03A50DE
:10163800D9263B50DA22DECF4EF1DDCF4FF120EE36
:1016480010F03A50D9263B50DA224EC1DEFF4FC186
:10165800DDFF0AD020EE10F03A50D9263B50DA22AE
:10166800DECF4EF1DDCF4FF120EE1BF03A50D926F8
:101678003B50DA22000EDF6E4CC148F14DC149F1F2
:1016880001014E5101014F11D8B424D020EE10F0C1
:101698003A50D9263B50DA22DE50DE10D8B41AD0A0
:1016A80020EE10F03A50D9263B50DA22DECF2AF04D
:1016B800DDCF2BF0280E2A240001F66F000E2B2018
:1016C8000001F76F20EE21F07C50D9267D50DA22F8
:1016D800180E0FD00001FBA38AD2000E0001F76F8D
:1016E800280EF66F20EE21F07C50D9267D50DA22A4
:1016F800100EDF6EEED00001FBA179D220EE19F0BA
:101708003A50D9263B50DA22000EDF6E100E000147
:10171800FB6F65EC16F06BD20001F6510001F71172
:10172800D8B406D0F6C00BF0F7C00CF01BEC48F0AC
:1017380020EE21F07C50D9267D50DA22DFA032D06D
:101748000001FBA11BD020EE19F03A50D9263B50DE
:10175800DA22070EDF6E20EE1AF03A50D9263B50F7
:10176800DA22000EDF6E20EE10F03A50D9263B50F8
:10177800DA22000EDE6E000EDD6E08D020EE19F0C3
:101788003A50D9263B50DA22060EDF6E000E0C6E58
:10179800010E0B6E1BEC48F0100E0001FB6F65ECA0
:1017A80016F08AD00001FBA113D020EE19F03A50B0
:1017B800D9263B50DA22050EDF6E20EE10F03A50A3
:1017C800D9263B50DA22000EDE6E000EDD6E0FD2F7
:1017D8000001F6510001F711D8A46ED008D200011B
:1017E800F6510001F711D8B406D0F6C00BF0F7C0D7
:1017F8000CF01BEC48F020EE21F07C50D9267D50EF
:10180800DA22DFA0E5D720EE19F03A50D9263B506E
:10181800DA22070EDF6E20EE1AF03A50D9263B5036
:10182800DA22000EDF6E000E0C6E010E0B6E1BEC42
:1018380048F0100E0001FB6F65EC16F03DD000017A
:10184800FBA1D5D120EE19F03A50D9263B50DA2227
:10185800070EDF6E20EE1AF03A50D9263B50DA22F6
:10186800000EDF6EC4D120EE19F03A50D9263B5055
:10187800DA22DF500F0B2A6E2B6A2B50000AD8A4ED
:10188800B6D12A50010AD8B43DEF08F0030AD8B4FB
:101898001FD4010AD8B479D5070AD8B43DD7010AAC
:1018A800D8B49DD7030AD8B4CAD7010AD8B404D08B
:1018B8000F0AD8B420D79BD120EE21F07C50D9262E
:1018C8007D50DA22100EDF6E000E0001F76F280E31
:1018D800F66F20EE20F07C50D9267D50DA22500E8B
:1018E800DF6E20EE08F03A50D9263B50DA2200EE9F
:1018F8001CF07C50E9267D50EA22DFCFEFFF20EE76
:1019080009F03A50D9263B50DA2200EE1DF07C50FF
:10191800E9267D50EA22DFCFEFFF20EE0AF03A50A9
:10192800D9263B50DA2200EE1EF07C50E9267D5085
:10193800EA22DFCFEFFF20EE0BF03A50D9263B50DA
:10194800DA2200EE1FF07C50E9267D50EA22DFCF34
:10195800EFFF20EE0CF03A50D9263B50DA2200EE89
:1019680018F07C50E9267D50EA22DFCFEFFF20EE09
:101978000DF03A50D9263B50DA2200EE19F07C508F
:10198800E9267D50EA22DFCFEFFF20EE0EF03A5035
:10199800D9263B50DA2200EE1AF07C50E9267D5019
:1019A800EA22DFCFEFFF20EE0FF03A50D9263B5066
:1019B800DA2200EE1BF07C50E9267D50EA22DFCFC8
:1019C800EFFF20EE09F07C50D9267D50DA22060E72
:1019D800DF6E20EE04F03A50D9263B50DA2200EEB2
:1019E80014F07C50E9267D50EA22DECFEEFFDDCFF1
:1019F800EDFF20EE06F03A50D9263B50DA2200EEF1
:101A080016F07C50E9267D50EA22DECFEEFFDDCFCE
:101A1800EDFF20EE0CF07C50D9267D50DA22EEC086
:101A2800DEFFEFC0DDFF20EE0EF07C50D9267D50A2
:101A3800DA22F0C0DEFFF1C0DDFF3AC0D9FF3BC0BB
:101A4800DAFF00EE10F07C50E9267D50EA22DECF66
:101A5800EEFFDDCFEDFF20EE02F03A50D9263B50E5
:101A6800DA2200EE12F07C50E9267D50EA22DECF21
:101A7800EEFFDDCFEDFF20EE19F03A50D9263B50AE
:101A8800DA22DFA811D020EE23F07C50D9267D5031
:101A9800DA22000EDF6E00EE22F07C50E9267D503F
:101AA800EA22DFCFEFFF10D020EE22F07C50D926BB
:101AB8007D50DA22000EDF6E20EE23F07C50D9260E
:101AC8007D50DA22670EDF6E20EE08F07C50D926B2
:101AD8007D50DA22400EDF6E20EE02F07C50D926CF
:101AE8007D50DA220001F751DF6E20EE03F07C50C2
:101AF800D9267D50DA22F6C0DFFF20EE27F07C5091
:101B0800D9267D50DA22000EDF6E00EE26F07C50DA
:101B1800E9267D50EA22DFCFEFFF20EE24F07C504B
:101B2800D9267D50DA22000EDE6E000EDD6EF6EC50
:101B38004FF01E1C2A6E1F1C2B6E20EE24F07C50CA
:101B4800D9267D50DA222AC0DEFF2BC0DDFF7CC0FB
:101B5800D9FF7DC0DAFF450EDF6E20EE01F07C5024
:101B6800D9267D50DA22000EDF6E20EE07F07C5079
:101B7800D9267D50DA22000EDF6E00EE06F07C508A
:101B8800E9267D50EA22DFCFEFFF01013C4B3D2BD8
:101B980020EE04F07C50D9267D50DA2201013D5117
:101BA800DF6E20EE05F07C50D9267D50DA223CC14C
:101BB800DFFF20EE0AF07C50D9267D50DA22000E95
:101BC800DE6E000EDD6E4AEC4BF0131C2A6E141C00
:101BD8002B6E20EE0AF07C50D9267D50DA222AC0DE
:101BE800DEFF2BC0DDFF000E0001FB6F1200000EB0
:101BF8000001F76F000EF66F000E0001FB6F120078
:101C080052EF16F0250E3E18D8B438D020EE02F068
:101C18001D50D9261E50DA22DE50DE10D8B417D057
:101C280020EE02F01D50D9261E50DA22DECF23F016
:101C3800DDCF24F002D852EF16F00500FA6E2350DB
:101C4800FD6E2450FE6EFF6AFA503E5012001DC011
:101C5800D9FF1EC0DAFFDECF23F0DDCF24F023C08A
:101C6800D9FF24C0DAFF3EC0DFFF1DC0D9FF1EC068
:101C7800DAFFDE2A000EDD2252EF16F0000E3D6E6E
:101C8800000E3C6E000E406E000E3F6E09D03F867F
:101C980005D03F8003D0408601D03F841F4A202AC8
:101CA8001FC0F6FF20C0F7FFF86A0800F550200AA9
:101CB800D8B4EFD7030AD8B4EED70E0AD8B4E7D70A
:101CC8001D0AD8B4EAD73FB63F941FC0F6FF20C01C
:101CD800F7FFF86A0800F55021EC4FF0D8A035D08E
:101CE800000E3D6E000E3C6E3CC003F03DC004F09B
:101CF800000E066E0A0E056EA8EC4EF003C03CF00E
:101D080004C03DF0D00E236EFF0E246E1FC0F6FFF8
:101D180020C0F7FFF86A0800F550256E266A2350A0
:101D280025262450262225503C2626503D221F4A8F
:101D3800202A1FC0F6FF20C0F7FFF86A0800F550F8
:101D480021EC4FF0D8A021D0CFD71FC0F6FF20C07C
:101D5800F7FFF86A0800F5502A0AD8A416D021C05F
:101D6800D9FF22C0DAFFDFCF23F0020EDE26DFCF55
:101D780024F0000EDD2223C0D9FF24C0DAFFDECF15
:101D88003CF0DDCF3DF01F4A202A1FC0F6FF20C0DF
:101D9800F7FFF86A0800F5502E0AD8A451D0408CF5
:101DA8001F4A202A1FC0F6FF20C0F7FFF86A080064
:101DB800F5502A0AD8A417D021C0D9FF22C0DAFFCB
:101DC800DFCF23F0020EDE26DFCF24F0000EDD2267
:101DD80023C0D9FF24C0DAFFDECF3AF0DDCF3BF0D5
:101DE8001F4A202A98D1000E3B6E000E3A6E1CD076
:101DF8003AC003F03BC004F0000E066E0A0E056EF2
:101E0800A8EC4EF01FC0F6FF20C0F7FFF86A0800E4
:101E1800F5500326000E0422D00E03243A6EFF0E5E
:101E280004203B6E1F4A202A1FC0F6FF20C0F7FF80
:101E3800F86A0800F55021EC4FF0D8A06CD1D8D73B
:101E4800000E3B6E000E3A6E66D13F8864D13F8C1F
:101E580090D1408A3F8A3F8E8CD121C0D9FF22C0C1
:101E6800DAFFDFCF23F0020EDE26DFCF24F0000EEC
:101E7800DD2223C0D9FF24C0DAFFDECF32F0DDCF68
:101E880033F032503310D8A404D0D80E326EFF0E7F
:101E9800336E000E356E000E346E02D0344A352A89
:101EA80034503224236E35503320246E23C0F6FF7D
:101EB80024C0F7FF000EF86E0F0EF76403D0080079
:101EC800F55005D0F6CFE9FFF7CFEAFFEF5000094C
:101ED800D8A4E4D73A503B10D8B40AD034503A5C6E
:101EE80035503B58D8B004D03AC034F03BC035F038
:101EF8003C50345C3D503558D8B005D034503C5E29
:101F080035503D5A04D0000E3D6E000E3C6E3FA683
:101F180036D098D020EE02F01D50D9261E50DA2275
:101F2800DE50DE10D8B416D020EE02F01D50D926AF
:101F38001E50DA22DECF23F0DDCF24F001D81FD0E7
:101F48000500FA6E2350FD6E2450FE6EFF6AFA50AB
:101F5800200E12001DC0D9FF1EC0DAFFDECF23F00D
:101F6800DDCF24F023C0D9FF24C0DAFF200EDF6EB6
:101F78001DC0D9FF1EC0DAFFDE2A000EDD223C0696
:101F8800D8A03D063C28C6E13D28D8B45BD0C2D7CE
:101F980020EE02F01D50D9261E50DA22DE50DE1047
:101FA800D8B429D020EE02F01D50D9261E50DA22CE
:101FB800DECF23F0DDCF24F001D81AD00500FA6E69
:101FC8002350FD6E2450FE6EFF6AFA5032C0F6FFB1
:101FD80033C0F7FF000EF86E0F0EF76403D0080049
:101FE800F55005D0F6CFE9FFF7CFEAFFEF50120022
:101FF800324A332A27D032C0F6FF33C0F7FF000E2B
:10200800F86E1DC0D9FF1EC0DAFFDECF23F0DDCF8A
:1020180024F023C0D9FF24C0DAFF0F0EF76403D0E1
:102028000800F55005D0F6CFE9FFF7CFEAFFEF50EB
:10203800DF6E324A332A1DC0D9FF1EC0DAFFDE2AFE
:10204800000EDD223406D8A035063428A1E1352853
:10205800D8A49ED73FB637D052EF16F020EE02F044
:102068001D50D9261E50DA22DE50DE10D8B416D004
:1020780020EE02F01D50D9261E50DA22DECF23F0C2
:10208800DDCF24F001D81FD00500FA6E2350FD6E75
:102098002450FE6EFF6AFA50200E12001DC0D9FFB0
:1020A8001EC0DAFFDECF23F0DDCF24F023C0D9FF36
:1020B80024C0DAFF200EDF6E1DC0D9FF1EC0DAFF74
:1020C800DE2A000EDD223C06D8A03D063C28C6E1EB
:1020D8003D28D8B452EF16F0C1D721C0D9FF22C08D
:1020E800DAFFDFCF23F0020EDE26DFCF24F0000E6A
:1020F800DD2223C0D9FF24C0DAFFDF503E6E3E0E3A
:10210800326E000E336E000E356E010E346EE2D65E
:10211800C00E3F122ED01FC0F6FF20C0F7FF1F4A87
:10212800202AF86A0800F5CF3EF03E50000AD8B4DD
:1021380060EF16F0580AD8B48DD63B0AD8B4CDD77C
:10214800070AD8B416D00D0AD8B413D0050AD8B4E3
:102158007CD6030AD8B47BD61F0AD8B47AD6030A29
:10216800D8B47BD6060AD8B4D3D70D0AD8B473D658
:10217800C6D7C00E3F14236E000E4014246E2350A1
:102188002410D8A441D03FA819D021C0D9FF22C01B
:10219800DAFFDFCF23F0040EDE26DFCF24F0000EB7
:1021A800DD2223C0D9FF24C0DAFFDECF36F0DECF30
:1021B80037F0DECF38F0DECF39F019D021C0D9FFA3
:1021C80022C0DAFFDFCF23F0020EDE26DFCF24F0B5
:1021D800000EDD2223C0D9FF24C0DAFFDECF36F09F
:1021E800DDCF37F0000E37BEFF0E386E396E39AED0
:1021F80041D0030E3F12391E381E371E366C000EB2
:1022080037223822392236D040AA3FA819D021C017
:10221800D9FF22C0DAFFDFCF23F0040EDE26DFCF9E
:1022280024F0000EDD2223C0D9FF24C0DAFFDECF60
:1022380036F0DECF37F0DECF38F0DECF39F01AD007
:1022480021C0D9FF22C0DAFFDFCF23F0020EDE263D
:10225800DFCF24F0000EDD2223C0D9FF24C0DAFF2F
:10226800DECF25F0DDCF26F025C036F026C037F0CA
:10227800386A396A3A503B10D8A46CD036503710B7
:1022880038103910D8A466D03A4A3B2A63D0010ED8
:102298003E6E0A0E3E18D8B46BD03E50040D4F0E59
:1022A800F324F66EF60EF420F76EF86A000EF822A4
:1022B8000900F550365C0900F55037580900F5500B
:1022C80038580900F5503958D8A052D03E2AE1D7DD
:1022D800010E3E6E080E3E18D8B44AD03E50040D8A
:1022E800770EF324F66EF60EF420F76EF86A000EF9
:1022F800F8220900F550365C0900F55037580900F6
:10230800F55038580900F5503958D8A031D03E2A30
:10231800E1D7010E3E6E0C0E3E18D8B429D03E50BF
:10232800040D1F0EF324F66EF60EF420F76EF86A0D
:10233800000EF8220900F550365C0900F5503758B0
:102348000900F55038580900F5503958D8A010D070
:102358003E2AE1D73F50C00B000AD8B498D7400AAC
:10236800D8B4D7D7C00AD8B4B3D7400AD8B48FD70F
:10237800800E3EBE7F0E236E3A503E5C3B50800A74
:102388002358D8B003D03AC03EF010D03B50800A52
:10239800236E3E503A5C800E3EBE7F0E2358D8B066
:1023A80005D03E503A6E3B6A3ABE3B063C503D1063
:1023B800D8B40DD0030E3F14236E000E4014246EC3
:1023C80023502410D8B403D03C06D8A03D0640AC16
:1023D80013D03C503A5C3B50800A236E3D50800A33
:1023E8002358D8B005D03A503C5E3B503D5A04D0F3
:1023F800000E3D6E000E3C6EC40E236E080E246E59
:102408003FC025F040C026F023502516245026163C
:10241800400E25180CE1080E2618D8A408D03C5008
:102428003D10D8B428D03C06D8A03D0624D0C00E14
:10243800236E080E246E3FC025F040C026F02350BE
:10244800251624502616800E251815E1080E261884
:10245800D8A411D03DBE0BD03D5004E1030E3C5C26
:10246800D8A005D0FE0E3C26FF0E3D2204D0000E5B
:102478003D6E000E3C6E800E3EBE7F0E236E3C50BD
:102488003E5C3D50800A2358D8B007D03E503C5E91
:10249800000E3EBEFF0E3D5A04D0000E3D6E000EEB
:1024A8003C6E3FA439D1030E3F14236E000E401436
:1024B800246E23502410D8B436D020EE02F01D50DC
:1024C800D9261E50DA22DE50DE10D8B416D020EEFF
:1024D80002F01D50D9261E50DA22DECF23F0DDCFC0
:1024E80024F001D8DCD00500FA6E2350FD6E24508C
:1024F800FE6EFF6AFA502D0E12001DC0D9FF1EC0D5
:10250800DAFFDECF23F0DDCF24F023C0D9FF24C0CB
:10251800DAFF2D0E37D01DC0D9FF1EC0DAFFDE2A24
:10252800000EDD22BCD03FA02FD020EE02F01D50BF
:10253800D9261E50DA22DE50DE10D8B416D020EE8E
:1025480002F01D50D9261E50DA22DECF23F0DDCF4F
:1025580024F001D8A4D00500FA6E2350FD6E245053
:10256800FE6EFF6AFA50200E12001DC0D9FF1EC071
:10257800DAFFDECF23F0DDCF24F023C0D9FF24C05B
:10258800DAFF200EDF6EC7D7C00E236E080E246E4A
:102598003FC025F040C026F02350251624502616AB
:1025A800800E25187CE1080E2618D8A478D020EED5
:1025B80002F01D50D9261E50DA22DE50DE10D8B4A3
:1025C80016D020EE02F01D50D9261E50DA22DECF9A
:1025D80023F0DDCF24F001D81FD00500FA6E235078
:1025E800FD6E2450FE6EFF6AFA50300E12001DC0B8
:1025F800D9FF1EC0DAFFDECF23F0DDCF24F023C0E1
:10260800D9FF24C0DAFF300EDF6E1DC0D9FF1EC00F
:10261800DAFFDE2A000EDD2220EE02F01D50D92658
:102628001E50DA22DE50DE10D8B420D03FBA04D0D3
:10263800000E296E780E03D0000E296E580E286EF3
:1026480020EE02F01D50D9261E50DA22DECF23F0EC
:10265800DDCF24F001D823D00500FA6E2350FD6E9B
:102668002450FE6EFF6AFA50285012003FBA04D078
:10267800000E2B6E780E03D0000E2B6E580E2A6EAD
:102688001DC0D9FF1EC0DAFFDECF23F0DDCF24F056
:1026980023C0D9FF24C0DAFF2AC0DFFF3CD73C5053
:1026A8003D10D8B4AFD220EE02F01D50D9261E50EE
:1026B800DA22DE50DE10D8B416D020EE02F01D501B
:1026C800D9261E50DA22DECF23F0DDCF24F001D840
:1026D8001FD00500FA6E2350FD6E2450FE6EFF6A6F
:1026E800FA50300E12001DC0D9FF1EC0DAFFDECF2F
:1026F80023F0DDCF24F023C0D9FF24C0DAFF300E49
:10270800DF6E1DC0D9FF1EC0DAFFDE2A000EDD22F3
:102718003C06D8A03D06C3D73C503D10D8A43FB6D0
:102728003CD020EE02F01D50D9261E50DA22DE5091
:10273800DE10D8B416D020EE02F01D50D9261E5057
:10274800DA22DECF23F0DDCF24F001D81FD0050038
:10275800FA6E2350FD6E2450FE6EFF6AFA50200E6A
:1027680012001DC0D9FF1EC0DAFFDECF23F0DDCF77
:1027780024F023C0D9FF24C0DAFF200EDF6E1DC06D
:10278800D9FF1EC0DAFFDE2A000EDD223C06D8A0E3
:102798003D063C503D10D8A4C4D7030E3F14236E09
:1027A800000E4014246E23502410D8B436D020EEE6
:1027B80002F01D50D9261E50DA22DE50DE10D8B4A1
:1027C80016D020EE02F01D50D9261E50DA22DECF98
:1027D80023F0DDCF24F001D851D00500FA6E235044
:1027E800FD6E2450FE6EFF6AFA502D0E12001DC0B9
:1027F800D9FF1EC0DAFFDECF23F0DDCF24F023C0DF
:10280800D9FF24C0DAFF2D0E37D01DC0D9FF1EC056
:10281800DAFFDE2A000EDD2231D03FA02FD020EED5
:1028280002F01D50D9261E50DA22DE50DE10D8B430
:1028380016D020EE02F01D50D9261E50DA22DECF27
:1028480023F0DDCF24F001D819D00500FA6E23500B
:10285800FD6E2450FE6EFF6AFA50200E12001DC055
:10286800D9FF1EC0DAFFDECF23F0DDCF24F023C06E
:10287800D9FF24C0DAFF200EDF6EC7D7C00E236E43
:10288800080E246E3FC025F040C026F023502516C0
:1028980024502616400E251833E1080E2618D8A411
:1028A8002FD020EE02F01D50D9261E50DA22DE501D
:1028B800DE10D8B416D020EE02F01D50D9261E50D6
:1028C800DA22DECF23F0DDCF24F001D89BD105003A
:1028D800FA6E2350FD6E2450FE6EFF6AFA50300ED9
:1028E80012001DC0D9FF1EC0DAFFDECF23F0DDCFF6
:1028F80024F023C0D9FF24C0DAFF300EDF6E7BD16D
:10290800C00E236E080E246E3FC025F040C026F08E
:102918002350251624502616800E251803E1080E8C
:102928002618D8A46FD120EE02F01D50D9261E50CB
:10293800DA22DE50DE10D8B416D020EE02F01D5098
:10294800D9261E50DA22DECF23F0DDCF24F001D8BD
:102958001FD00500FA6E2350FD6E2450FE6EFF6AEC
:10296800FA50300E12001DC0D9FF1EC0DAFFDECFAC
:1029780023F0DDCF24F023C0D9FF24C0DAFF300EC6
:10298800DF6E1DC0D9FF1EC0DAFFDE2A000EDD2271
:1029980020EE02F01D50D9261E50DA22DE50DE103D
:1029A800D8B420D03FBA04D0000E2D6E780E03D0D4
:1029B800000E2D6E580E2C6E20EE02F01D50D926FA
:1029C8001E50DA22DECF23F0DDCF24F001D81AD151
:1029D8000500FA6E2350FD6E2450FE6EFF6AFA5011
:1029E8002C5012003FBA04D0000E2F6E780E03D080
:1029F800000E2F6E580E2E6E1DC0D9FF1EC0DAFFB6
:102A0800DECF23F0DDCF24F023C0D9FF24C0DAFFC6
:102A18002EC0DFFFF0D03AC023F03BC024F0D8909E
:102A280023362436D890233624364F0E2324F66EC8
:102A3800F60E2420F76EF86A000EF8220900F5CF8A
:102A48000BF00900F5CF0CF00900F5CF0DF00A00E6
:102A5800F5CF0EF036C007F037C008F038C009F0DF
:102A680039C00AF024EC45F007C014F008C015F08E
:102A780009C016F00AC017F00A0E186E000E196E7B
:102A8800000E1A6E000E1B6EE8EC47F0145074D05E
:102A980036C007F037C008F038C009F039C00AF06E
:102AA8003AC023F03BC024F0D89023362436D8907F
:102AB80023362436770E2324F66EF60E2420F76E7E
:102AC800F86A000EF8220900F5CF0BF00900F5CFDF
:102AD8000CF00900F5CF0DF00A00F5CF0EF024EC4C
:102AE80045F007500F0B276E3FBA04D06D0E306EBD
:102AF800FF0E03D05C0E306EFF0E316E2750010DB5
:102B080030C023F031C024F0F3502326F45024229F
:102B180023C0F6FF24C0F7FFF86A0800F5CF3EF09F
:102B28003CD036C007F037C008F038C009F039C0CB
:102B38000AF03AC023F03BC024F0D890233624365C
:102B4800D890233624361F0E2324F66EF60E242042
:102B5800F76EF86A000EF8220900F5CF0BF00900AD
:102B6800F5CF0CF00900F5CF0DF00A00F5CF0EF007
:102B780024EC45F00750070B300F3E6E0ED03F5047
:102B8800C00B000AD8B447D7400AD8B4CAD7C00A7D
:102B9800D8B47ED7400AD8B43ED720EE02F01D50F4
:102BA800D9261E50DA22DE50DE10D8B416D020EE18
:102BB80002F01D50D9261E50DA22DECF23F0DDCFD9
:102BC80024F001D81FD00500FA6E2350FD6E245062
:102BD800FE6EFF6AFA503E5012001DC0D9FF1EC09B
:102BE800DAFFDECF23F0DDCF24F023C0D9FF24C0E5
:102BF800DAFF3EC0DFFF1DC0D9FF1EC0DAFFDE2AA4
:102C0800000EDD223A06D8A03B063A28B8E13B2858
:102C1800D8A4B5D73FB63DBE41D03D5003E13C04F2
:102C2800D8A03CD020EE02F01D50D9261E50DA2242
:102C3800DE50DE10D8B416D020EE02F01D50D92692
:102C48001E50DA22DECF23F0DDCF24F001D81FD0CA
:102C58000500FA6E2350FD6E2450FE6EFF6AFA508E
:102C6800200E12001DC0D9FF1EC0DAFFDECF23F0F0
:102C7800DDCF24F023C0D9FF24C0DAFF200EDF6E99
:102C88001DC0D9FF1EC0DAFFDE2A000EDD223C0679
:102C9800D8A03D063C503D10D8A4C4D71FC0F6FFAD
:102CA80020C0F7FF1F4A202AF86A0800F5CF3EF037
:102CB8003E50D8A406EF0EF0000E1E6E000E1D6EDC
:102CC8001200000120EE1CF0F451D926F551DA2249
:102CD800DECF28F0DDCF29F028502910D8A418D04D
:102CE8000001FBAD15D06EEC41F003C028F004C024
:102CF80029F028502910D8B40BD0000120EE1CF080
:102D0800F451D926F551DA2228C0DEFF29C0DDFFAB
:102D180028502910D8B412000001FBA3FFD1E90EF6
:102D28002824146E000E2920156E14C0F6FF15C055
:102D3800F7FF000EF86E0F0EF76403D00800F55089
:102D480005D0F6CFE9FFF7CFEAFFEF500009D8B476
:102D580069D0E80E2824146E000E2920156E14C0C0
:102D6800F6FF15C0F7FF000EF86E0F0EF76404D0DB
:102D7800000EF56E0C0006D0F6CFE9FFF7CFEAFF9C
:102D8800000EEF6E030E2824146E000E2920156E17
:102D980014C0F6FF15C0F7FF000EF86E0F0EF764AB
:102DA80007D0000EF56E0D00000EF56E0C0008D071
:102DB800F6CFE9FFF7CFEAFF000EEE6E000EEF6EDA
:102DC800090E2824146E000E2920156E14C0F6FF73
:102DD80015C0F7FF000EF86E0F0EF76404D0000E52
:102DE800F56E0C0006D0F6CFE9FFF7CFEAFF000E2C
:102DF800EF6E020E2824146E000E2920156E14C0E2
:102E0800F6FF15C0F7FF000EF86E0F0EF76404D03A
:102E1800000EF56E0C0006D0F6CFE9FFF7CFEAFFFB
:102E2800000EEF6E0001F6510001F711D8B4120040
:102E380028C0F6FF29C0F7FF000EF86E0F0EF764E2
:102E480003D00800F55005D0F6CFE9FFF7CFEAFF29
:102E5800EF50146E600E1416D8A41200000120EE74
:102E680019F0F451D926F551DA22000EDB8828C072
:102E7800F6FF29C0F7FF000EF86E0F0EF76405D0B5
:102E88007F0E0800F5160C0006D0F6CFE9FFF7CF45
:102E9800EAFF7F0EEF16090E2824146E000E292073
:102EA800156E14C0F6FF15C0F7FF000EF86E0F0E72
:102EB800F76404D0000EF56E0C0006D0F6CFE9FFDB
:102EC800F7CFEAFF000EEF6EE5EC4FF00A0E28246C
:102ED800146E000E2920156E14C0F6FF15C0F7FFFA
:102EE800000EF86E0F0EF7640DD003C0F5FF0D004D
:102EF80004C0F5FF0D0005C0F5FF0D0006C0F5FF85
:102F08000C000CD0F6CFE9FFF7CFEAFF03C0EEFFC5
:102F180004C0EEFF05C0EEFF06C0EFFF0A0E28242E
:102F2800146E000E2920156E14C0F6FF15C0F7FFA9
:102F3800000EF86E0F0EF7640DD00900F5CF16F0ED
:102F48000900F5CF17F00900F5CF18F00900F5CF03
:102F580019F00CD0F6CFE9FFF7CFEAFFEECF16F065
:102F6800EECF17F0EECF18F0EECF19F0120E28249E
:102F78001A6E000E29201B6E1AC0F6FF1BC0F7FF41
:102F8800000EF86E0F0EF7640DD016C0F5FF0D0099
:102F980017C0F5FF0D0018C0F5FF0D0019C0F5FFAB
:102FA8000C000CD0F6CFE9FFF7CFEAFF16C0EEFF12
:102FB80017C0EEFF18C0EEFF19C0EFFFE60E282479
:102FC800146E000E2920156E14C0F6FF15C0F7FF09
:102FD800000EF86E0F0EF76407D00900F5CF16F053
:102FE8000900F5CF17F008D0F6CFE9FFF7CFEAFFD1
:102FF800EECF16F0EECF17F0E40E2824186E000E70
:103008002920196E18C0F6FF19C0F7FF000EF86ED8
:103018000F0EF76407D00900F5CF1AF00900F5CFB5
:103028001BF008D0F6CFE9FFF7CFEAFFEECF1AF092
:10303800EECF1BF016501A2617501B227D0E1A26AB
:10304800000E1B221A502824056E1B502920066EDC
:1030580048C107F049C108F0F6C009F0F7C00AF006
:1030680012EC49F0E60E2824146E000E2920156E85
:1030780014C0F6FF15C0F7FF000EF86E0F0EF764C8
:1030880007D00900F5CF16F00900F5CF17F008D0E2
:10309800F6CFE9FFF7CFEAFFEECF16F0EECF17F045
:1030A8000001F65116260001F7511722E60E2824D2
:1030B800186E000E2920196E18C0F6FF19C0F7FF08
:1030C800000EF86E0F0EF76407D016C0F5FF0D005E
:1030D80017C0F5FF0C0008D0F6CFE9FFF7CFEAFFDD
:1030E80016C0EEFF17C0EFFF010E2824146E000E65
:1030F8002920156E14C0F6FF15C0F7FF000EF86EF4
:103108000F0EF76404D0010EF56E0C0006D0F6CF52
:10311800E9FFF7CFEAFF010EEF6E12000001FBB9DD
:1031280006D00001FBBF03D00001FBAB90D0020E1C
:103138002824146E000E2920156E14C0F6FF15C041
:10314800F7FF000EF86E0F0EF76404D0000EF56E50
:103158000C0006D0F6CFE9FFF7CFEAFF000EEF6EBE
:10316800010E2824146E000E2920156E14C0F6FFD7
:1031780015C0F7FF000EF86E0F0EF76403D00800B5
:10318800F55005D0F6CFE9FFF7CFEAFFEF50000979
:10319800D8B43ED0000120EE04F0F451D926F55100
:1031A800DA22DECF14F0DDCF15F0020E2824166ED9
:1031B800000E2920176E16C0F6FF17C0F7FF000E85
:1031C800F86E0F0EF76407D014C0F5FF0D0015C098
:1031D800F5FF0C0008D0F6CFE9FFF7CFEAFF14C0DF
:1031E800EEFF15C0EFFF28C0F6FF29C0F7FF000E5D
:1031F800F86E0F0EF76405D0400E0800F5120C00AB
:1032080006D0F6CFE9FFF7CFEAFF400EEF1213D052
:1032180028C0F6FF29C0F7FF000EF86E0F0EF764FE
:1032280004D0000EF56E0C0006D0F6CFE9FFF7CFFC
:10323800EAFF000EEF6E000120EE1CF0F451D926D3
:10324800F551DA22000EDE6E000EDD6E120000016E
:10325800FBA1F7D028C0F6FF29C0F7FF000EF86ED3
:103268000F0EF76405D07F0E0800F5160C0006D087
:10327800F6CFE9FFF7CFEAFF7F0EEF16E80E282416
:10328800146E000E2920156E14C0F6FF15C0F7FF46
:10329800000EF86E0F0EF76404D0000EF56E0C00E9
:1032A80006D0F6CFE9FFF7CFEAFF000EEF6E030E68
:1032B8002824146E000E2920156E14C0F6FF15C0C0
:1032C800F7FF000EF86E0F0EF76407D0000EF56ECC
:1032D8000D00000EF56E0C0008D0F6CFE9FFF7CF11
:1032E800EAFF000EEE6E000EEF6E090E2824146E33
:1032F800000E2920156E14C0F6FF15C0F7FF000E4A
:10330800F86E0F0EF76404D0000EF56E0C0006D0B0
:10331800F6CFE9FFF7CFEAFF000EEF6E020E282482
:10332800146E000E2920156E14C0F6FF15C0F7FFA5
:10333800000EF86E0F0EF76404D0000EF56E0C0048
:1033480006D0F6CFE9FFF7CFEAFF000EEF6EE5EC07
:103358004FF00A0E2824146E000E2920156E14C092
:10336800F6FF15C0F7FF000EF86E0F0EF7640DD0CC
:1033780003C0F5FF0D0004C0F5FF0D0005C0F5FF03
:103388000D0006C0F5FF0C000CD0F6CFE9FFF7CF13
:10339800EAFF03C0EEFF04C0EEFF05C0EEFF06C063
:1033A800EFFF0A0E2824146E000E2920156E14C093
:1033B800F6FF15C0F7FF000EF86E0F0EF7640DD07C
:1033C8000900F5CF16F00900F5CF17F00900F5CF81
:1033D80018F00900F5CF19F00CD0F6CFE9FFF7CFB8
:1033E800EAFFEECF16F0EECF17F0EECF18F0EECFE3
:1033F80019F0120E28241A6E000E29201B6E1AC00E
:10340800F6FF1BC0F7FF000EF86E0F0EF7640DD025
:1034180016C0F5FF0D0017C0F5FF0D0018C0F5FF29
:103428000D0019C0F5FF0C000CD0F6CFE9FFF7CF5F
:10343800EAFF16C0EEFF17C0EEFF18C0EEFF19C076
:10344800EFFF0001FBB703D00001FBA5E4D2020E99
:103458002824146E000E2920156E14C0F6FF15C01E
:10346800F7FF000EF86E0F0EF76403D00800F55052
:1034780005D0F6CFE9FFF7CFEAFFEF500009D8B43F
:1034880077D0030E2824146E000E2920156E14C060
:10349800F6FF15C0F7FF000EF86E0F0EF76407D0A1
:1034A8000900F5CFF6F00900F5CFF7F008D0F6CF10
:1034B800E9FFF7CFEAFFEECFF6F0EECFF7F0160E02
:1034C8002824106E000E2920116E030E2824146E75
:1034D800000E2920156E14C0F6FF15C0F7FF000E68
:1034E800F86E0F0EF76407D00900F5CF12F0090047
:1034F800F5CF13F008D0F6CFE9FFF7CFEAFFEECF0C
:1035080012F0EECF13F0B4EC4BF0E80E2824146E52
:10351800000E2920156E14C0F6FF15C0F7FF000E27
:10352800F86E0F0EF76404D0010EF56E0C0006D08D
:10353800F6CFE9FFF7CFEAFF010EEF6EE90E282478
:10354800146E000E2920156E14C0F6FF15C0F7FF83
:10355800000EF86E0F0EF76404D0010EF56E0C0025
:1035680006D0F6CFE9FFF7CFEAFF010EEF6E1200A3
:1035780028C0F6FF29C0F7FF000EF86E0F0EF7649B
:1035880003D00800F55005D0F6CFE9FFF7CFEAFFE2
:10359800EF50146E600E1416D8A43DD2090E2824DC
:1035A800146E000E2920156E14C0F6FF15C0F7FF23
:1035B800000EF86E0F0EF76403D00800F55005D022
:1035C800F6CFE9FFF7CFEAFFEF50E806D8A423D2F9
:1035D80028C0F6FF29C0F7FF000EF86E0F0EF7643B
:1035E80003D00800F55005D0F6CFE9FFF7CFEAFF82
:1035F800EF50146E14AE0FD20A0E2824146E000E6B
:103608002920156E14C0F6FF15C0F7FF000EF86EDE
:103618000F0EF7640DD00900F5CF16F00900F5CFAD
:1036280017F00900F5CF18F00900F5CF19F00CD004
:10363800F6CFE9FFF7CFEAFFEECF16F0EECF17F09F
:10364800EECF18F0EECF19F0161E171E181E191E11
:10365800162A000E172218221922E5EC4FF01650F0
:1036680003241A6E175004201B6E185005201C6E78
:10367800195006201D6E0E0E28241E6E000E2920DD
:103688001F6E1EC0F6FF1FC0F7FF000EF86E0F0E6C
:10369800F7640DD00900F5CF20F00900F5CF21F02F
:1036A8000900F5CF22F00900F5CF23F00CD0F6CFB2
:1036B800E9FFF7CFEAFFEECF20F0EECF21F0EECF13
:1036C80022F0EECF23F01A50205C1B5021581C50DA
:1036D80022581D502358D8B09ED1E5EC4FF00A0E61
:1036E8002824146E000E2920156E14C0F6FF15C08C
:1036F800F7FF000EF86E0F0EF7640DD003C0F5FF4C
:103708000D0004C0F5FF0D0005C0F5FF0D0006C053
:10371800F5FF0C000CD0F6CFE9FFF7CFEAFF03C0A6
:10372800EEFF04C0EEFF05C0EEFF06C0EFFF120E6D
:103738002824146E000E2920156E14C0F6FF15C03B
:10374800F7FF000EF86E0F0EF7640DD00900F5CFE5
:1037580016F00900F5CF17F00900F5CF18F00900A9
:10376800F5CF19F00CD0F6CFE9FFF7CFEAFFEECF8F
:1037780016F0EECF17F0EECF18F0EECF19F0161EB8
:10378800171E181E191E162A000E17221822192293
:10379800E5EC4FF0165003241A6E175004201B6EE8
:1037A800185005201C6E195006201D6E1D501C1047
:1037B80006E1300E1A5C750E1B58D8A03BD0090ED6
:1037C8002824146E000E2920156E14C0F6FF15C0AB
:1037D800F7FF000EF86E0F0EF76404D0000EF56EBA
:1037E8000C0006D0F6CFE9FFF7CFEAFF000EEF6E28
:1037F80028C0F6FF29C0F7FF000EF86E0F0EF76419
:1038080004D0000EF56E0C0006D0F6CFE9FFF7CF16
:10381800EAFF000EEF6E000120EE1CF0F451D926ED
:10382800F551DA22000EDE6E000EDD6E200E00016C
:10383800FB6F12000E0E2824146E000E2920156E40
:1038480014C0F6FF15C0F7FF000EF86E0F0EF764F0
:103858000DD00900F5CF16F00900F5CF17F00900D3
:10386800F5CF18F00900F5CF19F00CD0F6CFE9FF25
:10387800F7CFEAFFEECF16F0EECF17F0EECF18F045
:10388800EECF19F0F40E16241A6E010E17201B6ED7
:10389800000E18201C6E000E19201D6E0E0E282416
:1038A8001E6E000E29201F6E1EC0F6FF1FC0F7FFF8
:1038B800000EF86E0F0EF7640DD01AC0F5FF0D005C
:1038C8001BC0F5FF0D001CC0F5FF0D001DC0F5FF66
:1038D8000C000CD0F6CFE9FFF7CFEAFF1AC0EEFFD5
:1038E8001BC0EEFF1CC0EEFF1DC0EFFF0E0E28240C
:1038F800146E000E2920156E14C0F6FF15C0F7FFD0
:10390800000EF86E0F0EF7640DD00900F5CF16F013
:103918000900F5CF17F00900F5CF18F00900F5CF29
:1039280019F00CD0F6CFE9FFF7CFEAFFEECF16F08B
:10393800EECF17F0EECF18F0EECF19F0195018109F
:1039480006E1580E165C1B0E1758D8A009D0580E61
:10395800246E1B0E256E000E266E000E276E28D0D4
:103968000E0E2824146E000E2920156E14C0F6FFC2
:1039780015C0F7FF000EF86E0F0EF7640DD00900A2
:10398800F5CF24F00900F5CF25F00900F5CF26F092
:103998000900F5CF27F00CD0F6CFE9FFF7CFEAFF03
:1039A800EECF24F0EECF25F0EECF26F0EECF27F0C5
:1039B8000E0E2824146E000E2920156E14C0F6FF72
:1039C80015C0F7FF000EF86E0F0EF7640DD024C077
:1039D800F5FF0D0025C0F5FF0D0026C0F5FF0D0011
:1039E80027C0F5FF0C000CD0F6CFE9FFF7CFEAFFB0
:1039F80024C0EEFF25C0EEFF26C0EEFF27C0EFFF74
:103A08000001FB83000120EE19F0F451D926F5518D
:103A1800DA22EF0EDF1628C0F6FF29C0F7FF000EE6
:103A2800F86E0F0EF76403D00800F55005D0F6CFF6
:103A3800E9FFF7CFEAFFEF50146E14AA1200020E46
:103A48002824146E000E2920156E14C0F6FF15C028
:103A5800F7FF000EF86E0F0EF76403D00800F5505C
:103A680005D0F6CFE9FFF7CFEAFFEF500009D8A459
:103A780022D028C0F6FF29C0F7FF000EF86E0F0EFF
:103A8800F76404D0000EF56E0C0006D0F6CFE9FFFF
:103A9800F7CFEAFF000EEF6E000120EE1CF0F451A4
:103AA800D926F551DA22000EDE6E000EDD6E100EFC
:103AB8000001FB6F1200000120EE19F0F451D92625
:103AC800F551DA22000EDB881200000E306E8EC629
:103AD8001EF0F80E1E24316E326AFF0E3222010EDD
:103AE8002F6E20EE06F01C50D9261D50DA22940EB7
:103AF800DE18D8B420D020EE06F01C50D9261D5070
:103B0800DA22950EDE18D8B416D020EE06F01C5036
:103B1800D9261D50DA22960EDE18D8B40CD020EE25
:103B280006F01C50D9261D50DA22C80EDE18D8B46B
:103B380002D0000E2F6E2FC02CF02C50D8B4D5D147
:103B480020EE06F01C50D9261D50DA22940EDE18FD
:103B5800D8A4A3D020EE07F01C50D9261D50DA2295
:103B6800DF501E6E000E046E0A0E036E8FC605F03F
:103B780090C606F0F4EC49F0031E041E034A042A1A
:103B88009A0E0326000E04221E50035C000E0458F1
:103B9800D8B005D0000EE8CF39F7000E120020EE9D
:103BA80004F01C50D9261D50DA2207EE36F0DE50FC
:103BB800EE1813E1DE50EE18D8A40FD01CC0D9FFC0
:103BC8001DC0DAFF07EE32F0DE50EE1806E1DE50D7
:103BD800EE18D8A402D0010E120020EE07F01C50F7
:103BE800D9261D50DA22DF501E6E1E50180D27EE02
:103BF80030F0DECF1FF0DDCF20F05C0E216E060E18
:103C0800226E3A0E2126000E2222211E221E214A51
:103C1800222A1F50212620502222211E221E214AFC
:103C2800222A900E2126000E2222F350215C2250D7
:103C3800800A236EF450800A2358D8B007D086C66D
:103C4800E8FF0109E8CF86F6B3EC47F0320E056EBF
:103C5800070E066E630E076E060E086E000E0A6EDD
:103C6800080E096E12EC49F03CC705F03DC706F096
:103C78006B0E076E060E086E31C009F032C00AF0EE
:103C880012EC49F031C03AF732C03BF739C7E8FFC8
:103C9800FF0FE8CF39F7010E120020EE06F01C5096
:103CA800D9261D50DA22960EDE18D8B414D020EE8C
:103CB80006F01C50D9261D50DA22950EDE18D8B40D
:103CC8000AD020EE06F01C50D9261D50DA22C80E64
:103CD800DE18D8A42ED127EE3AF0DECF1EF0DDCFC5
:103CE8001FF031501E2632501F221F5004E1910E42
:103CF8001E5CD8A005D0000EE8CF39F7000E1200E0
:103D080027EE39F0DF50D8B425D020EE06F01C504D
:103D1800D9261D50DA22960EDE18D8B40CD027EE1C
:103D280039F000EE07F01C50E9261D50EA22DE505B
:103D3800EE18D8A40FD020EE04F01C50D9261D5040
:103D4800DA2207EE36F0DE50EE1804E1DE50EE1807
:103D5800D8B402D0000E120027EE3AF0DECF1EF0E3
:103D6800DDCF1FF027EE3CF0DECF20F0DDCF21F0D5
:103D78001E502024056E1F502120066E6B0E076E04
:103D8800060E086E31C009F032C00AF012EC49F094
:103D980027EE3AF03150DE263250DD2220EE06F0D2
:103DA8001C50D9261D50DA22960EDE18D8B407D03A
:103DB80039C7E8FFFF0FE8CF39F7010E1200000EF0
:103DC800E8CF39F720EE07F01C50D9261D50DA222B
:103DD800DF501E6E1EC038F738C7E8FF830AD8A424
:103DE80002D0020E120027EE3AF007EE30F0EECFC6
:103DF80020F0EDCF21F05C0E226E060E236E3A0EF7
:103E08002226000E2322221E231E224A232A205065
:103E1800222621502322221E231E224A232A900EC4
:103E28002226000E2322DE50225C2350800A246EB4
:103E3800DE50800A2458D8A04FD030C705F031C7CB
:103E480006F0320E076E070E086E000E0A6E0A0E96
:103E5800096E12EC49F027EE30F0DECF1EF0DDCF10
:103E68001FF00A0E1E24056E000E1F20066E3CC7AA
:103E780007F03DC708F03AC709F03BC70AF012EC53
:103E880049F027EE3AF0DECF1EF0DDCF1FF00A0E24
:103E98001E26000E1F2227EE30F01E50DE261F5071
:103EA800DD2207013A510A0F030B2D6E2D50D8B4AD
:103EB80011D02D501E6E1F6A1E1E1F1E1E4A1F2A5D
:103EC800040E1E26000E1F2227EE30F01E50DE269E
:103ED8001F50DD22010E1200B3EC47F086C6E8FF42
:103EE8000109E8CF86F6000E120020EE06F01C50FD
:103EF800D9261D50DA22830EDE18D8A41AD0320E25
:103F0800056E070E066E630E076E060E086E000E2F
:103F18000A6E080E096E12EC49F06B0EE8CF3CF7FA
:103F2800060EE8CF3DF731C03AF732C03BF7020E34
:103F3800120027EE30F0DECF1EF0DDCF1FF05C0E52
:103F4800206E060E216E3A0E2026000E2122201E1B
:103F5800211E204A212A1E5020261F50212231507E
:103F680020263250212221BE06D0215064E19B0E2A
:103F7800205CD8B060D030C705F031C706F0630EBA
:103F8800076E060E086E000E0A6E080E096E12EC19
:103F980049F027EE30F0DECF1EF0DDCF1FF0080E1F
:103FA8001E24056E000E1F20066E310E076E000ED1
:103FB800086E000E0A6E020E096E12EC49F027EE2A
:103FC80030F0DECF1EF0DDCF1FF00A0E1E24056E86
:103FD800000E1F20066E6B0E076E060E086E31C0AF
:103FE80009F032C00AF012EC49F00A0E31241E6EB4
:103FF800000E32201F6E27EE30F01E50DE261F50B6
:10400800DD2231500A0F030B2E6E2E50D8B411D07A
:104018002E501E6E1F6A1E1E1F1E1E4A1F2A040EC9
:104028001E26000E1F2227EE30F01E50DE261F50DF
:10403800DD22010E01D0000E306E30501200050E48
:10404800E126000EE222FE0EE36A26EE86F0DFB2DB
:1040580085D226EE86F0DFB01ED027EE30F0DECF18
:1040680071F0DDCF72F05C0E7A6E060E7B6EE80E94
:10407800786EFF0E796E7A50785E7B50795A71505F
:1040880078267250792279BE69D2795004E19B0E64
:10409800785CD8A063D2F0EC4EF00009D8A406D022
:1040A80086C6E8FFFE0BE8CF86F658D2000E9BD1F5
:1040B800F3EC4CF026EE8EF0DF6E080EDF6007D0D2
:1040C800000E0A6E0A0E096E01EC4BF047D2630E21
:1040D800226E060E236E8EC624F04DEC4FF0060EAF
:1040E800706EFD0E70C0E3FF630E706EFC0E70C044
:1040F800E3FFFC0EE3CF71F0FD0EE3CF72F0020E8A
:104108007124D96E000E7220DA6EDECF03F0DDCF97
:1041180004F045EC4DF00009D8B420D2FC0EE3CFF2
:1041280071F0FD0EE3CF72F0060E7124D96E000E09
:104138007220DA6EDF507B6EFE0E7BC0E3FF26EE48
:104148008CF0FC0EE3CF71F0FD0EE3CF72F0020E9F
:104158007124E96E000E7220EA6EDE50EE1803E15B
:10416800DE50EE18D8A441D1FC0EE3CF71F0FD0E5D
:10417800E3CF72F0060E7124D96E000E7220DA6E4B
:10418800820EDE18D8B4EAD1FC0EE3CF71F0FD0E32
:10419800E3CF72F0060E7124D96E000E7220DA6E2B
:1041A800800EDE18D8A450D026EE8CF0240EDE182F
:1041B80004E1090EDE18D8B447D0FC0EE3CF71F045
:1041C800FD0EE3CF72F0020E7124D96E000E72203C
:1041D800DA6E240EDE6E090EDD6E020EE66EFB0E42
:1041E800E3CF71F0FC0EE3CF72F0020E7124D96EAA
:1041F800000E7220DA6EDECF71F0DDCF72F071C082
:10420800E6FF72C0E6FFB7EC2DF0000E0A6E0A0E4C
:10421800096E01EC4BF0020EE66EFB0EE3CF71F077
:10422800FC0EE3CF72F0020E7124D96E000E7220DC
:10423800DA6EDECF71F0DDCF72F071C0E6FF72C0CA
:10424800E6FFB7EC2DF08AD1FC0EE3CF71F0FD0E3E
:10425800E3CF72F0060E7124D96E000E7220DA6E6A
:10426800C30EDE18D8A43BD026EE8CF0DE50DE104C
:10427800D8B435D026EE8CF0FC0EE3CFE9FFFD0E66
:10428800E3CFEAFFDECFEEFFDDCFEDFFFC0EE3CF9D
:1042980071F0FD0EE3CF72F0020E7124D96E000E9C
:1042A8007220DA6E000EDE6E000EDD6E000EE66E17
:1042B800FB0EE3CF71F0FC0EE3CF72F0020E712417
:1042C800D96E000E7220DA6EDECF71F0DDCF72F09B
:1042D80071C0E6FF72C0E6FFB7EC2DF03FD126EEC5
:1042E80085F0DF50D8B40FD0FC0EE3CF71F0FD0E8F
:1042F800E3CF72F0060E7124D96E000E7220DA6ECA
:10430800800EDF6010D0FC0EE3CF71F0FD0EE3CF1E
:1043180072F0060E7124D96E000E7220DA6EC10E8C
:10432800DE18D8A454D0FC0EE3CF71F0FD0EE3CF15
:1043380072F0060E7124D96E000E7220DA6E940E99
:10434800DE18D8B444D0FC0EE3CF71F0FD0EE3CFF5
:1043580072F0060E7124D96E000E7220DA6E950E78
:10436800DE18D8B434D0FC0EE3CF71F0FD0EE3CFE5
:1043780072F0060E7124D96E000E7220DA6EC80E25
:10438800DE18D8B424D0FC0EE3CF71F0FD0EE3CFD5
:1043980072F0060E7124D96E000E7220DA6E830E4A
:1043A800DE18D8B414D0FC0EE3CF71F0FD0EE3CFC5
:1043B80072F0060E7124D96E000E7220DA6E960E17
:1043C800DE18D8B404D0FE0EE3CF70F0DCD0FC0EBB
:1043D800E3CF1CF0FD0EE3CF1DF069EC1DF0020ADF
:1043E800D8A4BCD0830E706ECED0FC0EE3CF71F093
:1043F800FD0EE3CF72F0020E7124D96E000E72200A
:10440800DA6E400EDE18DE10D8A490D0FC0EE3CF92
:1044180071F0FD0EE3CF72F0060E7124D96E000E16
:104428007220DA6EC20EDE18D8A44FD026EE86F0BF
:10443800DFB694D026EE8CF0240EDE1804E1090EC7
:10444800DE18D8B48BD0FC0EE3CFD9FFFD0EE3CF36
:10445800DAFFFC0EE3CF71F0FD0EE3CF72F0020E2F
:104468007124E96E000E7220EA6EDECFEEFFDDCF1A
:10447800EDFF26EE8CF0FC0EE3CFE9FFFD0EE3CF57
:10448800EAFFDECFEEFFDDCFEDFF26EE93F0DF5043
:10449800096E0A6A01EC4BF0020EE66EFB0EE3CFE2
:1044A80071F0FC0EE3CF72F0020E7124D96E000E8B
:1044B8007220DA6EDECF71F0DDCF72F071C0E6FFE8
:1044C80072C0E6FFB7EC2DF049D0FC0EE3CF1CF02C
:1044D800FD0EE3CF1DF069EC1DF07B6EFB0E7BC07B
:1044E800E3FF26EE5CF0DF50D8B41AD0040EE66E77
:1044F80026EE8BF0DF506CEC4AF003C071F004C07C
:1045080072F0D89071367236D89071367236D8906B
:104518007136723671C0E6FF72C0E6FFB7EC2DF057
:10452800FB0EE3CF70F0020E70185AD7010EE66E3C
:10453800FB0EE3CF71F0FC0EE3CF72F0020E712494
:10454800D96E000E7220DA6EDECF71F0DDCF72F018
:1045580071C0E6FF72C0E6FFB7EC2DF069EC4FF0D2
:104568000009D8B430D7FF0EE124716EFF0EE220A7
:10457800726E71C015F072C016F093EC4DF0000920
:10458800D8B421D795D5FB0EE126FF0EE222120002
:10459800010E01011C25146E000E01011D21156E6E
:1045A80014C0F6FF15C0F7FF000EF86E0F0EF76483
:1045B80003D00800F55005D0F6CFE9FFF7CFEAFFA2
:1045C800EF500009D8A403D0106811681200E60E55
:1045D80001011C25146E000E01011D21156E14C069
:1045E800F6FF15C0F7FF000EF86E0F0EF76407D040
:1045F8000900F5CF16F00900F5CF17F008D0F6CF6F
:10460800E9FFF7CFEAFFEECF16F0EECF17F0125022
:10461800165C13501758D8B020D0E60E01011C259F
:10462800146E000E01011D21156E14C0F6FF15C091
:10463800F7FF000EF86E0F0EF76407D00900F5CFEC
:1046480012F00900F5CF13F008D0F6CFE9FFF7CF45
:10465800EAFFEECF12F0EECF13F010C005F011C054
:1046680006F0E40E01011C25146E000E01011D2147
:10467800156E14C0F6FF15C0F7FF000EF86E0F0E8A
:10468800F76407D00900F5CF16F00900F5CF17F049
:1046980008D0F6CFE9FFF7CFEAFFEECF16F0EECF5E
:1046A80017F07D0E1626000E1722165001011C2544
:1046B800076E175001011D21086E12C009F013C0C2
:1046C8000AF012EC49F0E60E01011C25146E000EEA
:1046D80001011D21156E14C0F6FF15C0F7FF000E6D
:1046E800F86E0F0EF76407D00900F5CF16F0090031
:1046F800F5CF17F008D0F6CFE9FFF7CFEAFFEECFF6
:1047080016F0EECF17F012C018F013C019F0181EEB
:10471800191E184A192A1650182617501922E60E7B
:1047280001011C251A6E000E01011D211B6E1AC005
:10473800F6FF1BC0F7FF000EF86E0F0EF76407D0E8
:1047480018C0F5FF0D0019C0F5FF0C0008D0F6CF12
:10475800E9FFF7CFEAFF18C0EEFF19C0EFFFE40E3C
:1047680001011C25146E000E01011D21156E14C0D7
:10477800F6FF15C0F7FF000EF86E0F0EF76407D0AE
:104788000900F5CF16F00900F5CF17F008D0F6CFDD
:10479800E9FFF7CFEAFFEECF16F0EECF17F0125091
:1047A800162613501722E40E01011C25186E000E60
:1047B80001011D21196E18C0F6FF19C0F7FF000E80
:1047C800F86E0F0EF76407D016C0F5FF0D0017C07E
:1047D800F5FF0C0008D0F6CFE9FFF7CFEAFF16C0C7
:1047E800EEFF17C0EFFFE60E01011C25146E000E48
:1047F80001011D21156E14C0F6FF15C0F7FF000E4C
:10480800F86E0F0EF76407D00900F5CF16F009000F
:10481800F5CF17F008D0F6CFE9FFF7CFEAFFEECFD4
:1048280016F0EECF17F016501710D8A4FBD0010ED3
:1048380001011C25146E000E01011D21156E14C006
:10484800F6FF15C0F7FF000EF86E0F0EF76404D0E0
:10485800000EF56E0C0006D0F6CFE9FFF7CFEAFFA1
:10486800000EEF6EE40E01011C25146E000E01010E
:104878001D21156E14C0F6FF15C0F7FF000EF86E67
:104888000F0EF76407D0000EF56E0D00000EF56EE2
:104898000C0008D0F6CFE9FFF7CFEAFF000EEE6E66
:1048A800000EEF6E1CC1F6FF1DC1F7FF000EF86E7B
:1048B8000F0EF76403D00800F55005D0F6CFE9FFD6
:1048C800F7CFEAFFEF50146E0F0E141614501E0D9A
:1048D800190EF326000EF422980EF324D96E020E58
:1048E800F420DA6E0201DFA854D01CC1F6FF1DC106
:1048F800F7FF000EF86E0F0EF76403D00800F550AE
:1049080005D0F6CFE9FFF7CFEAFFEF50146E600E3F
:104918001416D8A43ED01CC1F6FF1DC1F7FF000E27
:10492800F86E0F0EF76405D0800E0800F5120C0023
:1049380006D0F6CFE9FFF7CFEAFF800EEF120A0E96
:1049480001011C25146E000E01011D21156E14C0F5
:10495800F6FF15C0F7FF000EF86E0F0EF7640DD0C6
:10496800000EF56E0D00000EF56E0D00000EF56ED2
:104978000D00000EF56E0C000CD0F6CFE9FFF7CF56
:10498800EAFF000EEE6E000EEE6E000EEE6E000EEA
:10499800EF6E010E01011C25146E000E01011D2190
:1049A800156E14C0F6FF15C0F7FF000EF86E0F0E57
:1049B800F76403D00800F55005D0F6CFE9FFF7CF2C
:1049C800EAFFEF500009D8A42DD01CC1F6FF1DC185
:1049D800F7FF000EF86E0F0EF76403D00800F550CD
:1049E80005D0F6CFE9FFF7CFEAFFEF50146E14AC0D
:1049F80019D01CC1F6FF1DC1F7FF000EF86E0F0E8F
:104A0800F76404D0000EF56E0C0006D0F6CFE9FF6F
:104A1800F7CFEAFF000EEF6E000E01011C6F000ECB
:104A280001011D6F12C010F013C011F01200000E2A
:104A380000019F6F000E9E6F0001955104E1670E03
:104A48000001945DD8B067D194C0A0F095C0A1F0E2
:104A5800F6EC3FF00001905100019111D8B489D1D2
:104A680090C0F6FF91C0F7FF000EF86E0F0EF764C6
:104A780003D00800F55005D0F6CFE9FFF7CFEAFFDD
:104A8800EF500001966F600E00019617D8A471D1FF
:104A980090C0F6FF91C0F7FF000EF86E0F0EF76496
:104AA80003D00800F55005D0F6CFE9FFF7CFEAFFAD
:104AB800EF500001966F000196A95BD1030E00012B
:104AC80090250001966F000E000191210001976F5B
:104AD80096C0F6FF97C0F7FF000EF86E0F0EF7644A
:104AE80007D00900F5CF98F00900F5CF99F008D064
:104AF800F6CFE9FFF7CFEAFFEECF98F0EECF99F0C7
:104B08000001A051000198270001A151000199233B
:104B1800000199519DE1680E0001985DD8B098D7C1
:104B2800E80E000190250001966F000E000191210A
:104B38000001976F96C0F6FF97C0F7FF000EF86E5A
:104B48000F0EF76403D00800F55005D0F6CFE9FF43
:104B5800F7CFEAFFEF500009D8A47AD7030E000177
:104B680090250001966F000E000191210001976FBA
:104B780096C0F6FF97C0F7FF000EF86E0F0EF764A9
:104B880007D00900F5CF98F00900F5CF99F008D0C3
:104B9800F6CFE9FFF7CFEAFFEECF98F0EECF99F026
:104BA800160E00019827000E992300019851000164
:104BB8009025056E0001995100019121066E0001B2
:104BC8009E5100019225076E00019F51000193211B
:104BD800086EA0C009F0A1C00AF012EC49F0020E5C
:104BE800000190250001966F000E0001912100013F
:104BF800976F96C0F6FF97C0F7FF000EF86E0F0E7E
:104C0800F76404D0010EF56E0C0006D0F6CFE9FF6C
:104C1800F7CFEAFF010EEF6E030E000190250001A9
:104C2800966F000E000191210001976F96C0F6FF64
:104C380097C0F7FF000EF86E0F0EF76407D0090053
:104C4800F5CF98F00900F5CF99F008D0F6CFE9FF35
:104C5800F7CFEAFFEECF98F0EECF99F00001A05120
:104C6800000198270001A15100019923030E0001BA
:104C7800902500019A6F000E0001912100019B6FA1
:104C88009AC0F6FF9BC0F7FF000EF86E0F0EF76490
:104C980007D098C0F5FF0D0099C0F5FF0C0008D0AB
:104CA800F6CFE9FFF7CFEAFF98C0EEFF99C0EFFF14
:104CB8000001A05100019E2500019E6F0001A15135
:104CC80000019F2100019F6F0001945100019E5D2A
:104CD8000001955100019F59D8B028D09EC096F088
:104CE8009FC097F00001961F971F964B972B0001C6
:104CF80094510001962500019C6F00019551000117
:104D0800972100019D6F00019D5105E1670E00018B
:104D18009C5DD8A006D0000E0001A16F670EA06FA1
:104D280097D69CC0A0F09DC0A1F092D6030E0001BA
:104D380090250001966F000E000191210001976FE8
:104D480096C0F6FF97C0F7FF000EF86E0F0EF764D7
:104D580007D00900F5CF90F00900F5CF91F008D001
:104D6800F6CFE9FFF7CFEAFFEECF90F0EECF91F064
:104D78001200E80E000190250001966F000E000158
:104D880091210001976F96C0F6FF97C0F7FF000EBC
:104D9800F86E0F0EF76404D0000EF56E0C0006D006
:104DA800F6CFE9FFF7CFEAFF000EEF6E000190693A
:104DB800916912000001B46F000E0001BE6F000E71
:104DC8000001B56F000E0001BC6F000EBB6F000E36
:104DD8000001B66FBF0E036E000E046E000E066E65
:104DE800400E056EC20E076E3CEC4CF0BF0E000183
:104DF800806F000E0001816F000E0001826F000EAF
:104E08000001836F000E0001846F000E0001866FA1
:104E1800000E856FB4C087F04EEC48F0E5EC4FF01B
:104E280003C0B7F004C0B8F005C0B9F006C0BAF0C6
:104E380023EC20F0C20E7018D8A417D00001BE5180
:104E4800020DAC0EF324056E000EF420066E23EC62
:104E580050F003C007F004C008F0000E0A6E020EFE
:104E6800096E12EC49F00001BE2BB7C0A4F0B8C01F
:104E7800A5F0B9C0A6F0BAC0A7F00001A41FA51FED
:104E8800A61FA71FA42B000EA523A623A723E5EC86
:104E98004FF00001A45103240001A86F0001A5519F
:104EA80004200001A96F0001A65105200001AA6F86
:104EB8000001A75106200001AB6F0001AB510001B2
:104EC800AA110001A91109E1380E0001A85DD8B0A6
:104ED80004D0030E0001BE65ABD70001BE5100012E
:104EE800D8A402D0000E1200000E0001BD6F8BD0B6
:104EF800C30E0001C56FFF0E0001886F8769F4ECCF
:104F080037F0000187510001C66F0001BD51020D45
:104F1800AC0EF324D96E000EF420DA6EDECFC1F0A9
:104F2800DDCFC2F0BF0E516E000E526E000E536EF2
:104F3800000E546E000E556E000E576E000E566E23
:104F48000001BD51020DAC0EF324D96E000EF42001
:104F5800DA6EDECF58F0DDCF59F042EC2FF0E5ECF9
:104F68004FF003C0B7F004C0B8F005C0B9F006C0F0
:104F7800BAF00DD023EC20F070500001B66F800E0F
:104F88000001B619D8A403D0BEC0BDF034D0B7C054
:104F9800A4F0B8C0A5F0B9C0A6F0BAC0A7F0000147
:104FA800A41FA51FA61FA71FA42B000EA523A62379
:104FB800A723E5EC4FF00001A45103240001A86FDA
:104FC8000001A55104200001A96F0001A651052088
:104FD8000001AA6F0001A75106200001AB6F000174
:104FE800AB510001AA110001A91105E1E10E000170
:104FF800A85DD8A0BFD7000E0A6E050E096E01EC99
:105008004BF00001BD2B0001BE510001BD5DD8A0D1
:105018006FD7800E0001B619D8B402D0000E120066
:10502800BB0E056E000E066E23EC50F0080E03242E
:10503800076E000E0420086E000E0A6E020E096E3E
:1050480012EC49F00001BB510001BC11D8B41DD0CD
:1050580023EC50F0070E0324D96E000E0420DA6EFC
:10506800DF500001A46FA56BFF0E0001886F8769F0
:10507800F4EC37F0000187510001A41906E10001A2
:1050880088510001A519D8B402D0000E1200BBC087
:1050980001F1BCC002F1B3EC47F0000E0A6E0A0E33
:1050A800096E01EC4BF001C12FF002C130F0EEECBB
:1050B8004FF0000E0001C26F000EC16F810E00019B
:1050C800C56F1CD00001B52BB5050001A46F050EF6
:1050D8000001A4650DD0090E306E240E2F6EEEEC83
:1050E8004FF0090E0101026F240E016F000E12002D
:1050F800000E0A6E030E096E01EC4BF0BF0E0001A4
:10510800806F000E0001816F000E0001826F000E9B
:105118000001836F000E0001846F000E0001866F8E
:10512800000E856F1FEC4EF00009D8B4CBD7010EE6
:105138001200E5EC4FF003C007F004C008F005C00A
:1051480009F006C00AF0E80E0B6E030E0C6E000E96
:105158000D6E000E0E6E24EC45F007C0DAF008C0A4
:10516800DBF009C0DCF00AC0DDF0DAC007F0DBC014
:1051780008F0DCC009F0DDC00AF03C0E0B6E000E32
:105188000C6E000E0D6E000E0E6E24EC45F007C07E
:10519800DEF008C0DFF009C0E0F00AC0E1F0DEC0D0
:1051A80007F0DFC008F0E0C009F0E1C00AF03C0EEB
:1051B8000B6E000E0C6E000E0D6E000E0E6E24ECC3
:1051C80045F007C0E2F008C0E3F009C0E4F00AC007
:1051D800E5F0E2C007F0E3C008F0E4C009F0E5C07C
:1051E8000AF0180E0B6E000E0C6E000E0D6E000EFF
:1051F8000E6E24EC45F007500001D96FDAC014F0A8
:10520800DBC015F0DCC016F0DDC017F03C0E186EE0
:10521800000E196E000E1A6E000E1B6EE8EC47F0B9
:1052280014C0DAF015C0DBF016C0DCF017C0DDF0F2
:10523800DEC014F0DFC015F0E0C016F0E1C017F0D2
:105248003C0E186E000E196E000E1A6E000E1B6EC4
:10525800E8EC47F014C0DEF015C0DFF016C0E0F04F
:1052680017C0E1F0E2C014F0E3C015F0E4C016F096
:10527800E5C017F0180E186E000E196E000E1A6EA3
:10528800000E1B6EE8EC47F014C0E2F015C0E3F026
:1052980016C0E4F017C0E5F0AC0E036E000E046E05
:1052A800E90E056EFD0E066E000E086E2D0E076ED9
:1052B800B2EC48F0AC0E0001AA6F000E0001AB6F13
:1052C800C4EC4DF0AC0E036E000E046EBE0E056EFF
:1052D800FD0E066E000E086E2D0E076EB2EC48F03D
:1052E800AC0E0001AA6F000E0001AB6FC4EC4DF0CC
:1052F800AC0E036E000E046E920E056EFD0E066E69
:10530800000E086E2D0E076EB2EC48F0AC0E0001D0
:10531800AA6F000E0001AB6FC4EC4DF0AC0E036E2B
:10532800000E046E650E056EFD0E066E000E086E0C
:105338002D0E076EB2EC48F0AC0E0001AA6F000EFD
:105348000001AB6FC4EC4DF0AC0E036E000E046EA2
:10535800640E056EFE0E066E000E086E2D0E076EAC
:10536800B2EC48F0AC0E0001AA6F000E0001AB6F62
:10537800C4EC4DF0AC0E416E000E426ED50E436E7D
:10538800FE0E446ED9C045F0466AE2C047F0E3C05D
:1053980048F0E4C049F0E5C04AF0DEC04BF0DFC099
:1053A8004CF0E0C04DF0E1C04EF0DAC04FF0DBC089
:1053B80050F0DCC051F0DDC052F0FAEC4BF0AC0E0E
:1053C8000001AA6F000E0001AB6FC4EC4DF0AC0EEB
:1053D800036E000E046E3B0E056EFE0E066E000E8A
:1053E800086E2D0E076EB2EC48F0AC0E0001AA6FE5
:1053F800000E0001AB6FC4EC4DF0AC0E416E000E18
:10540800426E120E436EFE0E446E000E466E900EF5
:10541800456EFAEC4BF0AC0E0001AA6F000E0001CD
:10542800AB6FC4EC4DF0AC0E416E000E426E8B0EAD
:10543800436EFE0E446E000E466E670E456EFAEC25
:105448004BF0AC0E0001AA6F000E0001AB6FC4EC6C
:105458004DF0AC0E036E000E046E170E056EFF0EB7
:10546800066E000E086E2D0E076EB2EC48F0AC0EFC
:105478000001AA6F000E0001AB6FC4EC4DF0AC0E3A
:10548800036E000E046EB20E056EFE0E066E000E62
:10549800086E2D0E076EB2EC48F0AC0E0001AA6F34
:1054A800000E0001AB6FC4EC4DF0120020EE03F0CB
:1054B8001150D9261250DA22DF5031EC50F028EC86
:1054C80050F00A0E0324D96E000E0420DA6EDECFE7
:1054D8007CF0DDCF7DF011C0D9FF12C0DAFFDF50BC
:1054E800196E19501B6E1A6A20EE01F01150D92658
:1054F8001250DA22DF501C6E1C501A12000E1B12BA
:105508001BC01AF01B6A11C0D9FF12C0DAFFDF50A6
:105518001D6E1D501F6E1E6A20EE01F01150D92617
:105528001250DA22DF50206E20501E12000E1F1279
:105538001EC01FF01E6A1A501E10216E1B501F102D
:10554800226E20EE02F01150D9261250DA22DF50D6
:10555800196E19501B6E1A6A20EE03F01150D926E5
:105568001250DA22DF501C6E1C501A12000E1B1249
:105578001BC01AF01B6A20EE02F01150D9261250F7
:10558800DA22DF501D6E1D501F6E1E6A20EE03F0DA
:105598001150D9261250DA22DF50206E20501E12E8
:1055A800000E1F121EC01FF01E6A1A501E10236E16
:1055B8001B501F10246E21C0EEF022C0EFF023C054
:1055C800F0F024C0F1F015C0D9FF16C0DAFFDF50A3
:1055D800196E19501B6E1A6A20EE01F01550D92663
:1055E8001650DA22DF501C6E1C501A12000E1B12C5
:1055F8001BC01AF01B6A15C0D9FF16C0DAFFDF50AE
:105608001D6E1D501F6E1E6A20EE01F01550D92622
:105618001650DA22DF50206E20501E12000E1F1284
:105628001EC01FF01E6A1A501E10216E1B501F103C
:10563800226E20EE02F01550D9261650DA22DF50DD
:10564800196E19501B6E1A6A20EE03F01550D926F0
:105658001650DA22DF501C6E1C501A12000E1B1254
:105668001BC01AF01B6A20EE02F01550D9261650FE
:10567800DA22DF501D6E1D501F6E1E6A20EE03F0E9
:105688001550D9261650DA22DF50206E20501E12EF
:10569800000E1F121EC01FF01E6A1A501E10236E25
:1056A8001B501F10246E21C032F122C033F123C0D9
:1056B80034F124C035F117C0D9FF18C0DAFFDF5024
:1056C800196E19501B6E1A6A20EE01F01750D92670
:1056D8001850DA22DF501C6E1C501A12000E1B12D2
:1056E8001BC01AF01B6A17C0D9FF18C0DAFFDF50B9
:1056F8001D6E1D501F6E1E6A20EE01F01750D92630
:105708001850DA22DF50206E20501E12000E1F1291
:105718001EC01FF01E6A1A501E10216E1B501F104B
:10572800226E20EE02F01750D9261850DA22DF50E8
:10573800196E19501B6E1A6A20EE03F01750D926FD
:105748001850DA22DF501C6E1C501A12000E1B1261
:105758001BC01AF01B6A20EE02F01750D926185009
:10576800DA22DF501D6E1D501F6E1E6A20EE03F0F8
:105778001750D9261850DA22DF50206E20501E12FA
:10578800000E1F121EC01FF01E6A1A501E10236E34
:105798001B501F10246E21C036F122C037F123C0E0
:1057A80038F124C039F113C0D9FF14C0DAFFDF5033
:1057B80001015D6F20EE01F01350D9261450DA2252
:1057C800DF5001015E6F20EE02F01350D92614500D
:1057D800DA22DF5001015F6F20EE03F01350D92663
:1057E8001450DA22DF500101606F620E0B6E010E59
:1057F8000C6E3E0E0D6E000E0E6E000E0F6E000E3D
:10580800106EBAEC4CF048EC47F012002BC046F092
:105818002CC047F027D020EE03F04650D926475039
:10582800DA22DE50DE10D8A419D02BC02FF02CC0FD
:1058380030F02F1E301E2F4A302A46502F24036E78
:1058480047503020046E000E066E070E056EE2EC1F
:1058580044F003C02BF004C02CF01200070E4626BB
:10586800000E47222DC003F02EC004F0000E066E75
:10587800070E056EA8EC4EF02BC02FF02CC030F0B0
:1058880003502F26045030222F50465C3050475882
:10589800D8A0C1D712EC44F01FC042F020C043F09A
:1058A80043AE03D02B682C6812002BC046F02CC0E6
:1058B80047F040D120EE05F04650D9264750DA226D
:1058C800DECF2FF0DDCF30F046C0D9FF47C0DAFF7A
:1058D800DECF31F0DECF32F0DECF33F02F5031247F
:1058E800346E30503220356E000E3320366E34C0A0
:1058F800F6FF35C0F7FF36C0F8FF0800F550376EE1
:10590800386A4250371833E143503818D8A42FD09A
:1059180020EE03F04650D9264750DA2200EE05F073
:105928004650E9264750EA22EE2A000EED22DE50C4
:10593800EE1803E1DE50EE18D8A4F8D02BC02FF0F3
:105948002CC030F02F1E301E2F4A302A46502F24EC
:10595800036E47503020046E000E066E070E056E6B
:10596800E2EC44F003C02BF004C02CF0120020EE4F
:1059780005F04650D9264750DA22DE50DE10D8B45A
:10598800D5D020EE05F04650D9264750DA22DECF92
:105998003EF0DDCF3FF020EE05F04650D9264750C7
:1059A800DA22DE06000EDD5A20EE05F04650D92632
:1059B8004750DA22DECF2FF0DDCF30F046C0D9FFD6
:1059C80047C0DAFFDECF31F0DECF32F0DECF33F082
:1059D8002F503124346E30503220356E000E332073
:1059E800366E34C0F6FF35C0F7FF36C0F8FF080042
:1059F800F550376E386A4250371805E14350381869
:105A0800D8A48AD001D088D020EE05F04650D926F7
:105A18004750DA22DE50DE10D8B474D020EE05F0FC
:105A28004650D9264750DA22DECF2FF0DDCF30F0AE
:105A38002F1E301E2F4A302A3E502F24406E3F50D2
:105A48003020416E000E456E000E446E42D046C0B6
:105A5800D9FF47C0DAFFDECF2FF0DECF30F0DECF40
:105A680031F044502F24326E45503020336E000EF2
:105A78003120346E32C0F6FF33C0F7FF34C0F8FF70
:105A88000800F5CF35F044504024366E455041208B
:105A9800376E46C0D9FF47C0DAFFDECF38F0DECF19
:105AA80039F0DECF3AF0365038243B6E3750392083
:105AB8003C6E000E3A203D6E3BC0F6FF3CC0F7FF3F
:105AC8003DC0F8FF0800F5503518D8A40ED0444A58
:105AD800452A20EE05F04650D9264750DA22DE50F6
